{
  "contractName": "RandomContract",
  "abi": [
    {
      "anonymous": false,
      "inputs": [
        {
          "indexed": true,
          "internalType": "address",
          "name": "previousOwner",
          "type": "address"
        },
        {
          "indexed": true,
          "internalType": "address",
          "name": "newOwner",
          "type": "address"
        }
      ],
      "name": "OwnershipTransferred",
      "type": "event"
    },
    {
      "inputs": [],
      "name": "name",
      "outputs": [
        {
          "internalType": "string",
          "name": "",
          "type": "string"
        }
      ],
      "stateMutability": "view",
      "type": "function",
      "constant": true
    },
    {
      "inputs": [],
      "name": "owner",
      "outputs": [
        {
          "internalType": "address",
          "name": "",
          "type": "address"
        }
      ],
      "stateMutability": "view",
      "type": "function",
      "constant": true
    },
    {
      "inputs": [],
      "name": "renounceOwnership",
      "outputs": [],
      "stateMutability": "nonpayable",
      "type": "function"
    },
    {
      "inputs": [
        {
          "internalType": "address",
          "name": "newOwner",
          "type": "address"
        }
      ],
      "name": "transferOwnership",
      "outputs": [],
      "stateMutability": "nonpayable",
      "type": "function"
    },
    {
      "inputs": [
        {
          "internalType": "uint256",
          "name": "min",
          "type": "uint256"
        },
        {
          "internalType": "uint256",
          "name": "max",
          "type": "uint256"
        }
      ],
      "name": "random",
      "outputs": [],
      "stateMutability": "nonpayable",
      "type": "function"
    },
    {
      "inputs": [],
      "name": "getRandomNumber",
      "outputs": [
        {
          "internalType": "uint256",
          "name": "",
          "type": "uint256"
        }
      ],
      "stateMutability": "view",
      "type": "function",
      "constant": true
    }
  ],
  "bytecode": "0x60806040526040518060400160405280600681526020017f52616e646f6d0000000000000000000000000000000000000000000000000000815250600190816200004a9190620003ca565b5060006002553480156200005d57600080fd5b506200007e620000726200008460201b60201c565b6200008c60201b60201c565b620004b1565b600033905090565b60008060009054906101000a900473ffffffffffffffffffffffffffffffffffffffff169050816000806101000a81548173ffffffffffffffffffffffffffffffffffffffff021916908373ffffffffffffffffffffffffffffffffffffffff1602179055508173ffffffffffffffffffffffffffffffffffffffff168173ffffffffffffffffffffffffffffffffffffffff167f8be0079c531659141344cd1fd0a4f28419497f9722a3daafe3b4186f6b6457e060405160405180910390a35050565b600081519050919050565b7f4e487b7100000000000000000000000000000000000000000000000000000000600052604160045260246000fd5b7f4e487b7100000000000000000000000000000000000000000000000000000000600052602260045260246000fd5b60006002820490506001821680620001d257607f821691505b602082108103620001e857620001e76200018a565b5b50919050565b60008190508160005260206000209050919050565b60006020601f8301049050919050565b600082821b905092915050565b600060088302620002527fffffffffffffffffffffffffffffffffffffffffffffffffffffffffffffffff8262000213565b6200025e868362000213565b95508019841693508086168417925050509392505050565b6000819050919050565b6000819050919050565b6000620002ab620002a56200029f8462000276565b62000280565b62000276565b9050919050565b6000819050919050565b620002c7836200028a565b620002df620002d682620002b2565b84845462000220565b825550505050565b600090565b620002f6620002e7565b62000303818484620002bc565b505050565b5b818110156200032b576200031f600082620002ec565b60018101905062000309565b5050565b601f8211156200037a576200034481620001ee565b6200034f8462000203565b810160208510156200035f578190505b620003776200036e8562000203565b83018262000308565b50505b505050565b600082821c905092915050565b60006200039f600019846008026200037f565b1980831691505092915050565b6000620003ba83836200038c565b9150826002028217905092915050565b620003d58262000150565b67ffffffffffffffff811115620003f157620003f06200015b565b5b620003fd8254620001b9565b6200040a8282856200032f565b600060209050601f8311600181146200044257600084156200042d578287015190505b620004398582620003ac565b865550620004a9565b601f1984166200045286620001ee565b60005b828110156200047c5784890151825560018201915060208501945060208101905062000455565b868310156200049c578489015162000498601f8916826200038c565b8355505b6001600288020188555050505b505050505050565b610a2280620004c16000396000f3fe608060405234801561001057600080fd5b50600436106100625760003560e01c806306fdde0314610067578063715018a6146100855780638da5cb5b1461008f578063a9dd1225146100ad578063dbdff2c1146100c9578063f2fde38b146100e7575b600080fd5b61006f610103565b60405161007c9190610531565b60405180910390f35b61008d610191565b005b610097610219565b6040516100a49190610594565b60405180910390f35b6100c760048036038101906100c291906105ea565b610242565b005b6100d16102cb565b6040516100de9190610639565b60405180910390f35b61010160048036038101906100fc9190610680565b6102d5565b005b60018054610110906106dc565b80601f016020809104026020016040519081016040528092919081815260200182805461013c906106dc565b80156101895780601f1061015e57610100808354040283529160200191610189565b820191906000526020600020905b81548152906001019060200180831161016c57829003601f168201915b505050505081565b6101996103cc565b73ffffffffffffffffffffffffffffffffffffffff166101b7610219565b73ffffffffffffffffffffffffffffffffffffffff161461020d576040517f08c379a000000000000000000000000000000000000000000000000000000000815260040161020490610759565b60405180910390fd5b61021760006103d4565b565b60008060009054906101000a900473ffffffffffffffffffffffffffffffffffffffff16905090565b600160025461025191906107a8565b60028190555042444333600254604051602001610272959493929190610867565b6040516020818303038152906040528051906020012060001c6003819055506001828261029f91906108c6565b6102a991906107a8565b6003546102b69190610929565b826102c191906107a8565b6003819055505050565b6000600354905090565b6102dd6103cc565b73ffffffffffffffffffffffffffffffffffffffff166102fb610219565b73ffffffffffffffffffffffffffffffffffffffff1614610351576040517f08c379a000000000000000000000000000000000000000000000000000000000815260040161034890610759565b60405180910390fd5b600073ffffffffffffffffffffffffffffffffffffffff168173ffffffffffffffffffffffffffffffffffffffff16036103c0576040517f08c379a00000000000000000000000000000000000000000000000000000000081526004016103b7906109cc565b60405180910390fd5b6103c9816103d4565b50565b600033905090565b60008060009054906101000a900473ffffffffffffffffffffffffffffffffffffffff169050816000806101000a81548173ffffffffffffffffffffffffffffffffffffffff021916908373ffffffffffffffffffffffffffffffffffffffff1602179055508173ffffffffffffffffffffffffffffffffffffffff168173ffffffffffffffffffffffffffffffffffffffff167f8be0079c531659141344cd1fd0a4f28419497f9722a3daafe3b4186f6b6457e060405160405180910390a35050565b600081519050919050565b600082825260208201905092915050565b60005b838110156104d25780820151818401526020810190506104b7565b838111156104e1576000848401525b50505050565b6000601f19601f8301169050919050565b600061050382610498565b61050d81856104a3565b935061051d8185602086016104b4565b610526816104e7565b840191505092915050565b6000602082019050818103600083015261054b81846104f8565b905092915050565b600073ffffffffffffffffffffffffffffffffffffffff82169050919050565b600061057e82610553565b9050919050565b61058e81610573565b82525050565b60006020820190506105a96000830184610585565b92915050565b600080fd5b6000819050919050565b6105c7816105b4565b81146105d257600080fd5b50565b6000813590506105e4816105be565b92915050565b60008060408385031215610601576106006105af565b5b600061060f858286016105d5565b9250506020610620858286016105d5565b9150509250929050565b610633816105b4565b82525050565b600060208201905061064e600083018461062a565b92915050565b61065d81610573565b811461066857600080fd5b50565b60008135905061067a81610654565b92915050565b600060208284031215610696576106956105af565b5b60006106a48482850161066b565b91505092915050565b7f4e487b7100000000000000000000000000000000000000000000000000000000600052602260045260246000fd5b600060028204905060018216806106f457607f821691505b602082108103610707576107066106ad565b5b50919050565b7f4f776e61626c653a2063616c6c6572206973206e6f7420746865206f776e6572600082015250565b60006107436020836104a3565b915061074e8261070d565b602082019050919050565b6000602082019050818103600083015261077281610736565b9050919050565b7f4e487b7100000000000000000000000000000000000000000000000000000000600052601160045260246000fd5b60006107b3826105b4565b91506107be836105b4565b9250827fffffffffffffffffffffffffffffffffffffffffffffffffffffffffffffffff038211156107f3576107f2610779565b5b828201905092915050565b6000819050919050565b610819610814826105b4565b6107fe565b82525050565b60008160601b9050919050565b60006108378261081f565b9050919050565b60006108498261082c565b9050919050565b61086161085c82610573565b61083e565b82525050565b60006108738288610808565b6020820191506108838287610808565b6020820191506108938286610808565b6020820191506108a38285610850565b6014820191506108b38284610808565b6020820191508190509695505050505050565b60006108d1826105b4565b91506108dc836105b4565b9250828210156108ef576108ee610779565b5b828203905092915050565b7f4e487b7100000000000000000000000000000000000000000000000000000000600052601260045260246000fd5b6000610934826105b4565b915061093f836105b4565b92508261094f5761094e6108fa565b5b828206905092915050565b7f4f776e61626c653a206e6577206f776e657220697320746865207a65726f206160008201527f6464726573730000000000000000000000000000000000000000000000000000602082015250565b60006109b66026836104a3565b91506109c18261095a565b604082019050919050565b600060208201905081810360008301526109e5816109a9565b905091905056fea2646970667358221220449829256de47bb12618f88ea38cbfc5d48a95306da3ec3c996be1d1d1cc18b764736f6c634300080f0033",
  "immutableReferences": {},
  "source": "// SPDX-License-Identifier: MIT\r\npragma solidity >=0.4.22 <0.9.0;\r\n\r\nimport \"@openzeppelin/contracts/utils/math/SafeMath.sol\";\r\nimport \"@openzeppelin/contracts/access/Ownable.sol\";\r\n\r\ncontract RandomContract is Ownable {\r\n    using SafeMath for uint256;\r\n    string public name = \"Random\";\r\n\r\n    uint256 private randNonce = 0;\r\n    uint256 randNumber;\r\n\r\n    // constructor() public {}\r\n\r\n    function random(uint256 min, uint256 max) public {\r\n        // Transaction-Level PRNG\r\n        randNonce = randNonce + 1;\r\n        randNumber = uint256(\r\n            keccak256(\r\n                abi.encodePacked(\r\n                    block.timestamp,\r\n                    block.difficulty,\r\n                    block.number,\r\n                    msg.sender,\r\n                    randNonce\r\n                )\r\n            )\r\n        );\r\n        randNumber = min + (randNumber % (max - min + 1));\r\n    }\r\n\r\n    function getRandomNumber() public view returns (uint256) {\r\n        return randNumber;\r\n    }\r\n}\r\n",
  "sourcePath": "C:\\Users\\ASUS\\Documents\\GitHub\\smartcontract-template\\contracts\\RandomContract.sol",
  "compiler": {
    "name": "solc",
    "version": "0.8.15+commit.e14f2714.Emscripten.clang"
  },
  "schemaVersion": "3.4.7",
  "updatedAt": "2022-06-27T09:23:47.263Z",
  "networkType": "ethereum",
  "devdoc": {
    "kind": "dev",
    "methods": {
      "owner()": {
        "details": "Returns the address of the current owner."
      },
      "renounceOwnership()": {
        "details": "Leaves the contract without owner. It will not be possible to call `onlyOwner` functions anymore. Can only be called by the current owner. NOTE: Renouncing ownership will leave the contract without an owner, thereby removing any functionality that is only available to the owner."
      },
      "transferOwnership(address)": {
        "details": "Transfers ownership of the contract to a new account (`newOwner`). Can only be called by the current owner."
      }
    },
    "version": 1
  },
  "userdoc": {
    "kind": "user",
    "methods": {},
    "version": 1
  }
}