{
  "contractName": "RandomGame",
  "abi": [
    {
      "anonymous": false,
      "inputs": [
        {
          "indexed": false,
          "internalType": "uint8",
          "name": "name",
          "type": "uint8"
        },
        {
          "indexed": false,
          "internalType": "address",
          "name": "player",
          "type": "address"
        },
        {
          "components": [
            {
              "internalType": "uint256",
              "name": "dice1",
              "type": "uint256"
            },
            {
              "internalType": "uint256",
              "name": "dice2",
              "type": "uint256"
            },
            {
              "internalType": "uint256",
              "name": "dice3",
              "type": "uint256"
            }
          ],
          "indexed": false,
          "internalType": "struct RandomGame.Dice",
          "name": "dice",
          "type": "tuple"
        }
      ],
      "name": "GameEvent",
      "type": "event"
    },
    {
      "anonymous": false,
      "inputs": [
        {
          "indexed": true,
          "internalType": "address",
          "name": "previousOwner",
          "type": "address"
        },
        {
          "indexed": true,
          "internalType": "address",
          "name": "newOwner",
          "type": "address"
        }
      ],
      "name": "OwnershipTransferred",
      "type": "event"
    },
    {
      "inputs": [],
      "name": "endTime",
      "outputs": [
        {
          "internalType": "uint256",
          "name": "",
          "type": "uint256"
        }
      ],
      "stateMutability": "view",
      "type": "function"
    },
    {
      "inputs": [],
      "name": "isEnded",
      "outputs": [
        {
          "internalType": "bool",
          "name": "",
          "type": "bool"
        }
      ],
      "stateMutability": "view",
      "type": "function"
    },
    {
      "inputs": [],
      "name": "owner",
      "outputs": [
        {
          "internalType": "address",
          "name": "",
          "type": "address"
        }
      ],
      "stateMutability": "view",
      "type": "function"
    },
    {
      "inputs": [],
      "name": "playerCount",
      "outputs": [
        {
          "internalType": "uint256",
          "name": "",
          "type": "uint256"
        }
      ],
      "stateMutability": "view",
      "type": "function"
    },
    {
      "inputs": [
        {
          "internalType": "uint256",
          "name": "",
          "type": "uint256"
        }
      ],
      "name": "players",
      "outputs": [
        {
          "internalType": "address",
          "name": "player",
          "type": "address"
        },
        {
          "internalType": "uint256",
          "name": "stake",
          "type": "uint256"
        },
        {
          "internalType": "uint8",
          "name": "status",
          "type": "uint8"
        }
      ],
      "stateMutability": "view",
      "type": "function"
    },
    {
      "inputs": [],
      "name": "renounceOwnership",
      "outputs": [],
      "stateMutability": "nonpayable",
      "type": "function"
    },
    {
      "inputs": [
        {
          "internalType": "address",
          "name": "newOwner",
          "type": "address"
        }
      ],
      "name": "transferOwnership",
      "outputs": [],
      "stateMutability": "nonpayable",
      "type": "function"
    },
    {
      "inputs": [
        {
          "internalType": "uint256",
          "name": "stake",
          "type": "uint256"
        },
        {
          "internalType": "uint8",
          "name": "status",
          "type": "uint8"
        }
      ],
      "name": "placeBet",
      "outputs": [],
      "stateMutability": "payable",
      "type": "function"
    },
    {
      "inputs": [
        {
          "internalType": "uint256",
          "name": "sessionTime",
          "type": "uint256"
        }
      ],
      "name": "startGame",
      "outputs": [],
      "stateMutability": "payable",
      "type": "function"
    },
    {
      "inputs": [],
      "name": "finishGame",
      "outputs": [],
      "stateMutability": "nonpayable",
      "type": "function"
    }
  ],
  "bytecode": "0x608060405260006002556000600360006101000a81548160ff021916908315150217905550600060055534801561003557600080fd5b5061005261004761005760201b60201c565b61005f60201b60201c565b610123565b600033905090565b60008060009054906101000a900473ffffffffffffffffffffffffffffffffffffffff169050816000806101000a81548173ffffffffffffffffffffffffffffffffffffffff021916908373ffffffffffffffffffffffffffffffffffffffff1602179055508173ffffffffffffffffffffffffffffffffffffffff168173ffffffffffffffffffffffffffffffffffffffff167f8be0079c531659141344cd1fd0a4f28419497f9722a3daafe3b4186f6b6457e060405160405180910390a35050565b611374806101326000396000f3fe6080604052600436106100915760003560e01c80639fecb69f116100595780639fecb69f1461014a578063a4fd6f5614610161578063e5ed1d591461018c578063f2fde38b146101a8578063f71d96cb146101d157610091565b806303edf91414610096578063302bcc57146100b25780633197cbb6146100dd578063715018a6146101085780638da5cb5b1461011f575b600080fd5b6100b060048036038101906100ab9190610bb4565b610210565b005b3480156100be57600080fd5b506100c761035e565b6040516100d49190610c03565b60405180910390f35b3480156100e957600080fd5b506100f2610364565b6040516100ff9190610c03565b60405180910390f35b34801561011457600080fd5b5061011d61036a565b005b34801561012b57600080fd5b506101346103f2565b6040516101419190610c5f565b60405180910390f35b34801561015657600080fd5b5061015f61041b565b005b34801561016d57600080fd5b506101766106bc565b6040516101839190610c95565b60405180910390f35b6101a660048036038101906101a19190610cb0565b6106cf565b005b3480156101b457600080fd5b506101cf60048036038101906101ca9190610d09565b6107e0565b005b3480156101dd57600080fd5b506101f860048036038101906101f39190610cb0565b6108d7565b60405161020793929190610d45565b60405180910390f35b60045442111561021f57600080fd5b600360009054906101000a900460ff161561026f576040517f08c379a000000000000000000000000000000000000000000000000000000000815260040161026690610dd9565b60405180910390fd5b600060405180606001604052803373ffffffffffffffffffffffffffffffffffffffff1681526020018481526020018360ff168152509050806001600254815481106102be576102bd610df9565b5b906000526020600020906003020160008201518160000160006101000a81548173ffffffffffffffffffffffffffffffffffffffff021916908373ffffffffffffffffffffffffffffffffffffffff1602179055506020820151816001015560408201518160020160006101000a81548160ff021916908360ff1602179055509050506002600081548092919061035490610e57565b9190505550505050565b60025481565b60045481565b61037261093e565b73ffffffffffffffffffffffffffffffffffffffff166103906103f2565b73ffffffffffffffffffffffffffffffffffffffff16146103e6576040517f08c379a00000000000000000000000000000000000000000000000000000000081526004016103dd90610eeb565b60405180910390fd5b6103f06000610946565b565b60008060009054906101000a900473ffffffffffffffffffffffffffffffffffffffff16905090565b61042361093e565b73ffffffffffffffffffffffffffffffffffffffff166104416103f2565b73ffffffffffffffffffffffffffffffffffffffff1614610497576040517f08c379a000000000000000000000000000000000000000000000000000000000815260040161048e90610eeb565b60405180910390fd5b60001515600360009054906101000a900460ff161515146104ed576040517f08c379a00000000000000000000000000000000000000000000000000000000081526004016104e490610f57565b60405180910390fd5b6001600360006101000a81548160ff0219169083151502179055506000610512610a0a565b9050600081604001518260200151836000015161052f9190610f77565b6105399190610f77565b905060005b6002548167ffffffffffffffff1610156106b757600060018267ffffffffffffffff168154811061057257610571610df9565b5b90600052602060002090600302016040518060600160405290816000820160009054906101000a900473ffffffffffffffffffffffffffffffffffffffff1673ffffffffffffffffffffffffffffffffffffffff1673ffffffffffffffffffffffffffffffffffffffff168152602001600182015481526020016002820160009054906101000a900460ff1660ff1660ff16815250509050610618816040015184610a59565b15610662577fed9e7131895c0822ef7bb3428ed8c60f37b9b1c339dece7cf7bd4266273e9f75600382600001518660405161065593929190611063565b60405180910390a16106a3565b7fed9e7131895c0822ef7bb3428ed8c60f37b9b1c339dece7cf7bd4266273e9f75600482600001518660405161069a939291906110d5565b60405180910390a15b5080806106af90611120565b91505061053e565b505050565b600360009054906101000a900460ff1681565b6106d761093e565b73ffffffffffffffffffffffffffffffffffffffff166106f56103f2565b73ffffffffffffffffffffffffffffffffffffffff161461074b576040517f08c379a000000000000000000000000000000000000000000000000000000000815260040161074290610eeb565b60405180910390fd5b60045442111561075a57600080fd5b60011515600360009054906101000a900460ff161515146107b0576040517f08c379a00000000000000000000000000000000000000000000000000000000081526004016107a790610f57565b60405180910390fd5b80426107bc9190610f77565b6004819055506000600360006101000a81548160ff02191690831515021790555050565b6107e861093e565b73ffffffffffffffffffffffffffffffffffffffff166108066103f2565b73ffffffffffffffffffffffffffffffffffffffff161461085c576040517f08c379a000000000000000000000000000000000000000000000000000000000815260040161085390610eeb565b60405180910390fd5b600073ffffffffffffffffffffffffffffffffffffffff168173ffffffffffffffffffffffffffffffffffffffff16036108cb576040517f08c379a00000000000000000000000000000000000000000000000000000000081526004016108c2906111c2565b60405180910390fd5b6108d481610946565b50565b600181815481106108e757600080fd5b90600052602060002090600302016000915090508060000160009054906101000a900473ffffffffffffffffffffffffffffffffffffffff16908060010154908060020160009054906101000a900460ff16905083565b600033905090565b60008060009054906101000a900473ffffffffffffffffffffffffffffffffffffffff169050816000806101000a81548173ffffffffffffffffffffffffffffffffffffffff021916908373ffffffffffffffffffffffffffffffffffffffff1602179055508173ffffffffffffffffffffffffffffffffffffffff168173ffffffffffffffffffffffffffffffffffffffff167f8be0079c531659141344cd1fd0a4f28419497f9722a3daafe3b4186f6b6457e060405160405180910390a35050565b610a12610b1f565b60006040518060600160405280610a2b60016006610a99565b8152602001610a3c60016006610a99565b8152602001610a4d60016006610a99565b81525090508091505090565b6000808360ff1603610a7e57600b8210158015610a77575060118211155b9050610a93565b60048210158015610a905750600a8211155b90505b92915050565b60006001600554610aaa9190610f77565b600581905550600042444333600554604051602001610acd95949392919061124b565b6040516020818303038152906040528051906020012060001c905060018484610af691906112aa565b610b009190610f77565b81610b0b919061130d565b84610b169190610f77565b91505092915050565b60405180606001604052806000815260200160008152602001600081525090565b600080fd5b6000819050919050565b610b5881610b45565b8114610b6357600080fd5b50565b600081359050610b7581610b4f565b92915050565b600060ff82169050919050565b610b9181610b7b565b8114610b9c57600080fd5b50565b600081359050610bae81610b88565b92915050565b60008060408385031215610bcb57610bca610b40565b5b6000610bd985828601610b66565b9250506020610bea85828601610b9f565b9150509250929050565b610bfd81610b45565b82525050565b6000602082019050610c186000830184610bf4565b92915050565b600073ffffffffffffffffffffffffffffffffffffffff82169050919050565b6000610c4982610c1e565b9050919050565b610c5981610c3e565b82525050565b6000602082019050610c746000830184610c50565b92915050565b60008115159050919050565b610c8f81610c7a565b82525050565b6000602082019050610caa6000830184610c86565b92915050565b600060208284031215610cc657610cc5610b40565b5b6000610cd484828501610b66565b91505092915050565b610ce681610c3e565b8114610cf157600080fd5b50565b600081359050610d0381610cdd565b92915050565b600060208284031215610d1f57610d1e610b40565b5b6000610d2d84828501610cf4565b91505092915050565b610d3f81610b7b565b82525050565b6000606082019050610d5a6000830186610c50565b610d676020830185610bf4565b610d746040830184610d36565b949350505050565b600082825260208201905092915050565b7f47616d652068617320656e646564000000000000000000000000000000000000600082015250565b6000610dc3600e83610d7c565b9150610dce82610d8d565b602082019050919050565b60006020820190508181036000830152610df281610db6565b9050919050565b7f4e487b7100000000000000000000000000000000000000000000000000000000600052603260045260246000fd5b7f4e487b7100000000000000000000000000000000000000000000000000000000600052601160045260246000fd5b6000610e6282610b45565b91507fffffffffffffffffffffffffffffffffffffffffffffffffffffffffffffffff8203610e9457610e93610e28565b5b600182019050919050565b7f4f776e61626c653a2063616c6c6572206973206e6f7420746865206f776e6572600082015250565b6000610ed5602083610d7c565b9150610ee082610e9f565b602082019050919050565b60006020820190508181036000830152610f0481610ec8565b9050919050565b7f47616d652068617320616c726561647920656e64656400000000000000000000600082015250565b6000610f41601683610d7c565b9150610f4c82610f0b565b602082019050919050565b60006020820190508181036000830152610f7081610f34565b9050919050565b6000610f8282610b45565b9150610f8d83610b45565b9250827fffffffffffffffffffffffffffffffffffffffffffffffffffffffffffffffff03821115610fc257610fc1610e28565b5b828201905092915050565b6000819050919050565b6000819050919050565b6000610ffc610ff7610ff284610fcd565b610fd7565b610b7b565b9050919050565b61100c81610fe1565b82525050565b61101b81610b45565b82525050565b6060820160008201516110376000850182611012565b50602082015161104a6020850182611012565b50604082015161105d6040850182611012565b50505050565b600060a0820190506110786000830186611003565b6110856020830185610c50565b6110926040830184611021565b949350505050565b6000819050919050565b60006110bf6110ba6110b58461109a565b610fd7565b610b7b565b9050919050565b6110cf816110a4565b82525050565b600060a0820190506110ea60008301866110c6565b6110f76020830185610c50565b6111046040830184611021565b949350505050565b600067ffffffffffffffff82169050919050565b600061112b8261110c565b915067ffffffffffffffff820361114557611144610e28565b5b600182019050919050565b7f4f776e61626c653a206e6577206f776e657220697320746865207a65726f206160008201527f6464726573730000000000000000000000000000000000000000000000000000602082015250565b60006111ac602683610d7c565b91506111b782611150565b604082019050919050565b600060208201905081810360008301526111db8161119f565b9050919050565b6000819050919050565b6111fd6111f882610b45565b6111e2565b82525050565b60008160601b9050919050565b600061121b82611203565b9050919050565b600061122d82611210565b9050919050565b61124561124082610c3e565b611222565b82525050565b600061125782886111ec565b60208201915061126782876111ec565b60208201915061127782866111ec565b6020820191506112878285611234565b60148201915061129782846111ec565b6020820191508190509695505050505050565b60006112b582610b45565b91506112c083610b45565b9250828210156112d3576112d2610e28565b5b828203905092915050565b7f4e487b7100000000000000000000000000000000000000000000000000000000600052601260045260246000fd5b600061131882610b45565b915061132383610b45565b925082611333576113326112de565b5b82820690509291505056fea26469706673582212208c5210253cb789550d60b5bed1f9fe3fca9dc7a690a6a40ebdbf91afc252f3f564736f6c634300080f0033",
  "immutableReferences": {},
  "source": "// SPDX-License-Identifier: MIT\r\npragma solidity >=0.4.22 <0.9.0;\r\nimport \"@openzeppelin/contracts/token/ERC20/ERC20.sol\";\r\nimport \"@openzeppelin/contracts/access/Ownable.sol\";\r\nimport \"@openzeppelin/contracts/utils/math/SafeMath.sol\";\r\n\r\ncontract RandomGame is Ownable {\r\n    using SafeMath for uint256;\r\n\r\n    //=================== Struct ===================\r\n    struct Player {\r\n        address player;\r\n        uint256 stake; // the number of money that player has staked\r\n        uint8 status; //0: tai, 1: xiu\r\n    }\r\n\r\n    struct Dice {\r\n        uint256 dice1;\r\n        uint256 dice2;\r\n        uint256 dice3;\r\n    }\r\n    //====================== Events ==========================\r\n    //Events mean that the contract will emit an event when something happens.\r\n    event GameEvent(\r\n        uint8 name, // 0: Start, 2: Finish , 3: Win, 4: Lose, 5: Draw\r\n        address player, // the player who trigger the event\r\n        Dice dice // the dice that owner roll\r\n    );\r\n    //====================== Game States ======================\r\n    Player[] public players;\r\n    uint256 public playerCount = 0;\r\n\r\n    bool public isEnded = false;\r\n    uint256 public endTime;\r\n    uint256 private randNonce = 0;\r\n    // ====================== Modifier =========================\r\n    // Modifiers and requires are conditions that must be met before a function is executed.\r\n    modifier canPlaceBet() {\r\n        require(block.timestamp <= endTime);\r\n        _;\r\n    }\r\n\r\n    modifier canStartGame() {\r\n        require(block.timestamp <= endTime);\r\n        _;\r\n    }\r\n\r\n    // ====================== Player Functions ==================\r\n    function placeBet(uint256 stake, uint8 status) public payable canPlaceBet {\r\n        // require time <= endTime\r\n        // require money ? later\r\n        require(!isEnded, \"Game has ended\");\r\n\r\n        // If player already place a bet, how can he place another bet?\r\n        Player memory player = Player(msg.sender, stake, status);\r\n        players[playerCount] = player;\r\n        playerCount++;\r\n        //Transefer money to owner of contract\r\n    }\r\n\r\n    // ====================== Owner Functions ==================\r\n    // Owner functions are functions that can only be called by the owner of the contract.\r\n    function startGame(uint256 sessionTime)\r\n        public\r\n        payable\r\n        onlyOwner\r\n        canStartGame\r\n    {\r\n        require(isEnded == true, \"Game has already ended\");\r\n        endTime = block.timestamp + sessionTime;\r\n        isEnded = false;\r\n    }\r\n\r\n    function finishGame() public onlyOwner {\r\n        require(isEnded == false, \"Game has already ended\");\r\n        isEnded = true;\r\n\r\n        Dice memory dice = randomDice();\r\n        uint256 totalDice = dice.dice1 + dice.dice2 + dice.dice3;\r\n        for (uint64 i = 0; i < playerCount; i++) {\r\n            Player memory player = players[i];\r\n            if (canWin(player.status, totalDice)) {\r\n                emit GameEvent(3, player.player, dice);\r\n            } else {\r\n                emit GameEvent(4, player.player, dice);\r\n            }\r\n        }\r\n    }\r\n\r\n    // ====================== Helper Functions ==================\r\n    // Helper functions are functions that are used by other functions.\r\n    function random(uint256 min, uint256 max) internal returns (uint256) {\r\n        // Transaction-Level PRNG\r\n        randNonce = randNonce + 1;\r\n        uint256 randNumber = uint256(\r\n            keccak256(\r\n                abi.encodePacked(\r\n                    block.timestamp,\r\n                    block.difficulty,\r\n                    block.number,\r\n                    msg.sender,\r\n                    randNonce\r\n                )\r\n            )\r\n        );\r\n        return min + (randNumber % (max - min + 1));\r\n    }\r\n\r\n    function randomDice() internal returns (Dice memory) {\r\n        Dice memory dice = Dice(random(1, 6), random(1, 6), random(1, 6));\r\n        return dice;\r\n    }\r\n\r\n    function canWin(uint8 status, uint256 totalDice)\r\n        internal\r\n        pure\r\n        returns (bool)\r\n    {\r\n        //status: 0  tai 11 - 17\r\n        //status : 1 xiu 4 - 10\r\n        if (status == 0) {\r\n            return totalDice >= 11 && totalDice <= 17;\r\n        } else {\r\n            return totalDice >= 4 && totalDice <= 10;\r\n        }\r\n    }\r\n}\r\n",
  "sourcePath": "C:\\Users\\ASUS\\Documents\\GitHub\\smartcontract-template\\contracts\\RandomGame.sol",
  "compiler": {
    "name": "solc",
    "version": "0.8.15+commit.e14f2714.Emscripten.clang"
  },
  "schemaVersion": "3.4.7",
  "updatedAt": "2022-06-27T12:00:38.478Z",
  "devdoc": {
    "kind": "dev",
    "methods": {
      "owner()": {
        "details": "Returns the address of the current owner."
      },
      "renounceOwnership()": {
        "details": "Leaves the contract without owner. It will not be possible to call `onlyOwner` functions anymore. Can only be called by the current owner. NOTE: Renouncing ownership will leave the contract without an owner, thereby removing any functionality that is only available to the owner."
      },
      "transferOwnership(address)": {
        "details": "Transfers ownership of the contract to a new account (`newOwner`). Can only be called by the current owner."
      }
    },
    "version": 1
  },
  "userdoc": {
    "kind": "user",
    "methods": {},
    "version": 1
  }
}