{
  "contractName": "RandomToken",
  "abi": [
    {
      "inputs": [],
      "payable": false,
      "stateMutability": "nonpayable",
      "type": "constructor"
    },
    {
      "constant": true,
      "inputs": [],
      "name": "name",
      "outputs": [
        {
          "internalType": "string",
          "name": "",
          "type": "string"
        }
      ],
      "payable": false,
      "stateMutability": "view",
      "type": "function"
    },
    {
      "constant": false,
      "inputs": [
        {
          "internalType": "uint256",
          "name": "min",
          "type": "uint256"
        },
        {
          "internalType": "uint256",
          "name": "max",
          "type": "uint256"
        }
      ],
      "name": "random",
      "outputs": [],
      "payable": false,
      "stateMutability": "nonpayable",
      "type": "function"
    },
    {
      "constant": true,
      "inputs": [],
      "name": "getRandomNumber",
      "outputs": [
        {
          "internalType": "uint256",
          "name": "",
          "type": "uint256"
        }
      ],
      "payable": false,
      "stateMutability": "view",
      "type": "function"
    },
    {
      "constant": false,
      "inputs": [],
      "name": "setNumber",
      "outputs": [],
      "payable": false,
      "stateMutability": "nonpayable",
      "type": "function"
    },
    {
      "constant": true,
      "inputs": [],
      "name": "getNumber",
      "outputs": [
        {
          "internalType": "uint256",
          "name": "",
          "type": "uint256"
        }
      ],
      "payable": false,
      "stateMutability": "view",
      "type": "function"
    }
  ],
  "bytecode": "0x60806040526040518060400160405280600c81526020017f52616e646f6d20546f6b656e00000000000000000000000000000000000000008152506000908051906020019061004f92919061006c565b506000600155600a60035534801561006657600080fd5b50610111565b828054600181600116156101000203166002900490600052602060002090601f016020900481019282601f106100ad57805160ff19168380011785556100db565b828001600101855582156100db579182015b828111156100da5782518255916020019190600101906100bf565b5b5090506100e891906100ec565b5090565b61010e91905b8082111561010a5760008160009055506001016100f2565b5090565b90565b6102fb806101206000396000f3fe608060405234801561001057600080fd5b50600436106100575760003560e01c806306fdde031461005c5780634154b243146100df578063a9dd1225146100e9578063dbdff2c114610121578063f2c9ecd81461013f575b600080fd5b61006461015d565b6040518080602001828103825283818151815260200191508051906020019080838360005b838110156100a4578082015181840152602081019050610089565b50505050905090810190601f1680156100d15780820380516001836020036101000a031916815260200191505b509250505060405180910390f35b6100e76101fb565b005b61011f600480360360408110156100ff57600080fd5b810190808035906020019092919080359060200190929190505050610209565b005b6101296102b2565b6040518082815260200191505060405180910390f35b6101476102bc565b6040518082815260200191505060405180910390f35b60008054600181600116156101000203166002900480601f0160208091040260200160405190810160405280929190818152602001828054600181600116156101000203166002900480156101f35780601f106101c8576101008083540402835291602001916101f3565b820191906000526020600020905b8154815290600101906020018083116101d657829003601f168201915b505050505081565b600260035402600381905550565b600180540160018190555042444333600154604051602001808681526020018581526020018481526020018373ffffffffffffffffffffffffffffffffffffffff1673ffffffffffffffffffffffffffffffffffffffff1660601b8152601401828152602001955050505050506040516020818303038152906040528051906020012060001c600281905550600182820301600254816102a557fe5b0682016002819055505050565b6000600254905090565b600060035490509056fea265627a7a7231582083d11e25f1797acf49081b720fa958512c616472afbac469e133df7c1792efc064736f6c63430005100032",
  "source": "// SPDX-License-Identifier: MIT\r\npragma solidity >=0.4.21 <0.6.0;\r\n\r\nimport \"./math/SafeMath.sol\";\r\nimport \"./ownership/Ownable.sol\";\r\n\r\ncontract RandomToken {\r\n    using SafeMath for uint256;\r\n    string public name = \"Random Token\";\r\n\r\n    uint256 private randNonce = 0;\r\n    uint256 randNumber;\r\n    uint256 number = 10;\r\n\r\n    constructor() public {}\r\n\r\n    function random(uint256 min, uint256 max) public {\r\n        // Transaction-Level PRNG\r\n        randNonce = randNonce + 1;\r\n        randNumber = uint256(\r\n            keccak256(\r\n                abi.encodePacked(\r\n                    block.timestamp,\r\n                    block.difficulty,\r\n                    block.number,\r\n                    msg.sender,\r\n                    randNonce\r\n                )\r\n            )\r\n        );\r\n        randNumber = min + (randNumber % (max - min + 1));\r\n    }\r\n\r\n    function getRandomNumber() public view returns (uint256) {\r\n        return randNumber;\r\n    }\r\n\r\n    function setNumber() public {\r\n        number = number * 2;\r\n    }\r\n\r\n    function getNumber() public view returns (uint256) {\r\n        return number;\r\n    }\r\n}\r\n",
  "sourcePath": "C:\\Users\\ASUS\\Documents\\GitHub\\smartcontract-template\\contracts\\RandomToken.sol",
  "compiler": {
    "name": "solc",
    "version": "0.5.16+commit.9c3226ce.Emscripten.clang"
  },
  "schemaVersion": "3.4.7",
  "updatedAt": "2022-06-26T13:32:17.095Z",
  "networkType": "ethereum",
  "devdoc": {
    "methods": {}
  },
  "userdoc": {
    "methods": {}
  }
}