{
  "contractName": "RandomGame",
  "abi": [
    {
      "inputs": [],
      "stateMutability": "nonpayable",
      "type": "constructor"
    },
    {
      "anonymous": false,
      "inputs": [
        {
          "indexed": false,
          "internalType": "uint256",
          "name": "gameId",
          "type": "uint256"
        },
        {
          "components": [
            {
              "internalType": "address",
              "name": "player",
              "type": "address"
            },
            {
              "internalType": "uint256",
              "name": "stake",
              "type": "uint256"
            },
            {
              "internalType": "uint8",
              "name": "status",
              "type": "uint8"
            }
          ],
          "indexed": false,
          "internalType": "struct RandomGame.Player",
          "name": "player",
          "type": "tuple"
        },
        {
          "indexed": false,
          "internalType": "uint8",
          "name": "isWiner",
          "type": "uint8"
        },
        {
          "components": [
            {
              "internalType": "uint256",
              "name": "dice1",
              "type": "uint256"
            },
            {
              "internalType": "uint256",
              "name": "dice2",
              "type": "uint256"
            },
            {
              "internalType": "uint256",
              "name": "dice3",
              "type": "uint256"
            }
          ],
          "indexed": false,
          "internalType": "struct RandomGame.Dice",
          "name": "result",
          "type": "tuple"
        }
      ],
      "name": "EndGameEvent",
      "type": "event"
    },
    {
      "anonymous": false,
      "inputs": [
        {
          "indexed": true,
          "internalType": "address",
          "name": "previousOwner",
          "type": "address"
        },
        {
          "indexed": true,
          "internalType": "address",
          "name": "newOwner",
          "type": "address"
        }
      ],
      "name": "OwnershipTransferred",
      "type": "event"
    },
    {
      "anonymous": false,
      "inputs": [
        {
          "indexed": false,
          "internalType": "uint256",
          "name": "gameId",
          "type": "uint256"
        },
        {
          "components": [
            {
              "internalType": "address",
              "name": "player",
              "type": "address"
            },
            {
              "internalType": "uint256",
              "name": "stake",
              "type": "uint256"
            },
            {
              "internalType": "uint8",
              "name": "status",
              "type": "uint8"
            }
          ],
          "indexed": false,
          "internalType": "struct RandomGame.Player",
          "name": "player",
          "type": "tuple"
        }
      ],
      "name": "PlaceBetEvent",
      "type": "event"
    },
    {
      "anonymous": false,
      "inputs": [
        {
          "indexed": false,
          "internalType": "uint256",
          "name": "gameId",
          "type": "uint256"
        },
        {
          "indexed": false,
          "internalType": "uint256",
          "name": "timeStart",
          "type": "uint256"
        },
        {
          "indexed": false,
          "internalType": "uint256",
          "name": "timeEnd",
          "type": "uint256"
        }
      ],
      "name": "StartGameEvent",
      "type": "event"
    },
    {
      "inputs": [],
      "name": "endTime",
      "outputs": [
        {
          "internalType": "uint256",
          "name": "",
          "type": "uint256"
        }
      ],
      "stateMutability": "view",
      "type": "function",
      "constant": true
    },
    {
      "inputs": [],
      "name": "gameId",
      "outputs": [
        {
          "internalType": "uint256",
          "name": "",
          "type": "uint256"
        }
      ],
      "stateMutability": "view",
      "type": "function",
      "constant": true
    },
    {
      "inputs": [],
      "name": "isEnded",
      "outputs": [
        {
          "internalType": "bool",
          "name": "",
          "type": "bool"
        }
      ],
      "stateMutability": "view",
      "type": "function",
      "constant": true
    },
    {
      "inputs": [],
      "name": "maxPlayerCount",
      "outputs": [
        {
          "internalType": "uint256",
          "name": "",
          "type": "uint256"
        }
      ],
      "stateMutability": "view",
      "type": "function",
      "constant": true
    },
    {
      "inputs": [],
      "name": "owner",
      "outputs": [
        {
          "internalType": "address",
          "name": "",
          "type": "address"
        }
      ],
      "stateMutability": "view",
      "type": "function",
      "constant": true
    },
    {
      "inputs": [],
      "name": "playerCount",
      "outputs": [
        {
          "internalType": "uint256",
          "name": "",
          "type": "uint256"
        }
      ],
      "stateMutability": "view",
      "type": "function",
      "constant": true
    },
    {
      "inputs": [
        {
          "internalType": "uint256",
          "name": "",
          "type": "uint256"
        }
      ],
      "name": "players",
      "outputs": [
        {
          "internalType": "address",
          "name": "player",
          "type": "address"
        },
        {
          "internalType": "uint256",
          "name": "stake",
          "type": "uint256"
        },
        {
          "internalType": "uint8",
          "name": "status",
          "type": "uint8"
        }
      ],
      "stateMutability": "view",
      "type": "function",
      "constant": true
    },
    {
      "inputs": [],
      "name": "renounceOwnership",
      "outputs": [],
      "stateMutability": "nonpayable",
      "type": "function"
    },
    {
      "inputs": [
        {
          "internalType": "address",
          "name": "newOwner",
          "type": "address"
        }
      ],
      "name": "transferOwnership",
      "outputs": [],
      "stateMutability": "nonpayable",
      "type": "function"
    },
    {
      "inputs": [
        {
          "internalType": "uint256",
          "name": "stake",
          "type": "uint256"
        },
        {
          "internalType": "uint8",
          "name": "status",
          "type": "uint8"
        }
      ],
      "name": "placeBet",
      "outputs": [],
      "stateMutability": "payable",
      "type": "function",
      "payable": true
    },
    {
      "inputs": [
        {
          "internalType": "uint256",
          "name": "sessionTime",
          "type": "uint256"
        },
        {
          "internalType": "uint256",
          "name": "_random",
          "type": "uint256"
        }
      ],
      "name": "startGame",
      "outputs": [],
      "stateMutability": "nonpayable",
      "type": "function"
    },
    {
      "inputs": [],
      "name": "finishGame",
      "outputs": [],
      "stateMutability": "nonpayable",
      "type": "function"
    },
    {
      "inputs": [],
      "name": "getAllPlayers",
      "outputs": [
        {
          "components": [
            {
              "internalType": "address",
              "name": "player",
              "type": "address"
            },
            {
              "internalType": "uint256",
              "name": "stake",
              "type": "uint256"
            },
            {
              "internalType": "uint8",
              "name": "status",
              "type": "uint8"
            }
          ],
          "internalType": "struct RandomGame.Player[]",
          "name": "",
          "type": "tuple[]"
        }
      ],
      "stateMutability": "view",
      "type": "function",
      "constant": true
    }
  ],
  "bytecode": "0x6080604052600060015560646002556001600460006101000a81548160ff0219169083151502179055506000600555600060065560006007553480156200004557600080fd5b50620000666200005a6200008160201b60201c565b6200008960201b60201c565b600a4262000075919062000186565b600581905550620001c1565b600033905090565b60008060009054906101000a900473ffffffffffffffffffffffffffffffffffffffff169050816000806101000a81548173ffffffffffffffffffffffffffffffffffffffff021916908373ffffffffffffffffffffffffffffffffffffffff1602179055508173ffffffffffffffffffffffffffffffffffffffff168173ffffffffffffffffffffffffffffffffffffffff167f8be0079c531659141344cd1fd0a4f28419497f9722a3daafe3b4186f6b6457e060405160405180910390a35050565b6000819050919050565b7f4e487b7100000000000000000000000000000000000000000000000000000000600052601160045260246000fd5b600062000193826200014d565b9150620001a0836200014d565b925082821015620001b657620001b562000157565b5b828203905092915050565b61179d80620001d16000396000f3fe6080604052600436106100c25760003560e01c80639fecb69f1161007f578063de27a82011610059578063de27a82014610211578063efa1c4821461023c578063f2fde38b14610267578063f71d96cb14610290576100c2565b80639fecb69f146101a4578063a4fd6f56146101bb578063d7c81b55146101e6576100c2565b806303edf914146100c7578063302bcc57146100e35780633197cbb61461010e578063715018a614610139578063730b8381146101505780638da5cb5b14610179575b600080fd5b6100e160048036038101906100dc9190610e18565b6102cf565b005b3480156100ef57600080fd5b506100f861049a565b6040516101059190610e67565b60405180910390f35b34801561011a57600080fd5b506101236104a0565b6040516101309190610e67565b60405180910390f35b34801561014557600080fd5b5061014e6104a6565b005b34801561015c57600080fd5b5061017760048036038101906101729190610e82565b61052e565b005b34801561018557600080fd5b5061018e61064f565b60405161019b9190610f03565b60405180910390f35b3480156101b057600080fd5b506101b9610678565b005b3480156101c757600080fd5b506101d06108ca565b6040516101dd9190610f39565b60405180910390f35b3480156101f257600080fd5b506101fb6108dd565b6040516102089190610e67565b60405180910390f35b34801561021d57600080fd5b506102266108e3565b6040516102339190610e67565b60405180910390f35b34801561024857600080fd5b506102516108e9565b60405161025e9190611072565b60405180910390f35b34801561027357600080fd5b5061028e600480360381019061028991906110c0565b6109c5565b005b34801561029c57600080fd5b506102b760048036038101906102b291906110ed565b610abc565b6040516102c693929190611129565b60405180910390f35b600554421115610314576040517f08c379a000000000000000000000000000000000000000000000000000000000815260040161030b906111bd565b60405180910390fd5b60001515600460009054906101000a900460ff1615151461036a576040517f08c379a0000000000000000000000000000000000000000000000000000000008152600401610361906111bd565b60405180910390fd5b600060405180606001604052803373ffffffffffffffffffffffffffffffffffffffff1681526020018481526020018360ff168152509050600381908060018154018082558091505060019003906000526020600020906003020160009091909190915060008201518160000160006101000a81548173ffffffffffffffffffffffffffffffffffffffff021916908373ffffffffffffffffffffffffffffffffffffffff1602179055506020820151816001015560408201518160020160006101000a81548160ff021916908360ff1602179055505050600160008154809291906104559061120c565b91905055507f017961666680692e7926b4d5bbf355555b9fdd3e722ae17a6d74a85fdfd2d2396007548260405161048d929190611296565b60405180910390a1505050565b60015481565b60055481565b6104ae610b23565b73ffffffffffffffffffffffffffffffffffffffff166104cc61064f565b73ffffffffffffffffffffffffffffffffffffffff1614610522576040517f08c379a00000000000000000000000000000000000000000000000000000000081526004016105199061130b565b60405180910390fd5b61052c6000610b2b565b565b610536610b23565b73ffffffffffffffffffffffffffffffffffffffff1661055461064f565b73ffffffffffffffffffffffffffffffffffffffff16146105aa576040517f08c379a00000000000000000000000000000000000000000000000000000000081526004016105a19061130b565b60405180910390fd5b81426105b6919061132b565b6005819055506000600460006101000a81548160ff021916908315150217905550600060018190555080600681905550600760008154809291906105f99061120c565b91905055506003600061060c9190610d05565b7f979fc205f0066238ab06805f2083d2f62c7aca84e1d2039eb1dfa89ba16bda366007544260055460405161064393929190611381565b60405180910390a15050565b60008060009054906101000a900473ffffffffffffffffffffffffffffffffffffffff16905090565b610680610b23565b73ffffffffffffffffffffffffffffffffffffffff1661069e61064f565b73ffffffffffffffffffffffffffffffffffffffff16146106f4576040517f08c379a00000000000000000000000000000000000000000000000000000000081526004016106eb9061130b565b60405180910390fd5b6001600460006101000a81548160ff021916908315150217905550426005819055506000610720610bef565b9050600081604001518260200151836000015161073d919061132b565b610747919061132b565b905060005b6001548167ffffffffffffffff1610156108c557600060038267ffffffffffffffff16815481106107805761077f6113b8565b5b90600052602060002090600302016040518060600160405290816000820160009054906101000a900473ffffffffffffffffffffffffffffffffffffffff1673ffffffffffffffffffffffffffffffffffffffff1673ffffffffffffffffffffffffffffffffffffffff168152602001600182015481526020016002820160009054906101000a900460ff1660ff1660ff16815250509050610826816040015184610c3e565b15610870577f5e3f2d8a0ef671744fcab906c7bdff6f8da93d91eef3b8a742cf957882753d2660075482600187604051610863949392919061146e565b60405180910390a16108b1565b7f5e3f2d8a0ef671744fcab906c7bdff6f8da93d91eef3b8a742cf957882753d26600754826000876040516108a894939291906114ef565b60405180910390a15b5080806108bd90611549565b91505061074c565b505050565b600460009054906101000a900460ff1681565b60075481565b60025481565b60606003805480602002602001604051908101604052809291908181526020016000905b828210156109bc57838290600052602060002090600302016040518060600160405290816000820160009054906101000a900473ffffffffffffffffffffffffffffffffffffffff1673ffffffffffffffffffffffffffffffffffffffff1673ffffffffffffffffffffffffffffffffffffffff168152602001600182015481526020016002820160009054906101000a900460ff1660ff1660ff16815250508152602001906001019061090d565b50505050905090565b6109cd610b23565b73ffffffffffffffffffffffffffffffffffffffff166109eb61064f565b73ffffffffffffffffffffffffffffffffffffffff1614610a41576040517f08c379a0000000000000000000000000000000000000000000000000000000008152600401610a389061130b565b60405180910390fd5b600073ffffffffffffffffffffffffffffffffffffffff168173ffffffffffffffffffffffffffffffffffffffff1603610ab0576040517f08c379a0000000000000000000000000000000000000000000000000000000008152600401610aa7906115eb565b60405180910390fd5b610ab981610b2b565b50565b60038181548110610acc57600080fd5b90600052602060002090600302016000915090508060000160009054906101000a900473ffffffffffffffffffffffffffffffffffffffff16908060010154908060020160009054906101000a900460ff16905083565b600033905090565b60008060009054906101000a900473ffffffffffffffffffffffffffffffffffffffff169050816000806101000a81548173ffffffffffffffffffffffffffffffffffffffff021916908373ffffffffffffffffffffffffffffffffffffffff1602179055508173ffffffffffffffffffffffffffffffffffffffff168173ffffffffffffffffffffffffffffffffffffffff167f8be0079c531659141344cd1fd0a4f28419497f9722a3daafe3b4186f6b6457e060405160405180910390a35050565b610bf7610d29565b60006040518060600160405280610c1060016006610c7f565b8152602001610c2160016006610c7f565b8152602001610c3260016006610c7f565b81525090508091505090565b600060018360ff1603610c6457600b8210158015610c5d575060118211155b9050610c79565b60048210158015610c765750600a8211155b90505b92915050565b60006001600654610c90919061132b565b600681905550600042444333600654604051602001610cb3959493929190611674565b6040516020818303038152906040528051906020012060001c905060018484610cdc91906116d3565b610ce6919061132b565b81610cf19190611736565b84610cfc919061132b565b91505092915050565b5080546000825560030290600052602060002090810190610d269190610d4a565b50565b60405180606001604052806000815260200160008152602001600081525090565b5b80821115610da057600080820160006101000a81549073ffffffffffffffffffffffffffffffffffffffff021916905560018201600090556002820160006101000a81549060ff021916905550600301610d4b565b5090565b600080fd5b6000819050919050565b610dbc81610da9565b8114610dc757600080fd5b50565b600081359050610dd981610db3565b92915050565b600060ff82169050919050565b610df581610ddf565b8114610e0057600080fd5b50565b600081359050610e1281610dec565b92915050565b60008060408385031215610e2f57610e2e610da4565b5b6000610e3d85828601610dca565b9250506020610e4e85828601610e03565b9150509250929050565b610e6181610da9565b82525050565b6000602082019050610e7c6000830184610e58565b92915050565b60008060408385031215610e9957610e98610da4565b5b6000610ea785828601610dca565b9250506020610eb885828601610dca565b9150509250929050565b600073ffffffffffffffffffffffffffffffffffffffff82169050919050565b6000610eed82610ec2565b9050919050565b610efd81610ee2565b82525050565b6000602082019050610f186000830184610ef4565b92915050565b60008115159050919050565b610f3381610f1e565b82525050565b6000602082019050610f4e6000830184610f2a565b92915050565b600081519050919050565b600082825260208201905092915050565b6000819050602082019050919050565b610f8981610ee2565b82525050565b610f9881610da9565b82525050565b610fa781610ddf565b82525050565b606082016000820151610fc36000850182610f80565b506020820151610fd66020850182610f8f565b506040820151610fe96040850182610f9e565b50505050565b6000610ffb8383610fad565b60608301905092915050565b6000602082019050919050565b600061101f82610f54565b6110298185610f5f565b935061103483610f70565b8060005b8381101561106557815161104c8882610fef565b975061105783611007565b925050600181019050611038565b5085935050505092915050565b6000602082019050818103600083015261108c8184611014565b905092915050565b61109d81610ee2565b81146110a857600080fd5b50565b6000813590506110ba81611094565b92915050565b6000602082840312156110d6576110d5610da4565b5b60006110e4848285016110ab565b91505092915050565b60006020828403121561110357611102610da4565b5b600061111184828501610dca565b91505092915050565b61112381610ddf565b82525050565b600060608201905061113e6000830186610ef4565b61114b6020830185610e58565b611158604083018461111a565b949350505050565b600082825260208201905092915050565b7f5468652067616d652068617320656e6465640000000000000000000000000000600082015250565b60006111a7601283611160565b91506111b282611171565b602082019050919050565b600060208201905081810360008301526111d68161119a565b9050919050565b7f4e487b7100000000000000000000000000000000000000000000000000000000600052601160045260246000fd5b600061121782610da9565b91507fffffffffffffffffffffffffffffffffffffffffffffffffffffffffffffffff8203611249576112486111dd565b5b600182019050919050565b60608201600082015161126a6000850182610f80565b50602082015161127d6020850182610f8f565b5060408201516112906040850182610f9e565b50505050565b60006080820190506112ab6000830185610e58565b6112b86020830184611254565b9392505050565b7f4f776e61626c653a2063616c6c6572206973206e6f7420746865206f776e6572600082015250565b60006112f5602083611160565b9150611300826112bf565b602082019050919050565b60006020820190508181036000830152611324816112e8565b9050919050565b600061133682610da9565b915061134183610da9565b9250827fffffffffffffffffffffffffffffffffffffffffffffffffffffffffffffffff03821115611376576113756111dd565b5b828201905092915050565b60006060820190506113966000830186610e58565b6113a36020830185610e58565b6113b06040830184610e58565b949350505050565b7f4e487b7100000000000000000000000000000000000000000000000000000000600052603260045260246000fd5b6000819050919050565b6000819050919050565b600061141661141161140c846113e7565b6113f1565b610ddf565b9050919050565b611426816113fb565b82525050565b6060820160008201516114426000850182610f8f565b5060208201516114556020850182610f8f565b5060408201516114686040850182610f8f565b50505050565b6000610100820190506114846000830187610e58565b6114916020830186611254565b61149e608083018561141d565b6114ab60a083018461142c565b95945050505050565b6000819050919050565b60006114d96114d46114cf846114b4565b6113f1565b610ddf565b9050919050565b6114e9816114be565b82525050565b6000610100820190506115056000830187610e58565b6115126020830186611254565b61151f60808301856114e0565b61152c60a083018461142c565b95945050505050565b600067ffffffffffffffff82169050919050565b600061155482611535565b915067ffffffffffffffff820361156e5761156d6111dd565b5b600182019050919050565b7f4f776e61626c653a206e6577206f776e657220697320746865207a65726f206160008201527f6464726573730000000000000000000000000000000000000000000000000000602082015250565b60006115d5602683611160565b91506115e082611579565b604082019050919050565b60006020820190508181036000830152611604816115c8565b9050919050565b6000819050919050565b61162661162182610da9565b61160b565b82525050565b60008160601b9050919050565b60006116448261162c565b9050919050565b600061165682611639565b9050919050565b61166e61166982610ee2565b61164b565b82525050565b60006116808288611615565b6020820191506116908287611615565b6020820191506116a08286611615565b6020820191506116b0828561165d565b6014820191506116c08284611615565b6020820191508190509695505050505050565b60006116de82610da9565b91506116e983610da9565b9250828210156116fc576116fb6111dd565b5b828203905092915050565b7f4e487b7100000000000000000000000000000000000000000000000000000000600052601260045260246000fd5b600061174182610da9565b915061174c83610da9565b92508261175c5761175b611707565b5b82820690509291505056fea264697066735822122034df4c40907b0be9feb8376ac7b7c4fb54b7fbe8d22e5d2e3890bfa46dfbc64064736f6c634300080f0033",
  "immutableReferences": {},
  "source": "// SPDX-License-Identifier: MIT\r\npragma solidity >=0.4.22 <0.9.0;\r\nimport \"@openzeppelin/contracts/token/ERC20/ERC20.sol\";\r\nimport \"@openzeppelin/contracts/access/Ownable.sol\";\r\nimport \"@openzeppelin/contracts/utils/math/SafeMath.sol\";\r\n\r\ncontract RandomGame is Ownable {\r\n    using SafeMath for uint256;\r\n\r\n    //=================== Structs ===================\r\n    struct Player {\r\n        address player;\r\n        uint256 stake; // the number of money that player has staked\r\n        uint8 status; // 0: tai, 1: xiu\r\n    }\r\n\r\n    struct Dice {\r\n        uint256 dice1;\r\n        uint256 dice2;\r\n        uint256 dice3;\r\n    }\r\n    //====================== Events ==========================\r\n    //Events mean that the contract will emit an event when something happens.\r\n    event StartGameEvent(uint256 gameId, uint256 timeStart, uint256 timeEnd);\r\n    event EndGameEvent(\r\n        uint256 gameId,\r\n        Player player,\r\n        uint8 isWiner, //1 is winer, 0 is loser\r\n        Dice result\r\n    );\r\n    event PlaceBetEvent(uint256 gameId, Player player);\r\n    //====================== Game States ======================\r\n\r\n    uint256 public playerCount = 0;\r\n    uint256 public maxPlayerCount = 100;\r\n    Player[] public players;\r\n\r\n    bool public isEnded = true;\r\n    uint256 public endTime = 0;\r\n    uint256 private randNonce = 0;\r\n    uint256 public gameId = 0;\r\n\r\n    constructor() {\r\n        endTime = block.timestamp - 10;\r\n    }\r\n\r\n    // ====================== Modifier =========================\r\n    // Modifiers and requires are conditions that must be met before a function is executed.\r\n    modifier canPlaceBet() {\r\n        require(block.timestamp <= endTime, \"The game has ended\");\r\n        require(isEnded == false, \"The game has ended\");\r\n        _;\r\n    }\r\n\r\n    modifier canStartGame() {\r\n        require(block.timestamp >= endTime, \"The game has not ended\");\r\n        require(isEnded == true, \"Game   has not already ended\");\r\n        _;\r\n    }\r\n\r\n    modifier canFinishGame() {\r\n        require(block.timestamp >= endTime, \"The game has not ended\");\r\n        require(isEnded == false, \"Game has already ended\");\r\n        _;\r\n    }\r\n\r\n    // ====================== Player Functions ==================\r\n    function placeBet(uint256 stake, uint8 status) public payable canPlaceBet {\r\n        // require time <= endTime\r\n        // require money ? later\r\n\r\n        // If player already place a bet, how can he place another bet?\r\n        Player memory player = Player(msg.sender, stake, status);\r\n        // players[playerCount] = player;\r\n        players.push(player);\r\n        playerCount++;\r\n        //Transefer money to owner of contract\r\n        emit PlaceBetEvent(gameId, player);\r\n    }\r\n\r\n    // ====================== Owner Functions ==================\r\n    // Owner functions are functions that can only be called by the owner of the contract.\r\n\r\n    /*\r\n    @param sessionTime: the time that the game will last (in seconds)\r\n    */\r\n    function startGame(uint256 sessionTime, uint256 _random) public onlyOwner {\r\n        //Block timestamp is the number of seconds since the block was created.\r\n        endTime = block.timestamp + sessionTime;\r\n        isEnded = false;\r\n\r\n        // reset game state\r\n        playerCount = 0;\r\n        randNonce = _random;\r\n        gameId++;\r\n        delete players;\r\n        emit StartGameEvent(gameId, block.timestamp, endTime);\r\n    }\r\n\r\n    function finishGame() public onlyOwner {\r\n        isEnded = true;\r\n        endTime = block.timestamp;\r\n\r\n        Dice memory dice = randomDice();\r\n        uint256 totalDice = dice.dice1 + dice.dice2 + dice.dice3;\r\n        for (uint64 i = 0; i < playerCount; i++) {\r\n            Player memory player = players[i];\r\n            if (canWin(player.status, totalDice)) {\r\n                emit EndGameEvent(gameId, player, 1, dice);\r\n            } else {\r\n                emit EndGameEvent(gameId, player, 0, dice);\r\n            }\r\n        }\r\n    }\r\n\r\n    // ====================== Helper Functions ==================\r\n    // Helper functions are functions that are used by other functions.\r\n    function random(uint256 min, uint256 max) internal returns (uint256) {\r\n        // Transaction-Level PRNG\r\n        randNonce = randNonce + 1;\r\n        uint256 randNumber = uint256(\r\n            keccak256(\r\n                abi.encodePacked(\r\n                    block.timestamp,\r\n                    block.difficulty,\r\n                    block.number,\r\n                    msg.sender,\r\n                    randNonce\r\n                )\r\n            )\r\n        );\r\n        return min + (randNumber % (max - min + 1));\r\n    }\r\n\r\n    function randomDice() internal returns (Dice memory) {\r\n        Dice memory dice = Dice(random(1, 6), random(1, 6), random(1, 6));\r\n        return dice;\r\n    }\r\n\r\n    function canWin(uint8 status, uint256 totalDice)\r\n        internal\r\n        pure\r\n        returns (bool)\r\n    {\r\n        //status : 1 tai 11 - 17\r\n        //status : 0 xiu 4 - 10\r\n        if (status == 1) {\r\n            return totalDice >= 11 && totalDice <= 17;\r\n        } else {\r\n            return totalDice >= 4 && totalDice <= 10;\r\n        }\r\n    }\r\n\r\n    // ======= Testing functions helpers ============\r\n    // Testing functions are functions that are used to test the contract.\r\n    function getAllPlayers() public view returns (Player[] memory) {\r\n        return players;\r\n    }\r\n}\r\n",
  "sourcePath": "E:\\BaoTien\\Desktop\\smartcontract\\smartcontract-template\\contracts\\RandomGame.sol",
  "compiler": {
    "name": "solc",
    "version": "0.8.15+commit.e14f2714.Emscripten.clang"
  },
  "schemaVersion": "3.4.4",
  "updatedAt": "2022-06-28T16:01:39.047Z",
  "networkType": "ethereum",
  "devdoc": {
    "kind": "dev",
    "methods": {
      "owner()": {
        "details": "Returns the address of the current owner."
      },
      "renounceOwnership()": {
        "details": "Leaves the contract without owner. It will not be possible to call `onlyOwner` functions anymore. Can only be called by the current owner. NOTE: Renouncing ownership will leave the contract without an owner, thereby removing any functionality that is only available to the owner."
      },
      "transferOwnership(address)": {
        "details": "Transfers ownership of the contract to a new account (`newOwner`). Can only be called by the current owner."
      }
    },
    "version": 1
  },
  "userdoc": {
    "kind": "user",
    "methods": {},
    "version": 1
  }
}