{
  "contractName": "RandomGame",
  "abi": [
    {
      "anonymous": false,
      "inputs": [
        {
          "indexed": false,
          "internalType": "uint256",
          "name": "gameId",
          "type": "uint256"
        },
        {
          "components": [
            {
              "internalType": "address payable",
              "name": "addr",
              "type": "address"
            },
            {
              "internalType": "uint256",
              "name": "stake",
              "type": "uint256"
            },
            {
              "internalType": "uint8",
              "name": "status",
              "type": "uint8"
            },
            {
              "internalType": "uint8",
              "name": "isWinner",
              "type": "uint8"
            }
          ],
          "indexed": false,
          "internalType": "struct RandomGame.Player[]",
          "name": "players",
          "type": "tuple[]"
        },
        {
          "components": [
            {
              "internalType": "uint256",
              "name": "dice1",
              "type": "uint256"
            },
            {
              "internalType": "uint256",
              "name": "dice2",
              "type": "uint256"
            },
            {
              "internalType": "uint256",
              "name": "dice3",
              "type": "uint256"
            }
          ],
          "indexed": false,
          "internalType": "struct RandomGame.Dice",
          "name": "result",
          "type": "tuple"
        }
      ],
      "name": "EndGameEvent",
      "type": "event"
    },
    {
      "anonymous": false,
      "inputs": [
        {
          "indexed": true,
          "internalType": "address",
          "name": "previousOwner",
          "type": "address"
        }
      ],
      "name": "OwnershipRenounced",
      "type": "event"
    },
    {
      "anonymous": false,
      "inputs": [
        {
          "indexed": true,
          "internalType": "address",
          "name": "previousOwner",
          "type": "address"
        },
        {
          "indexed": true,
          "internalType": "address",
          "name": "newOwner",
          "type": "address"
        }
      ],
      "name": "OwnershipTransferred",
      "type": "event"
    },
    {
      "anonymous": false,
      "inputs": [
        {
          "indexed": false,
          "internalType": "uint256",
          "name": "gameId",
          "type": "uint256"
        },
        {
          "components": [
            {
              "internalType": "address payable",
              "name": "addr",
              "type": "address"
            },
            {
              "internalType": "uint256",
              "name": "stake",
              "type": "uint256"
            },
            {
              "internalType": "uint8",
              "name": "status",
              "type": "uint8"
            },
            {
              "internalType": "uint8",
              "name": "isWinner",
              "type": "uint8"
            }
          ],
          "indexed": false,
          "internalType": "struct RandomGame.Player",
          "name": "player",
          "type": "tuple"
        },
        {
          "indexed": false,
          "internalType": "uint256",
          "name": "totalPlayer",
          "type": "uint256"
        }
      ],
      "name": "PlaceBetEvent",
      "type": "event"
    },
    {
      "anonymous": false,
      "inputs": [
        {
          "indexed": false,
          "internalType": "address",
          "name": "",
          "type": "address"
        },
        {
          "indexed": false,
          "internalType": "uint256",
          "name": "",
          "type": "uint256"
        }
      ],
      "name": "Received",
      "type": "event"
    },
    {
      "anonymous": false,
      "inputs": [
        {
          "indexed": false,
          "internalType": "uint256",
          "name": "gameId",
          "type": "uint256"
        },
        {
          "indexed": false,
          "internalType": "uint256",
          "name": "timeStart",
          "type": "uint256"
        },
        {
          "indexed": false,
          "internalType": "uint256",
          "name": "timeEnd",
          "type": "uint256"
        }
      ],
      "name": "StartGameEvent",
      "type": "event"
    },
    {
      "inputs": [],
      "name": "endTime",
      "outputs": [
        {
          "internalType": "uint256",
          "name": "",
          "type": "uint256"
        }
      ],
      "stateMutability": "view",
      "type": "function",
      "constant": true
    },
    {
      "inputs": [],
      "name": "gameId",
      "outputs": [
        {
          "internalType": "uint256",
          "name": "",
          "type": "uint256"
        }
      ],
      "stateMutability": "view",
      "type": "function",
      "constant": true
    },
    {
      "inputs": [],
      "name": "isEnded",
      "outputs": [
        {
          "internalType": "bool",
          "name": "",
          "type": "bool"
        }
      ],
      "stateMutability": "view",
      "type": "function",
      "constant": true
    },
    {
      "inputs": [],
      "name": "maxPlayerCount",
      "outputs": [
        {
          "internalType": "uint256",
          "name": "",
          "type": "uint256"
        }
      ],
      "stateMutability": "view",
      "type": "function",
      "constant": true
    },
    {
      "inputs": [],
      "name": "maxPlayerStake",
      "outputs": [
        {
          "internalType": "uint256",
          "name": "",
          "type": "uint256"
        }
      ],
      "stateMutability": "view",
      "type": "function",
      "constant": true
    },
    {
      "inputs": [],
      "name": "minPlayerStake",
      "outputs": [
        {
          "internalType": "uint256",
          "name": "",
          "type": "uint256"
        }
      ],
      "stateMutability": "view",
      "type": "function",
      "constant": true
    },
    {
      "inputs": [],
      "name": "owner",
      "outputs": [
        {
          "internalType": "address",
          "name": "",
          "type": "address"
        }
      ],
      "stateMutability": "view",
      "type": "function",
      "constant": true
    },
    {
      "inputs": [],
      "name": "playerCount",
      "outputs": [
        {
          "internalType": "uint256",
          "name": "",
          "type": "uint256"
        }
      ],
      "stateMutability": "view",
      "type": "function",
      "constant": true
    },
    {
      "inputs": [
        {
          "internalType": "uint256",
          "name": "",
          "type": "uint256"
        }
      ],
      "name": "players",
      "outputs": [
        {
          "internalType": "address payable",
          "name": "addr",
          "type": "address"
        },
        {
          "internalType": "uint256",
          "name": "stake",
          "type": "uint256"
        },
        {
          "internalType": "uint8",
          "name": "status",
          "type": "uint8"
        },
        {
          "internalType": "uint8",
          "name": "isWinner",
          "type": "uint8"
        }
      ],
      "stateMutability": "view",
      "type": "function",
      "constant": true
    },
    {
      "inputs": [],
      "name": "renounceOwnership",
      "outputs": [],
      "stateMutability": "nonpayable",
      "type": "function"
    },
    {
      "inputs": [
        {
          "internalType": "address",
          "name": "_newOwner",
          "type": "address"
        }
      ],
      "name": "transferOwnership",
      "outputs": [],
      "stateMutability": "nonpayable",
      "type": "function"
    },
    {
      "inputs": [
        {
          "internalType": "uint256",
          "name": "stake",
          "type": "uint256"
        },
        {
          "internalType": "uint8",
          "name": "status",
          "type": "uint8"
        }
      ],
      "name": "placeBet",
      "outputs": [],
      "stateMutability": "payable",
      "type": "function",
      "payable": true
    },
    {
      "inputs": [
        {
          "internalType": "uint256",
          "name": "sessionTime",
          "type": "uint256"
        },
        {
          "internalType": "uint256",
          "name": "_random",
          "type": "uint256"
        }
      ],
      "name": "startGame",
      "outputs": [],
      "stateMutability": "payable",
      "type": "function",
      "payable": true
    },
    {
      "inputs": [],
      "name": "finishGame",
      "outputs": [],
      "stateMutability": "nonpayable",
      "type": "function"
    },
    {
      "inputs": [],
      "name": "withDrawAllMoney",
      "outputs": [],
      "stateMutability": "nonpayable",
      "type": "function"
    },
    {
      "inputs": [],
      "name": "getBalance",
      "outputs": [
        {
          "internalType": "uint256",
          "name": "",
          "type": "uint256"
        }
      ],
      "stateMutability": "view",
      "type": "function",
      "constant": true
    }
  ],
  "bytecode": "0x60806040526000600155670de0b6b3a764000060025567016345785d8a00006003556001600560006101000a81548160ff02191690831515021790555060006006556000600755600060085534801561005757600080fd5b50336000806101000a81548173ffffffffffffffffffffffffffffffffffffffff021916908373ffffffffffffffffffffffffffffffffffffffff160217905550611e1d806100a76000396000f3fe6080604052600436106100f35760003560e01c80638da5cb5b1161008a578063de27a82011610059578063de27a820146102a2578063e4577cc5146102cd578063f2fde38b146102f8578063f71d96cb14610321576100f3565b80638da5cb5b1461020a5780639fecb69f14610235578063a4fd6f561461024c578063d7c81b5514610277576100f3565b8063302bcc57116100c6578063302bcc57146101815780633197cbb6146101ac578063715018a6146101d7578063730b8381146101ee576100f3565b806303edf914146100f85780630e6f30b9146101145780630e8d06251461012b57806312065fe014610156575b600080fd5b610112600480360381019061010d9190611451565b610361565b005b34801561012057600080fd5b506101296107d3565b005b34801561013757600080fd5b506101406108a0565b60405161014d9190611be4565b60405180910390f35b34801561016257600080fd5b5061016b6108a6565b6040516101789190611be4565b60405180910390f35b34801561018d57600080fd5b506101966108c5565b6040516101a39190611be4565b60405180910390f35b3480156101b857600080fd5b506101c16108cb565b6040516101ce9190611be4565b60405180910390f35b3480156101e357600080fd5b506101ec6108d1565b005b61020860048036038101906102039190611415565b6109d1565b005b34801561021657600080fd5b5061021f610bb0565b60405161022c9190611a09565b60405180910390f35b34801561024157600080fd5b5061024a610bd5565b005b34801561025857600080fd5b50610261610f96565b60405161026e9190611a69565b60405180910390f35b34801561028357600080fd5b5061028c610fa9565b6040516102999190611be4565b60405180910390f35b3480156102ae57600080fd5b506102b7610faf565b6040516102c49190611be4565b60405180910390f35b3480156102d957600080fd5b506102e2610fb4565b6040516102ef9190611be4565b60405180910390f35b34801561030457600080fd5b5061031f600480360381019061031a91906113c3565b610fba565b005b34801561032d57600080fd5b50610348600480360381019061034391906113ec565b61101f565b6040516103589493929190611a24565b60405180910390f35b6006544211156103a6576040517f08c379a000000000000000000000000000000000000000000000000000000000815260040161039d90611b24565b60405180910390fd5b60001515600560009054906101000a900460ff161515146103fc576040517f08c379a00000000000000000000000000000000000000000000000000000000081526004016103f390611b24565b60405180910390fd5b600354341015610441576040517f08c379a000000000000000000000000000000000000000000000000000000000815260040161043890611bc4565b60405180910390fd5b600254341115610486576040517f08c379a000000000000000000000000000000000000000000000000000000000815260040161047d90611b04565b60405180910390fd5b600a600154106104cb576040517f08c379a00000000000000000000000000000000000000000000000000000000081526004016104c290611a84565b60405180910390fd5b60008090505b600154811015610595573373ffffffffffffffffffffffffffffffffffffffff16600482815481106104ff57fe5b906000526020600020906003020160000160009054906101000a900473ffffffffffffffffffffffffffffffffffffffff1673ffffffffffffffffffffffffffffffffffffffff161415610588576040517f08c379a000000000000000000000000000000000000000000000000000000000815260040161057f90611ba4565b60405180910390fd5b80806001019150506104d1565b506003548210156105db576040517f08c379a00000000000000000000000000000000000000000000000000000000081526004016105d290611bc4565b60405180910390fd5b600254821115610620576040517f08c379a000000000000000000000000000000000000000000000000000000000815260040161061790611b04565b60405180910390fd5b60008160ff161480610635575060018160ff16145b610674576040517f08c379a000000000000000000000000000000000000000000000000000000000815260040161066b90611b84565b60405180910390fd5b61067c611285565b60405180608001604052803373ffffffffffffffffffffffffffffffffffffffff1681526020018481526020018360ff168152602001600060ff168152509050600481908060018154018082558091505060019003906000526020600020906003020160009091909190915060008201518160000160006101000a81548173ffffffffffffffffffffffffffffffffffffffff021916908373ffffffffffffffffffffffffffffffffffffffff1602179055506020820151816001015560408201518160020160006101000a81548160ff021916908360ff16021790555060608201518160020160016101000a81548160ff021916908360ff16021790555050506001600081548092919060010191905055507fa42a23342bd1fa04c955dece9a4f1cac15d2f8a5ffe9acb144022d417e24d05e600854826001546040516107c693929190611c3d565b60405180910390a1505050565b60003373ffffffffffffffffffffffffffffffffffffffff163073ffffffffffffffffffffffffffffffffffffffff163160405161081090611995565b60006040518083038185875af1925050503d806000811461084d576040519150601f19603f3d011682016040523d82523d6000602084013e610852565b606091505b50509050600115158115151461089d576040517f08c379a000000000000000000000000000000000000000000000000000000000815260040161089490611aa4565b60405180910390fd5b50565b60025481565b60003073ffffffffffffffffffffffffffffffffffffffff1631905090565b60015481565b60065481565b6000809054906101000a900473ffffffffffffffffffffffffffffffffffffffff1673ffffffffffffffffffffffffffffffffffffffff163373ffffffffffffffffffffffffffffffffffffffff161461092a57600080fd5b6000809054906101000a900473ffffffffffffffffffffffffffffffffffffffff1673ffffffffffffffffffffffffffffffffffffffff167ff8df31144d9c2f0f6b59d69b8b98abd5459d07f2742c4df920b25aae33c6482060405160405180910390a260008060006101000a81548173ffffffffffffffffffffffffffffffffffffffff021916908373ffffffffffffffffffffffffffffffffffffffff160217905550565b6000809054906101000a900473ffffffffffffffffffffffffffffffffffffffff1673ffffffffffffffffffffffffffffffffffffffff163373ffffffffffffffffffffffffffffffffffffffff1614610a2a57600080fd5b600a6013600254600a020281610a3c57fe5b04341015610a7f576040517f08c379a0000000000000000000000000000000000000000000000000000000008152600401610a7690611ac4565b60405180910390fd5b600654421015610ac4576040517f08c379a0000000000000000000000000000000000000000000000000000000008152600401610abb90611b64565b60405180910390fd5b60011515600560009054906101000a900460ff16151514610b1a576040517f08c379a0000000000000000000000000000000000000000000000000000000008152600401610b1190611b64565b60405180910390fd5b8142016006819055506000600560006101000a81548160ff02191690831515021790555060006001819055508060078190555060086000815480929190600101919050555060046000610b6d91906112c9565b7f979fc205f0066238ab06805f2083d2f62c7aca84e1d2039eb1dfa89ba16bda3660085442600654604051610ba493929190611c74565b60405180910390a15050565b6000809054906101000a900473ffffffffffffffffffffffffffffffffffffffff1681565b6000809054906101000a900473ffffffffffffffffffffffffffffffffffffffff1673ffffffffffffffffffffffffffffffffffffffff163373ffffffffffffffffffffffffffffffffffffffff1614610c2e57600080fd5b60001515600560009054906101000a900460ff16151514610c84576040517f08c379a0000000000000000000000000000000000000000000000000000000008152600401610c7b90611ae4565b60405180910390fd5b6001600560006101000a81548160ff02191690831515021790555042600681905550610cae6112ed565b610cb6611096565b9050600081604001518260200151836000015101019050606060015467ffffffffffffffff81118015610ce857600080fd5b50604051908082528060200260200182016040528015610d2257816020015b610d0f611285565b815260200190600190039081610d075790505b50905060008090505b6001548167ffffffffffffffff161015610f4b57610d47611285565b60048267ffffffffffffffff1681548110610d5e57fe5b90600052602060002090600302016040518060800160405290816000820160009054906101000a900473ffffffffffffffffffffffffffffffffffffffff1673ffffffffffffffffffffffffffffffffffffffff1673ffffffffffffffffffffffffffffffffffffffff168152602001600182015481526020016002820160009054906101000a900460ff1660ff1660ff1681526020016002820160019054906101000a900460ff1660ff1660ff16815250509050610e218160400151856110eb565b15610f07576001816060019060ff16908160ff16815250506000816000015173ffffffffffffffffffffffffffffffffffffffff16600a601384602001510281610e6757fe5b04604051610e7490611995565b60006040518083038185875af1925050503d8060008114610eb1576040519150601f19603f3d011682016040523d82523d6000602084013e610eb6565b606091505b505090506001151581151514610f01576040517f08c379a0000000000000000000000000000000000000000000000000000000008152600401610ef890611b44565b60405180910390fd5b50610f1b565b6000816060019060ff16908160ff16815250505b80838367ffffffffffffffff1681518110610f3257fe5b6020026020010181905250508080600101915050610d2b565b507f19aadc2dc4cd77f104c2a3a2a79b48a7189426b7d1353d635975e3ce819366806008548285604051610f8193929190611bff565b60405180910390a1610f916107d3565b505050565b600560009054906101000a900460ff1681565b60085481565b600a81565b60035481565b6000809054906101000a900473ffffffffffffffffffffffffffffffffffffffff1673ffffffffffffffffffffffffffffffffffffffff163373ffffffffffffffffffffffffffffffffffffffff161461101357600080fd5b61101c8161112d565b50565b6004818154811061102c57fe5b90600052602060002090600302016000915090508060000160009054906101000a900473ffffffffffffffffffffffffffffffffffffffff16908060010154908060020160009054906101000a900460ff16908060020160019054906101000a900460ff16905084565b61109e6112ed565b6110a66112ed565b60405180606001604052806110bd60016006611225565b81526020016110ce60016006611225565b81526020016110df60016006611225565b81525090508091505090565b600060018360ff16141561111257600b821015801561110b575060118211155b9050611127565b600482101580156111245750600a8211155b90505b92915050565b600073ffffffffffffffffffffffffffffffffffffffff168173ffffffffffffffffffffffffffffffffffffffff16141561116757600080fd5b8073ffffffffffffffffffffffffffffffffffffffff166000809054906101000a900473ffffffffffffffffffffffffffffffffffffffff1673ffffffffffffffffffffffffffffffffffffffff167f8be0079c531659141344cd1fd0a4f28419497f9722a3daafe3b4186f6b6457e060405160405180910390a3806000806101000a81548173ffffffffffffffffffffffffffffffffffffffff021916908373ffffffffffffffffffffffffffffffffffffffff16021790555050565b60006001600754016007819055506000424443336007546040516020016112509594939291906119aa565b6040516020818303038152906040528051906020012060001c9050600184840301818161127957fe5b06840191505092915050565b6040518060800160405280600073ffffffffffffffffffffffffffffffffffffffff16815260200160008152602001600060ff168152602001600060ff1681525090565b50805460008255600302906000526020600020908101906112ea919061130e565b50565b60405180606001604052806000815260200160008152602001600081525090565b61138191905b8082111561137d57600080820160006101000a81549073ffffffffffffffffffffffffffffffffffffffff021916905560018201600090556002820160006101000a81549060ff02191690556002820160016101000a81549060ff021916905550600301611314565b5090565b90565b60008135905061139381611da2565b92915050565b6000813590506113a881611db9565b92915050565b6000813590506113bd81611dd0565b92915050565b6000602082840312156113d557600080fd5b60006113e384828501611384565b91505092915050565b6000602082840312156113fe57600080fd5b600061140c84828501611399565b91505092915050565b6000806040838503121561142857600080fd5b600061143685828601611399565b925050602061144785828601611399565b9150509250929050565b6000806040838503121561146457600080fd5b600061147285828601611399565b9250506020611483858286016113ae565b9150509250929050565b60006114998383611898565b60808301905092915050565b6114ae81611d12565b82525050565b6114bd81611d12565b82525050565b6114d46114cf82611d12565b611d67565b82525050565b6114e381611d00565b82525050565b60006114f482611cbb565b6114fe8185611cd3565b935061150983611cab565b8060005b8381101561153a578151611521888261148d565b975061152c83611cc6565b92505060018101905061150d565b5085935050505092915050565b61155081611d24565b82525050565b6000611563601483611cef565b91507f47616d652073657373696f6e2069732066756c6c0000000000000000000000006000830152602082019050919050565b60006115a3600f83611cef565b91507f43616e6e6f7420776974686472617700000000000000000000000000000000006000830152602082019050919050565b60006115e3602d83611cef565b91507f596f7520646f6e2774206861766520656e6f756768206d6f6e657920746f207360008301527f74617274207468652067616d65000000000000000000000000000000000000006020830152604082019050919050565b6000611649601c83611cef565b91507f47616d652073657373696f6e20686173206e6f742073746172746564000000006000830152602082019050919050565b6000611689601683611cef565b91507f596f7572207374616b6520697320746f6f2068696768000000000000000000006000830152602082019050919050565b60006116c9601283611cef565b91507f5468652067616d652068617320656e64656400000000000000000000000000006000830152602082019050919050565b6000611709601f83611cef565b91507f5472616e73666572206d6f6e657920746f20706c61796572206661696c6564006000830152602082019050919050565b6000611749601a83611cef565b91507f47616d652073657373696f6e20686173206e6f7420656e6465640000000000006000830152602082019050919050565b6000611789600083611ce4565b9150600082019050919050565b60006117a3602083611cef565b91507f596f75722062657474696e672076616c7565206973206e6f742076616c6964216000830152602082019050919050565b60006117e3601a83611cef565b91507f506c6179657220616c726561647920706c6163656420626574210000000000006000830152602082019050919050565b6000611823601583611cef565b91507f596f7572207374616b6520697320746f6f206c6f7700000000000000000000006000830152602082019050919050565b60608201600082015161186c6000850182611942565b50602082015161187f6020850182611942565b5060408201516118926040850182611942565b50505050565b6080820160008201516118ae60008501826114a5565b5060208201516118c16020850182611942565b5060408201516118d46040850182611977565b5060608201516118e76060850182611977565b50505050565b60808201600082015161190360008501826114a5565b5060208201516119166020850182611942565b5060408201516119296040850182611977565b50606082015161193c6060850182611977565b50505050565b61194b81611d50565b82525050565b61195a81611d50565b82525050565b61197161196c82611d50565b611d8b565b82525050565b61198081611d5a565b82525050565b61198f81611d5a565b82525050565b60006119a08261177c565b9150819050919050565b60006119b68288611960565b6020820191506119c68287611960565b6020820191506119d68286611960565b6020820191506119e682856114c3565b6014820191506119f68284611960565b6020820191508190509695505050505050565b6000602082019050611a1e60008301846114da565b92915050565b6000608082019050611a3960008301876114b4565b611a466020830186611951565b611a536040830185611986565b611a606060830184611986565b95945050505050565b6000602082019050611a7e6000830184611547565b92915050565b60006020820190508181036000830152611a9d81611556565b9050919050565b60006020820190508181036000830152611abd81611596565b9050919050565b60006020820190508181036000830152611add816115d6565b9050919050565b60006020820190508181036000830152611afd8161163c565b9050919050565b60006020820190508181036000830152611b1d8161167c565b9050919050565b60006020820190508181036000830152611b3d816116bc565b9050919050565b60006020820190508181036000830152611b5d816116fc565b9050919050565b60006020820190508181036000830152611b7d8161173c565b9050919050565b60006020820190508181036000830152611b9d81611796565b9050919050565b60006020820190508181036000830152611bbd816117d6565b9050919050565b60006020820190508181036000830152611bdd81611816565b9050919050565b6000602082019050611bf96000830184611951565b92915050565b600060a082019050611c146000830186611951565b8181036020830152611c2681856114e9565b9050611c356040830184611856565b949350505050565b600060c082019050611c526000830186611951565b611c5f60208301856118ed565b611c6c60a0830184611951565b949350505050565b6000606082019050611c896000830186611951565b611c966020830185611951565b611ca36040830184611951565b949350505050565b6000819050602082019050919050565b600081519050919050565b6000602082019050919050565b600082825260208201905092915050565b600081905092915050565b600082825260208201905092915050565b6000611d0b82611d30565b9050919050565b6000611d1d82611d30565b9050919050565b60008115159050919050565b600073ffffffffffffffffffffffffffffffffffffffff82169050919050565b6000819050919050565b600060ff82169050919050565b6000611d7282611d79565b9050919050565b6000611d8482611d95565b9050919050565b6000819050919050565b60008160601b9050919050565b611dab81611d00565b8114611db657600080fd5b50565b611dc281611d50565b8114611dcd57600080fd5b50565b611dd981611d5a565b8114611de457600080fd5b5056fea2646970667358221220014363595135b2d4e7d48c03b9f8a90f844e0c15a1ccfbf8679b64f91a5a579e64736f6c63430006080033",
  "immutableReferences": {},
  "source": "// SPDX-License-Identifier: MIT\r\npragma solidity >=0.4.22 <0.7.0;\r\npragma experimental ABIEncoderV2;\r\n\r\nimport \"./Ownable.sol\";\r\nimport \"./SafeMath.sol\";\r\n\r\ncontract RandomGame is Ownable {\r\n    using SafeMath for uint256;\r\n\r\n    //=================== Structs ===================\r\n    struct Player {\r\n        address payable addr;\r\n        uint256 stake; // the number of money that player has staked\r\n        uint8 status; // 0: xiu, 1: tai\r\n        uint8 isWinner; // 0: Lose, 1: Win\r\n    }\r\n\r\n    struct Dice {\r\n        uint256 dice1;\r\n        uint256 dice2;\r\n        uint256 dice3;\r\n    }\r\n    //====================== Events ==========================\r\n    //Events mean that the contract will emit an event when something happens.\r\n    event StartGameEvent(uint256 gameId, uint256 timeStart, uint256 timeEnd);\r\n    event EndGameEvent(uint256 gameId, Player[] players, Dice result);\r\n    event PlaceBetEvent(uint256 gameId, Player player, uint256 totalPlayer);\r\n    event Received(address, uint256);\r\n\r\n    //====================== Game States ======================\r\n\r\n    uint256 public playerCount = 0;\r\n    uint256 public constant maxPlayerCount = 10;\r\n    uint256 public maxPlayerStake = 1 ether; //0.01\r\n    uint256 public minPlayerStake = 0.1 ether; //0.001\r\n    Player[] public players;\r\n\r\n    bool public isEnded = true;\r\n    uint256 public endTime = 0;\r\n    uint256 private randNonce = 0;\r\n    uint256 public gameId = 0;\r\n\r\n    // ====================== Modifier =========================\r\n    // Modifiers and requires are conditions that must be met before a function is executed.\r\n    // Game Condition:\r\n    // Player:\r\n    //      max player = 100\r\n    //      max stake = 10 Gwei\r\n    // Owner:\r\n    //      Start Game condition has enough money to pay for the game\r\n    //      End Game condition has enough money to pay for the game\r\n\r\n    modifier canPlaceBet() {\r\n        //check game has end\r\n        require(block.timestamp <= endTime, \"The game has ended\");\r\n        require(isEnded == false, \"The game has ended\");\r\n        //check max and min stake\r\n        require(msg.value >= minPlayerStake, \"Your stake is too low\");\r\n        require(msg.value <= maxPlayerStake, \"Your stake is too high\");\r\n        //check max player\r\n        require(playerCount < maxPlayerCount, \"Game session is full\");\r\n        //check player is not in game\r\n        for (uint256 i = 0; i < playerCount; i++) {\r\n            require(\r\n                players[i].addr != msg.sender,\r\n                \"Player already placed bet!\"\r\n            );\r\n        }\r\n        _;\r\n    }\r\n\r\n    modifier canStartGame() {\r\n        //check the owner has enough money to start the game\r\n        require(\r\n            msg.value >= (maxPlayerCount * maxPlayerStake * 19) / 10,\r\n            \"You don't have enough money to start the game\"\r\n        );\r\n        require(block.timestamp >= endTime, \"Game session has not ended\");\r\n        require(isEnded == true, \"Game session has not ended\");\r\n        _;\r\n    }\r\n\r\n    modifier canFinishGame() {\r\n        //require(block.timestamp < endTime, \"Game session has not started\");\r\n        require(isEnded == false, \"Game session has not started\");\r\n        _;\r\n    }\r\n\r\n    // ====================== Player Functions ==================\r\n    function placeBet(uint256 stake, uint8 status) public payable canPlaceBet {\r\n        require(stake >= minPlayerStake, \"Your stake is too low\");\r\n        require(stake <= maxPlayerStake, \"Your stake is too high\");\r\n        require(status == 0 || status == 1, \"Your betting value is not valid!\");\r\n        Player memory player = Player(msg.sender, stake, status, 0);\r\n        players.push(player);\r\n        playerCount++;\r\n\r\n        //Transefer money to owner of contract\r\n        emit PlaceBetEvent(gameId, player, playerCount);\r\n    }\r\n\r\n    // ====================== Owner Functions ==================\r\n    // Owner functions are functions that can only be called by the owner of the contract.\r\n\r\n    /*\r\n    @param sessionTime: the time that the game will last (in seconds)\r\n    */\r\n    function startGame(uint256 sessionTime, uint256 _random)\r\n        public\r\n        payable\r\n        onlyOwner\r\n        canStartGame\r\n    {\r\n        //Block timestamp is the number of seconds since the block was created.\r\n        endTime = block.timestamp + sessionTime;\r\n        isEnded = false;\r\n\r\n        // reset game state\r\n        playerCount = 0;\r\n        randNonce = _random;\r\n        gameId++;\r\n        delete players;\r\n        emit StartGameEvent(gameId, block.timestamp, endTime);\r\n    }\r\n\r\n    function finishGame() public onlyOwner canFinishGame {\r\n        isEnded = true;\r\n        endTime = block.timestamp;\r\n\r\n        Dice memory dice = randomDice();\r\n        uint256 totalDice = dice.dice1 + dice.dice2 + dice.dice3;\r\n\r\n        Player[] memory result = new Player[](playerCount);\r\n        for (uint64 i = 0; i < playerCount; i++) {\r\n            Player memory player = players[i];\r\n            if (canWin(player.status, totalDice)) {\r\n                player.isWinner = 1;\r\n                (bool isSuccess, ) = player.addr.call{\r\n                    value: (player.stake * 19) / 10\r\n                }(\"\");\r\n                require(isSuccess == true, \"Transfer money to player failed\");\r\n            } else {\r\n                player.isWinner = 0;\r\n            }\r\n            result[i] = player;\r\n        }\r\n        emit EndGameEvent(gameId, result, dice);\r\n        withDrawAllMoney();\r\n    }\r\n\r\n    // ====================== Helper Functions ==================\r\n    // Helper functions are functions that are used by other functions.\r\n    function random(uint256 min, uint256 max) internal returns (uint256) {\r\n        // Transaction-Level PRNG\r\n        randNonce = randNonce + 1;\r\n        uint256 randNumber = uint256(\r\n            keccak256(\r\n                abi.encodePacked(\r\n                    block.timestamp,\r\n                    block.difficulty,\r\n                    block.number,\r\n                    msg.sender,\r\n                    randNonce\r\n                )\r\n            )\r\n        );\r\n        return min + (randNumber % (max - min + 1));\r\n    }\r\n\r\n    function randomDice() internal returns (Dice memory) {\r\n        Dice memory dice = Dice(random(1, 6), random(1, 6), random(1, 6));\r\n        return dice;\r\n    }\r\n\r\n    function canWin(uint8 status, uint256 totalDice)\r\n        internal\r\n        pure\r\n        returns (bool)\r\n    {\r\n        //status : 0  xiu 4 - 10\r\n        //status : 1  tai 11 - 17\r\n        if (status == 1) {\r\n            return totalDice >= 11 && totalDice <= 17;\r\n        } else {\r\n            return totalDice >= 4 && totalDice <= 10;\r\n        }\r\n    }\r\n\r\n    function withDrawAllMoney() public {\r\n        (bool isSuccess, ) = msg.sender.call{value: address(this).balance}(\"\");\r\n        require(isSuccess == true, \"Cannot withdraw\");\r\n    }\r\n\r\n    // ======= Testing functions helpers ============\r\n    // Testing functions are functions that are used to test the contract.\r\n\r\n    function getBalance() public view returns (uint256) {\r\n        return address(this).balance;\r\n    }\r\n}\r\n",
  "sourcePath": "E:\\BaoTien\\Desktop\\smartcontract\\smartcontract-template\\contracts\\RandomGame.sol",
  "compiler": {
    "name": "solc",
    "version": "0.6.8+commit.0bbfe453.Emscripten.clang"
  },
  "schemaVersion": "3.4.4",
  "updatedAt": "2022-07-03T07:38:50.120Z",
  "networkType": "ethereum",
  "devdoc": {
    "methods": {
      "renounceOwnership()": {
        "details": "Allows the current owner to relinquish control of the contract."
      },
      "transferOwnership(address)": {
        "details": "Allows the current owner to transfer control of the contract to a newOwner.",
        "params": {
          "_newOwner": "The address to transfer ownership to."
        }
      }
    }
  },
  "userdoc": {
    "methods": {
      "renounceOwnership()": {
        "notice": "Renouncing to ownership will leave the contract without an owner. It will not be possible to call the functions with the `onlyOwner` modifier anymore."
      }
    }
  }
}