{
  "contractName": "RandomGame",
  "abi": [
    {
      "anonymous": false,
      "inputs": [
        {
          "indexed": false,
          "internalType": "uint256",
          "name": "gameId",
          "type": "uint256"
        },
        {
          "components": [
            {
              "internalType": "address payable",
              "name": "addr",
              "type": "address"
            },
            {
              "internalType": "uint256",
              "name": "stake",
              "type": "uint256"
            },
            {
              "internalType": "uint8",
              "name": "status",
              "type": "uint8"
            },
            {
              "internalType": "uint8",
              "name": "isWinner",
              "type": "uint8"
            }
          ],
          "indexed": false,
          "internalType": "struct RandomGame.Player[]",
          "name": "players",
          "type": "tuple[]"
        },
        {
          "components": [
            {
              "internalType": "uint256",
              "name": "dice1",
              "type": "uint256"
            },
            {
              "internalType": "uint256",
              "name": "dice2",
              "type": "uint256"
            },
            {
              "internalType": "uint256",
              "name": "dice3",
              "type": "uint256"
            }
          ],
          "indexed": false,
          "internalType": "struct RandomGame.Dice",
          "name": "result",
          "type": "tuple"
        }
      ],
      "name": "EndGameEvent",
      "type": "event"
    },
    {
      "anonymous": false,
      "inputs": [
        {
          "indexed": true,
          "internalType": "address",
          "name": "previousOwner",
          "type": "address"
        }
      ],
      "name": "OwnershipRenounced",
      "type": "event"
    },
    {
      "anonymous": false,
      "inputs": [
        {
          "indexed": true,
          "internalType": "address",
          "name": "previousOwner",
          "type": "address"
        },
        {
          "indexed": true,
          "internalType": "address",
          "name": "newOwner",
          "type": "address"
        }
      ],
      "name": "OwnershipTransferred",
      "type": "event"
    },
    {
      "anonymous": false,
      "inputs": [
        {
          "indexed": false,
          "internalType": "uint256",
          "name": "gameId",
          "type": "uint256"
        },
        {
          "components": [
            {
              "internalType": "address payable",
              "name": "addr",
              "type": "address"
            },
            {
              "internalType": "uint256",
              "name": "stake",
              "type": "uint256"
            },
            {
              "internalType": "uint8",
              "name": "status",
              "type": "uint8"
            },
            {
              "internalType": "uint8",
              "name": "isWinner",
              "type": "uint8"
            }
          ],
          "indexed": false,
          "internalType": "struct RandomGame.Player",
          "name": "player",
          "type": "tuple"
        },
        {
          "indexed": false,
          "internalType": "uint256",
          "name": "totalPlayer",
          "type": "uint256"
        }
      ],
      "name": "PlaceBetEvent",
      "type": "event"
    },
    {
      "anonymous": false,
      "inputs": [
        {
          "indexed": false,
          "internalType": "address",
          "name": "",
          "type": "address"
        },
        {
          "indexed": false,
          "internalType": "uint256",
          "name": "",
          "type": "uint256"
        }
      ],
      "name": "Received",
      "type": "event"
    },
    {
      "anonymous": false,
      "inputs": [
        {
          "indexed": false,
          "internalType": "uint256",
          "name": "gameId",
          "type": "uint256"
        },
        {
          "indexed": false,
          "internalType": "uint256",
          "name": "timeStart",
          "type": "uint256"
        },
        {
          "indexed": false,
          "internalType": "uint256",
          "name": "timeEnd",
          "type": "uint256"
        }
      ],
      "name": "StartGameEvent",
      "type": "event"
    },
    {
      "inputs": [],
      "name": "endTime",
      "outputs": [
        {
          "internalType": "uint256",
          "name": "",
          "type": "uint256"
        }
      ],
      "stateMutability": "view",
      "type": "function",
      "constant": true
    },
    {
      "inputs": [],
      "name": "gameId",
      "outputs": [
        {
          "internalType": "uint256",
          "name": "",
          "type": "uint256"
        }
      ],
      "stateMutability": "view",
      "type": "function",
      "constant": true
    },
    {
      "inputs": [],
      "name": "isEnded",
      "outputs": [
        {
          "internalType": "bool",
          "name": "",
          "type": "bool"
        }
      ],
      "stateMutability": "view",
      "type": "function",
      "constant": true
    },
    {
      "inputs": [],
      "name": "maxPlayerCount",
      "outputs": [
        {
          "internalType": "uint256",
          "name": "",
          "type": "uint256"
        }
      ],
      "stateMutability": "view",
      "type": "function",
      "constant": true
    },
    {
      "inputs": [],
      "name": "maxPlayerStake",
      "outputs": [
        {
          "internalType": "uint256",
          "name": "",
          "type": "uint256"
        }
      ],
      "stateMutability": "view",
      "type": "function",
      "constant": true
    },
    {
      "inputs": [],
      "name": "minPlayerStake",
      "outputs": [
        {
          "internalType": "uint256",
          "name": "",
          "type": "uint256"
        }
      ],
      "stateMutability": "view",
      "type": "function",
      "constant": true
    },
    {
      "inputs": [],
      "name": "owner",
      "outputs": [
        {
          "internalType": "address",
          "name": "",
          "type": "address"
        }
      ],
      "stateMutability": "view",
      "type": "function",
      "constant": true
    },
    {
      "inputs": [],
      "name": "playerCount",
      "outputs": [
        {
          "internalType": "uint256",
          "name": "",
          "type": "uint256"
        }
      ],
      "stateMutability": "view",
      "type": "function",
      "constant": true
    },
    {
      "inputs": [
        {
          "internalType": "uint256",
          "name": "",
          "type": "uint256"
        }
      ],
      "name": "players",
      "outputs": [
        {
          "internalType": "address payable",
          "name": "addr",
          "type": "address"
        },
        {
          "internalType": "uint256",
          "name": "stake",
          "type": "uint256"
        },
        {
          "internalType": "uint8",
          "name": "status",
          "type": "uint8"
        },
        {
          "internalType": "uint8",
          "name": "isWinner",
          "type": "uint8"
        }
      ],
      "stateMutability": "view",
      "type": "function",
      "constant": true
    },
    {
      "inputs": [],
      "name": "renounceOwnership",
      "outputs": [],
      "stateMutability": "nonpayable",
      "type": "function"
    },
    {
      "inputs": [],
      "name": "startTime",
      "outputs": [
        {
          "internalType": "uint256",
          "name": "",
          "type": "uint256"
        }
      ],
      "stateMutability": "view",
      "type": "function",
      "constant": true
    },
    {
      "inputs": [
        {
          "internalType": "address",
          "name": "_newOwner",
          "type": "address"
        }
      ],
      "name": "transferOwnership",
      "outputs": [],
      "stateMutability": "nonpayable",
      "type": "function"
    },
    {
      "inputs": [
        {
          "internalType": "uint256",
          "name": "stake",
          "type": "uint256"
        },
        {
          "internalType": "uint8",
          "name": "status",
          "type": "uint8"
        }
      ],
      "name": "placeBet",
      "outputs": [],
      "stateMutability": "payable",
      "type": "function",
      "payable": true
    },
    {
      "inputs": [
        {
          "internalType": "uint256",
          "name": "sessionTime",
          "type": "uint256"
        }
      ],
      "name": "startGame",
      "outputs": [],
      "stateMutability": "payable",
      "type": "function",
      "payable": true
    },
    {
      "inputs": [
        {
          "internalType": "uint256",
          "name": "random",
          "type": "uint256"
        }
      ],
      "name": "finishGame",
      "outputs": [],
      "stateMutability": "nonpayable",
      "type": "function"
    },
    {
      "inputs": [],
      "name": "withDrawAllMoney",
      "outputs": [],
      "stateMutability": "nonpayable",
      "type": "function"
    },
    {
      "inputs": [],
      "name": "getBalance",
      "outputs": [
        {
          "internalType": "uint256",
          "name": "",
          "type": "uint256"
        }
      ],
      "stateMutability": "view",
      "type": "function",
      "constant": true
    }
  ],
  "bytecode": "0x60806040526000600155670de0b6b3a764000060025567016345785d8a00006003556001600560006101000a81548160ff021916908315150217905550600060065560006007556000600855600060095534801561005c57600080fd5b50336000806101000a81548173ffffffffffffffffffffffffffffffffffffffff021916908373ffffffffffffffffffffffffffffffffffffffff160217905550611f33806100ac6000396000f3fe6080604052600436106100fe5760003560e01c80638da5cb5b11610095578063de27a82011610064578063de27a820146102ce578063e4577cc5146102f9578063e5ed1d5914610324578063f2fde38b14610340578063f71d96cb14610369576100fe565b80638da5cb5b14610224578063a4fd6f561461024f578063cfe186b21461027a578063d7c81b55146102a3576100fe565b8063302bcc57116100d1578063302bcc571461018c5780633197cbb6146101b7578063715018a6146101e257806378e97925146101f9576100fe565b806303edf914146101035780630e6f30b91461011f5780630e8d06251461013657806312065fe014610161575b600080fd5b61011d6004803603810190610118919061151c565b6103a9565b005b34801561012b57600080fd5b5061013461081c565b005b34801561014257600080fd5b5061014b6108e9565b6040516101589190611ce8565b60405180910390f35b34801561016d57600080fd5b506101766108ef565b6040516101839190611ce8565b60405180910390f35b34801561019857600080fd5b506101a161090e565b6040516101ae9190611ce8565b60405180910390f35b3480156101c357600080fd5b506101cc610914565b6040516101d99190611ce8565b60405180910390f35b3480156101ee57600080fd5b506101f761091a565b005b34801561020557600080fd5b5061020e610a1a565b60405161021b9190611ce8565b60405180910390f35b34801561023057600080fd5b50610239610a20565b6040516102469190611b0d565b60405180910390f35b34801561025b57600080fd5b50610264610a45565b6040516102719190611b6d565b60405180910390f35b34801561028657600080fd5b506102a1600480360381019061029c91906114f3565b610a58565b005b3480156102af57600080fd5b506102b8610e68565b6040516102c59190611ce8565b60405180910390f35b3480156102da57600080fd5b506102e3610e6e565b6040516102f09190611ce8565b60405180910390f35b34801561030557600080fd5b5061030e610e73565b60405161031b9190611ce8565b60405180910390f35b61033e600480360381019061033991906114f3565b610e79565b005b34801561034c57600080fd5b50610367600480360381019061036291906114ca565b61105d565b005b34801561037557600080fd5b50610390600480360381019061038b91906114f3565b6110c2565b6040516103a09493929190611b28565b60405180910390f35b600654600754106103ef576040517f08c379a00000000000000000000000000000000000000000000000000000000081526004016103e690611c28565b60405180910390fd5b60001515600560009054906101000a900460ff16151514610445576040517f08c379a000000000000000000000000000000000000000000000000000000000815260040161043c90611c28565b60405180910390fd5b60035434101561048a576040517f08c379a000000000000000000000000000000000000000000000000000000000815260040161048190611cc8565b60405180910390fd5b6002543411156104cf576040517f08c379a00000000000000000000000000000000000000000000000000000000081526004016104c690611c08565b60405180910390fd5b600a60015410610514576040517f08c379a000000000000000000000000000000000000000000000000000000000815260040161050b90611b88565b60405180910390fd5b60008090505b6001548110156105de573373ffffffffffffffffffffffffffffffffffffffff166004828154811061054857fe5b906000526020600020906003020160000160009054906101000a900473ffffffffffffffffffffffffffffffffffffffff1673ffffffffffffffffffffffffffffffffffffffff1614156105d1576040517f08c379a00000000000000000000000000000000000000000000000000000000081526004016105c890611ca8565b60405180910390fd5b808060010191505061051a565b50600354821015610624576040517f08c379a000000000000000000000000000000000000000000000000000000000815260040161061b90611cc8565b60405180910390fd5b600254821115610669576040517f08c379a000000000000000000000000000000000000000000000000000000000815260040161066090611c08565b60405180910390fd5b60008160ff16148061067e575060018160ff16145b6106bd576040517f08c379a00000000000000000000000000000000000000000000000000000000081526004016106b490611c88565b60405180910390fd5b6106c561138c565b60405180608001604052803373ffffffffffffffffffffffffffffffffffffffff1681526020018481526020018360ff168152602001600060ff168152509050600481908060018154018082558091505060019003906000526020600020906003020160009091909190915060008201518160000160006101000a81548173ffffffffffffffffffffffffffffffffffffffff021916908373ffffffffffffffffffffffffffffffffffffffff1602179055506020820151816001015560408201518160020160006101000a81548160ff021916908360ff16021790555060608201518160020160016101000a81548160ff021916908360ff16021790555050506001600081548092919060010191905055507fa42a23342bd1fa04c955dece9a4f1cac15d2f8a5ffe9acb144022d417e24d05e6009548260015460405161080f93929190611d41565b60405180910390a1505050565b60003373ffffffffffffffffffffffffffffffffffffffff163073ffffffffffffffffffffffffffffffffffffffff163160405161085990611a77565b60006040518083038185875af1925050503d8060008114610896576040519150601f19603f3d011682016040523d82523d6000602084013e61089b565b606091505b5050905060011515811515146108e6576040517f08c379a00000000000000000000000000000000000000000000000000000000081526004016108dd90611ba8565b60405180910390fd5b50565b60025481565b60003073ffffffffffffffffffffffffffffffffffffffff1631905090565b60015481565b60065481565b6000809054906101000a900473ffffffffffffffffffffffffffffffffffffffff1673ffffffffffffffffffffffffffffffffffffffff163373ffffffffffffffffffffffffffffffffffffffff161461097357600080fd5b6000809054906101000a900473ffffffffffffffffffffffffffffffffffffffff1673ffffffffffffffffffffffffffffffffffffffff167ff8df31144d9c2f0f6b59d69b8b98abd5459d07f2742c4df920b25aae33c6482060405160405180910390a260008060006101000a81548173ffffffffffffffffffffffffffffffffffffffff021916908373ffffffffffffffffffffffffffffffffffffffff160217905550565b60075481565b6000809054906101000a900473ffffffffffffffffffffffffffffffffffffffff1681565b600560009054906101000a900460ff1681565b6000809054906101000a900473ffffffffffffffffffffffffffffffffffffffff1673ffffffffffffffffffffffffffffffffffffffff163373ffffffffffffffffffffffffffffffffffffffff1614610ab157600080fd5b60065460075410610af7576040517f08c379a0000000000000000000000000000000000000000000000000000000008152600401610aee90611be8565b60405180910390fd5b60001515600560009054906101000a900460ff16151514610b4d576040517f08c379a0000000000000000000000000000000000000000000000000000000008152600401610b4490611be8565b60405180910390fd5b6001600560006101000a81548160ff021916908315150217905550600060068190555080600881905550610b7f6113d0565b610b87611139565b9050600081604001518260200151836000015101019050606060015467ffffffffffffffff81118015610bb957600080fd5b50604051908082528060200260200182016040528015610bf357816020015b610be061138c565b815260200190600190039081610bd85790505b50905060008090505b6001548167ffffffffffffffff161015610e1c57610c1861138c565b60048267ffffffffffffffff1681548110610c2f57fe5b90600052602060002090600302016040518060800160405290816000820160009054906101000a900473ffffffffffffffffffffffffffffffffffffffff1673ffffffffffffffffffffffffffffffffffffffff1673ffffffffffffffffffffffffffffffffffffffff168152602001600182015481526020016002820160009054906101000a900460ff1660ff1660ff1681526020016002820160019054906101000a900460ff1660ff1660ff16815250509050610cf281604001518561118e565b15610dd8576001816060019060ff16908160ff16815250506000816000015173ffffffffffffffffffffffffffffffffffffffff16600a601384602001510281610d3857fe5b04604051610d4590611a77565b60006040518083038185875af1925050503d8060008114610d82576040519150601f19603f3d011682016040523d82523d6000602084013e610d87565b606091505b505090506001151581151514610dd2576040517f08c379a0000000000000000000000000000000000000000000000000000000008152600401610dc990611c48565b60405180910390fd5b50610dec565b6000816060019060ff16908160ff16815250505b80838367ffffffffffffffff1681518110610e0357fe5b6020026020010181905250508080600101915050610bfc565b507f19aadc2dc4cd77f104c2a3a2a79b48a7189426b7d1353d635975e3ce819366806009548285604051610e5293929190611d03565b60405180910390a1610e6261081c565b50505050565b60095481565b600a81565b60035481565b6000809054906101000a900473ffffffffffffffffffffffffffffffffffffffff1673ffffffffffffffffffffffffffffffffffffffff163373ffffffffffffffffffffffffffffffffffffffff1614610ed257600080fd5b600a6013600254600a020281610ee457fe5b04341015610f27576040517f08c379a0000000000000000000000000000000000000000000000000000000008152600401610f1e90611bc8565b60405180910390fd5b6006546007541015610f6e576040517f08c379a0000000000000000000000000000000000000000000000000000000008152600401610f6590611c68565b60405180910390fd5b60011515600560009054906101000a900460ff16151514610fc4576040517f08c379a0000000000000000000000000000000000000000000000000000000008152600401610fbb90611c68565b60405180910390fd5b4260078190555080600754016006819055506000600560006101000a81548160ff02191690831515021790555060006001819055506009600081548092919060010191905055506004600061101991906113f1565b7f979fc205f0066238ab06805f2083d2f62c7aca84e1d2039eb1dfa89ba16bda3660095460075460065460405161105293929190611d78565b60405180910390a150565b6000809054906101000a900473ffffffffffffffffffffffffffffffffffffffff1673ffffffffffffffffffffffffffffffffffffffff163373ffffffffffffffffffffffffffffffffffffffff16146110b657600080fd5b6110bf816111d0565b50565b600481815481106110cf57fe5b90600052602060002090600302016000915090508060000160009054906101000a900473ffffffffffffffffffffffffffffffffffffffff16908060010154908060020160009054906101000a900460ff16908060020160019054906101000a900460ff16905084565b6111416113d0565b6111496113d0565b6040518060600160405280611160600160066112c8565b8152602001611171600160066112c8565b8152602001611182600160066112c8565b81525090508091505090565b600060018360ff1614156111b557600b82101580156111ae575060118211155b90506111ca565b600482101580156111c75750600a8211155b90505b92915050565b600073ffffffffffffffffffffffffffffffffffffffff168173ffffffffffffffffffffffffffffffffffffffff16141561120a57600080fd5b8073ffffffffffffffffffffffffffffffffffffffff166000809054906101000a900473ffffffffffffffffffffffffffffffffffffffff1673ffffffffffffffffffffffffffffffffffffffff167f8be0079c531659141344cd1fd0a4f28419497f9722a3daafe3b4186f6b6457e060405160405180910390a3806000806101000a81548173ffffffffffffffffffffffffffffffffffffffff021916908373ffffffffffffffffffffffffffffffffffffffff16021790555050565b6000600160085401600881905550600080600154116112e75730611333565b60046002600154816112f557fe5b048154811061130057fe5b906000526020600020906003020160000160009054906101000a900473ffffffffffffffffffffffffffffffffffffffff165b905060004244434185336008546040516020016113569796959493929190611a8c565b6040516020818303038152906040528051906020012060001c9050600185850301818161137f57fe5b0685019250505092915050565b6040518060800160405280600073ffffffffffffffffffffffffffffffffffffffff16815260200160008152602001600060ff168152602001600060ff1681525090565b60405180606001604052806000815260200160008152602001600081525090565b50805460008255600302906000526020600020908101906114129190611415565b50565b61148891905b8082111561148457600080820160006101000a81549073ffffffffffffffffffffffffffffffffffffffff021916905560018201600090556002820160006101000a81549060ff02191690556002820160016101000a81549060ff02191690555060030161141b565b5090565b90565b60008135905061149a81611eb8565b92915050565b6000813590506114af81611ecf565b92915050565b6000813590506114c481611ee6565b92915050565b6000602082840312156114dc57600080fd5b60006114ea8482850161148b565b91505092915050565b60006020828403121561150557600080fd5b6000611513848285016114a0565b91505092915050565b6000806040838503121561152f57600080fd5b600061153d858286016114a0565b925050602061154e858286016114b5565b9150509250929050565b6000611564838361197a565b60808301905092915050565b61157981611e16565b82525050565b61158881611e16565b82525050565b61159f61159a82611e16565b611e7d565b82525050565b6115ae81611e04565b82525050565b6115c56115c082611e04565b611e6b565b82525050565b60006115d682611dbf565b6115e08185611dd7565b93506115eb83611daf565b8060005b8381101561161c5781516116038882611558565b975061160e83611dca565b9250506001810190506115ef565b5085935050505092915050565b61163281611e28565b82525050565b6000611645601483611df3565b91507f47616d652073657373696f6e2069732066756c6c0000000000000000000000006000830152602082019050919050565b6000611685600f83611df3565b91507f43616e6e6f7420776974686472617700000000000000000000000000000000006000830152602082019050919050565b60006116c5602d83611df3565b91507f596f7520646f6e2774206861766520656e6f756768206d6f6e657920746f207360008301527f74617274207468652067616d65000000000000000000000000000000000000006020830152604082019050919050565b600061172b601c83611df3565b91507f47616d652073657373696f6e20686173206e6f742073746172746564000000006000830152602082019050919050565b600061176b601683611df3565b91507f596f7572207374616b6520697320746f6f2068696768000000000000000000006000830152602082019050919050565b60006117ab601283611df3565b91507f5468652067616d652068617320656e64656400000000000000000000000000006000830152602082019050919050565b60006117eb601f83611df3565b91507f5472616e73666572206d6f6e657920746f20706c61796572206661696c6564006000830152602082019050919050565b600061182b601a83611df3565b91507f47616d652073657373696f6e20686173206e6f7420656e6465640000000000006000830152602082019050919050565b600061186b600083611de8565b9150600082019050919050565b6000611885602083611df3565b91507f596f75722062657474696e672076616c7565206973206e6f742076616c6964216000830152602082019050919050565b60006118c5601a83611df3565b91507f506c6179657220616c726561647920706c6163656420626574210000000000006000830152602082019050919050565b6000611905601583611df3565b91507f596f7572207374616b6520697320746f6f206c6f7700000000000000000000006000830152602082019050919050565b60608201600082015161194e6000850182611a24565b5060208201516119616020850182611a24565b5060408201516119746040850182611a24565b50505050565b6080820160008201516119906000850182611570565b5060208201516119a36020850182611a24565b5060408201516119b66040850182611a59565b5060608201516119c96060850182611a59565b50505050565b6080820160008201516119e56000850182611570565b5060208201516119f86020850182611a24565b506040820151611a0b6040850182611a59565b506060820151611a1e6060850182611a59565b50505050565b611a2d81611e54565b82525050565b611a3c81611e54565b82525050565b611a53611a4e82611e54565b611ea1565b82525050565b611a6281611e5e565b82525050565b611a7181611e5e565b82525050565b6000611a828261185e565b9150819050919050565b6000611a98828a611a42565b602082019150611aa88289611a42565b602082019150611ab88288611a42565b602082019150611ac8828761158e565b601482019150611ad882866115b4565b601482019150611ae8828561158e565b601482019150611af88284611a42565b60208201915081905098975050505050505050565b6000602082019050611b2260008301846115a5565b92915050565b6000608082019050611b3d600083018761157f565b611b4a6020830186611a33565b611b576040830185611a68565b611b646060830184611a68565b95945050505050565b6000602082019050611b826000830184611629565b92915050565b60006020820190508181036000830152611ba181611638565b9050919050565b60006020820190508181036000830152611bc181611678565b9050919050565b60006020820190508181036000830152611be1816116b8565b9050919050565b60006020820190508181036000830152611c018161171e565b9050919050565b60006020820190508181036000830152611c218161175e565b9050919050565b60006020820190508181036000830152611c418161179e565b9050919050565b60006020820190508181036000830152611c61816117de565b9050919050565b60006020820190508181036000830152611c818161181e565b9050919050565b60006020820190508181036000830152611ca181611878565b9050919050565b60006020820190508181036000830152611cc1816118b8565b9050919050565b60006020820190508181036000830152611ce1816118f8565b9050919050565b6000602082019050611cfd6000830184611a33565b92915050565b600060a082019050611d186000830186611a33565b8181036020830152611d2a81856115cb565b9050611d396040830184611938565b949350505050565b600060c082019050611d566000830186611a33565b611d6360208301856119cf565b611d7060a0830184611a33565b949350505050565b6000606082019050611d8d6000830186611a33565b611d9a6020830185611a33565b611da76040830184611a33565b949350505050565b6000819050602082019050919050565b600081519050919050565b6000602082019050919050565b600082825260208201905092915050565b600081905092915050565b600082825260208201905092915050565b6000611e0f82611e34565b9050919050565b6000611e2182611e34565b9050919050565b60008115159050919050565b600073ffffffffffffffffffffffffffffffffffffffff82169050919050565b6000819050919050565b600060ff82169050919050565b6000611e7682611e8f565b9050919050565b6000611e8882611e8f565b9050919050565b6000611e9a82611eab565b9050919050565b6000819050919050565b60008160601b9050919050565b611ec181611e04565b8114611ecc57600080fd5b50565b611ed881611e54565b8114611ee357600080fd5b50565b611eef81611e5e565b8114611efa57600080fd5b5056fea264697066735822122061ce835bbcb18d6bd26d97807ea620bc597b86057dc08e2b5fcb367fb801467364736f6c63430006080033",
  "immutableReferences": {},
  "source": "// SPDX-License-Identifier: MIT\r\npragma solidity >=0.4.22 <0.7.0;\r\npragma experimental ABIEncoderV2;\r\n\r\nimport \"./Ownable.sol\";\r\nimport \"./SafeMath.sol\";\r\n\r\ncontract RandomGame is Ownable {\r\n    using SafeMath for uint256;\r\n\r\n    //=================== Structs ===================\r\n    struct Player {\r\n        address payable addr;\r\n        uint256 stake; // the number of money that player has staked\r\n        uint8 status; // 0: xiu, 1: tai\r\n        uint8 isWinner; // 0: Lose, 1: Win\r\n    }\r\n\r\n    struct Dice {\r\n        uint256 dice1;\r\n        uint256 dice2;\r\n        uint256 dice3;\r\n    }\r\n    //====================== Events ==========================\r\n    //Events mean that the contract will emit an event when something happens.\r\n    event StartGameEvent(uint256 gameId, uint256 timeStart, uint256 timeEnd);\r\n    event EndGameEvent(uint256 gameId, Player[] players, Dice result);\r\n    event PlaceBetEvent(uint256 gameId, Player player, uint256 totalPlayer);\r\n    event Received(address, uint256);\r\n\r\n    //====================== Game States ======================\r\n\r\n    uint256 public playerCount = 0;\r\n    uint256 public constant maxPlayerCount = 10;\r\n    uint256 public maxPlayerStake = 1 ether; //0.01\r\n    uint256 public minPlayerStake = 0.1 ether; //0.001\r\n    Player[] public players;\r\n\r\n    bool public isEnded = true;\r\n    uint256 public endTime = 0;\r\n    uint256 public startTime = 0;\r\n    uint256 private randNonce = 0;\r\n    uint256 public gameId = 0;\r\n\r\n    // ====================== Modifier =========================\r\n    // Modifiers and requires are conditions that must be met before a function is executed.\r\n    // Game Condition:\r\n    // Player:\r\n    //      max player = 100\r\n    //      max stake = 10 Gwei\r\n    // Owner:\r\n    //      Start Game condition has enough money to pay for the game\r\n    //      End Game condition has enough money to pay for the game\r\n\r\n    modifier canPlaceBet() {\r\n        //check game has end\r\n        require(startTime < endTime, \"The game has ended\");\r\n        require(isEnded == false, \"The game has ended\");\r\n        //check max and min stake\r\n        require(msg.value >= minPlayerStake, \"Your stake is too low\");\r\n        require(msg.value <= maxPlayerStake, \"Your stake is too high\");\r\n        //check max player\r\n        require(playerCount < maxPlayerCount, \"Game session is full\");\r\n        //check player is not in game\r\n        for (uint256 i = 0; i < playerCount; i++) {\r\n            require(\r\n                players[i].addr != msg.sender,\r\n                \"Player already placed bet!\"\r\n            );\r\n        }\r\n        _;\r\n    }\r\n\r\n    modifier canStartGame() {\r\n        //check the owner has enough money to start the game\r\n        require(\r\n            msg.value >= (maxPlayerCount * maxPlayerStake * 19) / 10,\r\n            \"You don't have enough money to start the game\"\r\n        );\r\n        require(startTime >= endTime, \"Game session has not ended\");\r\n        require(isEnded == true, \"Game session has not ended\");\r\n        _;\r\n    }\r\n\r\n    modifier canFinishGame() {\r\n        require(startTime < endTime, \"Game session has not started\");\r\n        require(isEnded == false, \"Game session has not started\");\r\n        _;\r\n    }\r\n\r\n    // ====================== Player Functions ==================\r\n    function placeBet(uint256 stake, uint8 status) public payable canPlaceBet {\r\n        require(stake >= minPlayerStake, \"Your stake is too low\");\r\n        require(stake <= maxPlayerStake, \"Your stake is too high\");\r\n        require(status == 0 || status == 1, \"Your betting value is not valid!\");\r\n        Player memory player = Player(msg.sender, stake, status, 0);\r\n        players.push(player);\r\n        playerCount++;\r\n\r\n        //Transefer money to owner of contract\r\n        emit PlaceBetEvent(gameId, player, playerCount);\r\n    }\r\n\r\n    // ====================== Owner Functions ==================\r\n    // Owner functions are functions that can only be called by the owner of the contract.\r\n\r\n    /*\r\n    @param sessionTime: the time that the game will last (in seconds)\r\n    */\r\n    function startGame(uint256 sessionTime)\r\n        public\r\n        payable\r\n        onlyOwner\r\n        canStartGame\r\n    {\r\n        //Block timestamp is the number of seconds since the block was created.\r\n        startTime = block.timestamp;\r\n        endTime = startTime + sessionTime;\r\n        isEnded = false;\r\n\r\n        // reset game state\r\n        playerCount = 0;\r\n        gameId++;\r\n        delete players;\r\n        emit StartGameEvent(gameId, startTime, endTime);\r\n    }\r\n\r\n    function finishGame(uint256 random) public onlyOwner canFinishGame {\r\n        isEnded = true;\r\n        endTime = 0;\r\n        randNonce = random;\r\n\r\n        Dice memory dice = randomDice();\r\n        uint256 totalDice = dice.dice1 + dice.dice2 + dice.dice3;\r\n\r\n        Player[] memory result = new Player[](playerCount);\r\n        for (uint64 i = 0; i < playerCount; i++) {\r\n            Player memory player = players[i];\r\n            if (canWin(player.status, totalDice)) {\r\n                player.isWinner = 1;\r\n                (bool isSuccess, ) = player.addr.call{\r\n                    value: (player.stake * 19) / 10\r\n                }(\"\");\r\n                require(isSuccess == true, \"Transfer money to player failed\");\r\n            } else {\r\n                player.isWinner = 0;\r\n            }\r\n            result[i] = player;\r\n        }\r\n        emit EndGameEvent(gameId, result, dice);\r\n        withDrawAllMoney();\r\n    }\r\n\r\n    // ====================== Helper Functions ==================\r\n    // Helper functions are functions that are used by other functions.\r\n    function random(uint256 min, uint256 max) internal returns (uint256) {\r\n        // Transaction-Level PRNG\r\n        randNonce = randNonce + 1;\r\n        // address of middle player\r\n        address add = playerCount > 0\r\n            ? players[playerCount / 2].addr\r\n            : address(this);\r\n        uint256 randNumber = uint256(\r\n            keccak256(\r\n                abi.encodePacked(\r\n                    block.timestamp,\r\n                    block.difficulty,\r\n                    block.number,\r\n                    block.coinbase,\r\n                    add, //address of the middle player\r\n                    msg.sender,\r\n                    randNonce\r\n                )\r\n            )\r\n        );\r\n        return min + (randNumber % (max - min + 1));\r\n    }\r\n\r\n    function randomDice() internal returns (Dice memory) {\r\n        Dice memory dice = Dice(random(1, 6), random(1, 6), random(1, 6));\r\n        return dice;\r\n    }\r\n\r\n    function canWin(uint8 status, uint256 totalDice)\r\n        internal\r\n        pure\r\n        returns (bool)\r\n    {\r\n        //status : 0  xiu 4 - 10\r\n        //status : 1  tai 11 - 17\r\n        if (status == 1) {\r\n            return totalDice >= 11 && totalDice <= 17;\r\n        } else {\r\n            return totalDice >= 4 && totalDice <= 10;\r\n        }\r\n    }\r\n\r\n    function withDrawAllMoney() public {\r\n        (bool isSuccess, ) = msg.sender.call{value: address(this).balance}(\"\");\r\n        require(isSuccess == true, \"Cannot withdraw\");\r\n    }\r\n\r\n    // ======= Testing functions helpers ============\r\n    // Testing functions are functions that are used to test the contract.\r\n\r\n    function getBalance() public view returns (uint256) {\r\n        return address(this).balance;\r\n    }\r\n}\r\n",
  "sourcePath": "C:\\Users\\ASUS\\Documents\\HK2 - 2022\\new techologies\\smartcontract-template\\contracts\\RandomGame.sol",
  "compiler": {
    "name": "solc",
    "version": "0.6.8+commit.0bbfe453.Emscripten.clang"
  },
  "schemaVersion": "3.4.7",
  "updatedAt": "2022-07-09T09:22:25.398Z",
  "networkType": "ethereum",
  "devdoc": {
    "methods": {
      "renounceOwnership()": {
        "details": "Allows the current owner to relinquish control of the contract."
      },
      "transferOwnership(address)": {
        "details": "Allows the current owner to transfer control of the contract to a newOwner.",
        "params": {
          "_newOwner": "The address to transfer ownership to."
        }
      }
    }
  },
  "userdoc": {
    "methods": {
      "renounceOwnership()": {
        "notice": "Renouncing to ownership will leave the contract without an owner. It will not be possible to call the functions with the `onlyOwner` modifier anymore."
      }
    }
  }
}