{
  "contractName": "RandomGame",
  "abi": [
    {
      "anonymous": false,
      "inputs": [
        {
          "indexed": false,
          "internalType": "uint256",
          "name": "gameId",
          "type": "uint256"
        },
        {
          "components": [
            {
              "internalType": "address payable",
              "name": "addr",
              "type": "address"
            },
            {
              "internalType": "uint256",
              "name": "stake",
              "type": "uint256"
            },
            {
              "internalType": "uint8",
              "name": "status",
              "type": "uint8"
            },
            {
              "internalType": "uint8",
              "name": "isWinner",
              "type": "uint8"
            }
          ],
          "indexed": false,
          "internalType": "struct RandomGame.Player[]",
          "name": "players",
          "type": "tuple[]"
        },
        {
          "components": [
            {
              "internalType": "uint256",
              "name": "dice1",
              "type": "uint256"
            },
            {
              "internalType": "uint256",
              "name": "dice2",
              "type": "uint256"
            },
            {
              "internalType": "uint256",
              "name": "dice3",
              "type": "uint256"
            }
          ],
          "indexed": false,
          "internalType": "struct RandomGame.Dice",
          "name": "result",
          "type": "tuple"
        }
      ],
      "name": "EndGameEvent",
      "type": "event"
    },
    {
      "anonymous": false,
      "inputs": [
        {
          "indexed": true,
          "internalType": "address",
          "name": "previousOwner",
          "type": "address"
        }
      ],
      "name": "OwnershipRenounced",
      "type": "event"
    },
    {
      "anonymous": false,
      "inputs": [
        {
          "indexed": true,
          "internalType": "address",
          "name": "previousOwner",
          "type": "address"
        },
        {
          "indexed": true,
          "internalType": "address",
          "name": "newOwner",
          "type": "address"
        }
      ],
      "name": "OwnershipTransferred",
      "type": "event"
    },
    {
      "anonymous": false,
      "inputs": [
        {
          "indexed": false,
          "internalType": "uint256",
          "name": "gameId",
          "type": "uint256"
        },
        {
          "components": [
            {
              "internalType": "address payable",
              "name": "addr",
              "type": "address"
            },
            {
              "internalType": "uint256",
              "name": "stake",
              "type": "uint256"
            },
            {
              "internalType": "uint8",
              "name": "status",
              "type": "uint8"
            },
            {
              "internalType": "uint8",
              "name": "isWinner",
              "type": "uint8"
            }
          ],
          "indexed": false,
          "internalType": "struct RandomGame.Player",
          "name": "player",
          "type": "tuple"
        },
        {
          "indexed": false,
          "internalType": "uint256",
          "name": "totalPlayer",
          "type": "uint256"
        }
      ],
      "name": "PlaceBetEvent",
      "type": "event"
    },
    {
      "anonymous": false,
      "inputs": [
        {
          "indexed": false,
          "internalType": "address",
          "name": "",
          "type": "address"
        },
        {
          "indexed": false,
          "internalType": "uint256",
          "name": "",
          "type": "uint256"
        }
      ],
      "name": "Received",
      "type": "event"
    },
    {
      "anonymous": false,
      "inputs": [
        {
          "indexed": false,
          "internalType": "uint256",
          "name": "gameId",
          "type": "uint256"
        },
        {
          "indexed": false,
          "internalType": "uint256",
          "name": "timeStart",
          "type": "uint256"
        },
        {
          "indexed": false,
          "internalType": "uint256",
          "name": "timeEnd",
          "type": "uint256"
        }
      ],
      "name": "StartGameEvent",
      "type": "event"
    },
    {
      "inputs": [],
      "name": "endTime",
      "outputs": [
        {
          "internalType": "uint256",
          "name": "",
          "type": "uint256"
        }
      ],
      "stateMutability": "view",
      "type": "function",
      "constant": true
    },
    {
      "inputs": [],
      "name": "gameId",
      "outputs": [
        {
          "internalType": "uint256",
          "name": "",
          "type": "uint256"
        }
      ],
      "stateMutability": "view",
      "type": "function",
      "constant": true
    },
    {
      "inputs": [],
      "name": "isEnded",
      "outputs": [
        {
          "internalType": "bool",
          "name": "",
          "type": "bool"
        }
      ],
      "stateMutability": "view",
      "type": "function",
      "constant": true
    },
    {
      "inputs": [],
      "name": "maxPlayerCount",
      "outputs": [
        {
          "internalType": "uint256",
          "name": "",
          "type": "uint256"
        }
      ],
      "stateMutability": "view",
      "type": "function",
      "constant": true
    },
    {
      "inputs": [],
      "name": "maxPlayerStake",
      "outputs": [
        {
          "internalType": "uint256",
          "name": "",
          "type": "uint256"
        }
      ],
      "stateMutability": "view",
      "type": "function",
      "constant": true
    },
    {
      "inputs": [],
      "name": "minPlayerStake",
      "outputs": [
        {
          "internalType": "uint256",
          "name": "",
          "type": "uint256"
        }
      ],
      "stateMutability": "view",
      "type": "function",
      "constant": true
    },
    {
      "inputs": [],
      "name": "owner",
      "outputs": [
        {
          "internalType": "address",
          "name": "",
          "type": "address"
        }
      ],
      "stateMutability": "view",
      "type": "function",
      "constant": true
    },
    {
      "inputs": [],
      "name": "playerCount",
      "outputs": [
        {
          "internalType": "uint256",
          "name": "",
          "type": "uint256"
        }
      ],
      "stateMutability": "view",
      "type": "function",
      "constant": true
    },
    {
      "inputs": [
        {
          "internalType": "uint256",
          "name": "",
          "type": "uint256"
        }
      ],
      "name": "players",
      "outputs": [
        {
          "internalType": "address payable",
          "name": "addr",
          "type": "address"
        },
        {
          "internalType": "uint256",
          "name": "stake",
          "type": "uint256"
        },
        {
          "internalType": "uint8",
          "name": "status",
          "type": "uint8"
        },
        {
          "internalType": "uint8",
          "name": "isWinner",
          "type": "uint8"
        }
      ],
      "stateMutability": "view",
      "type": "function",
      "constant": true
    },
    {
      "inputs": [],
      "name": "renounceOwnership",
      "outputs": [],
      "stateMutability": "nonpayable",
      "type": "function"
    },
    {
      "inputs": [
        {
          "internalType": "address",
          "name": "_newOwner",
          "type": "address"
        }
      ],
      "name": "transferOwnership",
      "outputs": [],
      "stateMutability": "nonpayable",
      "type": "function"
    },
    {
      "inputs": [
        {
          "internalType": "uint256",
          "name": "stake",
          "type": "uint256"
        },
        {
          "internalType": "uint8",
          "name": "status",
          "type": "uint8"
        }
      ],
      "name": "placeBet",
      "outputs": [],
      "stateMutability": "payable",
      "type": "function",
      "payable": true
    },
    {
      "inputs": [
        {
          "internalType": "uint256",
          "name": "sessionTime",
          "type": "uint256"
        },
        {
          "internalType": "uint256",
          "name": "_random",
          "type": "uint256"
        }
      ],
      "name": "startGame",
      "outputs": [],
      "stateMutability": "payable",
      "type": "function",
      "payable": true
    },
    {
      "inputs": [],
      "name": "finishGame",
      "outputs": [],
      "stateMutability": "nonpayable",
      "type": "function"
    },
    {
      "inputs": [],
      "name": "withDrawAllMoney",
      "outputs": [],
      "stateMutability": "nonpayable",
      "type": "function"
    },
    {
      "inputs": [],
      "name": "getBalance",
      "outputs": [
        {
          "internalType": "uint256",
          "name": "",
          "type": "uint256"
        }
      ],
      "stateMutability": "view",
      "type": "function",
      "constant": true
    }
  ],
  "bytecode": "0x60806040526000600155670de0b6b3a764000060025567016345785d8a00006003556001600560006101000a81548160ff02191690831515021790555060006006556000600755600060085534801561005757600080fd5b50336000806101000a81548173ffffffffffffffffffffffffffffffffffffffff021916908373ffffffffffffffffffffffffffffffffffffffff160217905550611cdf806100a76000396000f3fe6080604052600436106100f35760003560e01c80638da5cb5b1161008a578063de27a82011610059578063de27a820146102a2578063e4577cc5146102cd578063f2fde38b146102f8578063f71d96cb14610321576100f3565b80638da5cb5b1461020a5780639fecb69f14610235578063a4fd6f561461024c578063d7c81b5514610277576100f3565b8063302bcc57116100c6578063302bcc57146101815780633197cbb6146101ac578063715018a6146101d7578063730b8381146101ee576100f3565b806303edf914146100f85780630e6f30b9146101145780630e8d06251461012b57806312065fe014610156575b600080fd5b610112600480360381019061010d9190611373565b610361565b005b34801561012057600080fd5b506101296106f5565b005b34801561013757600080fd5b506101406107c2565b60405161014d9190611aa6565b60405180910390f35b34801561016257600080fd5b5061016b6107c8565b6040516101789190611aa6565b60405180910390f35b34801561018d57600080fd5b506101966107e7565b6040516101a39190611aa6565b60405180910390f35b3480156101b857600080fd5b506101c16107ed565b6040516101ce9190611aa6565b60405180910390f35b3480156101e357600080fd5b506101ec6107f3565b005b61020860048036038101906102039190611337565b6108f3565b005b34801561021657600080fd5b5061021f610ad2565b60405161022c91906118eb565b60405180910390f35b34801561024157600080fd5b5061024a610af7565b005b34801561025857600080fd5b50610261610eb8565b60405161026e919061194b565b60405180910390f35b34801561028357600080fd5b5061028c610ecb565b6040516102999190611aa6565b60405180910390f35b3480156102ae57600080fd5b506102b7610ed1565b6040516102c49190611aa6565b60405180910390f35b3480156102d957600080fd5b506102e2610ed6565b6040516102ef9190611aa6565b60405180910390f35b34801561030457600080fd5b5061031f600480360381019061031a91906112e5565b610edc565b005b34801561032d57600080fd5b506103486004803603810190610343919061130e565b610f41565b6040516103589493929190611906565b60405180910390f35b6006544211156103a6576040517f08c379a000000000000000000000000000000000000000000000000000000000815260040161039d90611a06565b60405180910390fd5b60001515600560009054906101000a900460ff161515146103fc576040517f08c379a00000000000000000000000000000000000000000000000000000000081526004016103f390611a06565b60405180910390fd5b600354341015610441576040517f08c379a000000000000000000000000000000000000000000000000000000000815260040161043890611a86565b60405180910390fd5b600254341115610486576040517f08c379a000000000000000000000000000000000000000000000000000000000815260040161047d906119e6565b60405180910390fd5b600a600154106104cb576040517f08c379a00000000000000000000000000000000000000000000000000000000081526004016104c290611966565b60405180910390fd5b60008090505b600154811015610595573373ffffffffffffffffffffffffffffffffffffffff16600482815481106104ff57fe5b906000526020600020906003020160000160009054906101000a900473ffffffffffffffffffffffffffffffffffffffff1673ffffffffffffffffffffffffffffffffffffffff161415610588576040517f08c379a000000000000000000000000000000000000000000000000000000000815260040161057f90611a66565b60405180910390fd5b80806001019150506104d1565b5061059e6111a7565b60405180608001604052803373ffffffffffffffffffffffffffffffffffffffff1681526020018481526020018360ff168152602001600060ff168152509050600481908060018154018082558091505060019003906000526020600020906003020160009091909190915060008201518160000160006101000a81548173ffffffffffffffffffffffffffffffffffffffff021916908373ffffffffffffffffffffffffffffffffffffffff1602179055506020820151816001015560408201518160020160006101000a81548160ff021916908360ff16021790555060608201518160020160016101000a81548160ff021916908360ff16021790555050506001600081548092919060010191905055507fa42a23342bd1fa04c955dece9a4f1cac15d2f8a5ffe9acb144022d417e24d05e600854826001546040516106e893929190611aff565b60405180910390a1505050565b60003373ffffffffffffffffffffffffffffffffffffffff163073ffffffffffffffffffffffffffffffffffffffff163160405161073290611877565b60006040518083038185875af1925050503d806000811461076f576040519150601f19603f3d011682016040523d82523d6000602084013e610774565b606091505b5050905060011515811515146107bf576040517f08c379a00000000000000000000000000000000000000000000000000000000081526004016107b690611986565b60405180910390fd5b50565b60025481565b60003073ffffffffffffffffffffffffffffffffffffffff1631905090565b60015481565b60065481565b6000809054906101000a900473ffffffffffffffffffffffffffffffffffffffff1673ffffffffffffffffffffffffffffffffffffffff163373ffffffffffffffffffffffffffffffffffffffff161461084c57600080fd5b6000809054906101000a900473ffffffffffffffffffffffffffffffffffffffff1673ffffffffffffffffffffffffffffffffffffffff167ff8df31144d9c2f0f6b59d69b8b98abd5459d07f2742c4df920b25aae33c6482060405160405180910390a260008060006101000a81548173ffffffffffffffffffffffffffffffffffffffff021916908373ffffffffffffffffffffffffffffffffffffffff160217905550565b6000809054906101000a900473ffffffffffffffffffffffffffffffffffffffff1673ffffffffffffffffffffffffffffffffffffffff163373ffffffffffffffffffffffffffffffffffffffff161461094c57600080fd5b600a6013600254600a02028161095e57fe5b043410156109a1576040517f08c379a0000000000000000000000000000000000000000000000000000000008152600401610998906119a6565b60405180910390fd5b6006544210156109e6576040517f08c379a00000000000000000000000000000000000000000000000000000000081526004016109dd90611a46565b60405180910390fd5b60011515600560009054906101000a900460ff16151514610a3c576040517f08c379a0000000000000000000000000000000000000000000000000000000008152600401610a3390611a46565b60405180910390fd5b8142016006819055506000600560006101000a81548160ff02191690831515021790555060006001819055508060078190555060086000815480929190600101919050555060046000610a8f91906111eb565b7f979fc205f0066238ab06805f2083d2f62c7aca84e1d2039eb1dfa89ba16bda3660085442600654604051610ac693929190611b36565b60405180910390a15050565b6000809054906101000a900473ffffffffffffffffffffffffffffffffffffffff1681565b6000809054906101000a900473ffffffffffffffffffffffffffffffffffffffff1673ffffffffffffffffffffffffffffffffffffffff163373ffffffffffffffffffffffffffffffffffffffff1614610b5057600080fd5b60001515600560009054906101000a900460ff16151514610ba6576040517f08c379a0000000000000000000000000000000000000000000000000000000008152600401610b9d906119c6565b60405180910390fd5b6001600560006101000a81548160ff02191690831515021790555042600681905550610bd061120f565b610bd8610fb8565b9050600081604001518260200151836000015101019050606060015467ffffffffffffffff81118015610c0a57600080fd5b50604051908082528060200260200182016040528015610c4457816020015b610c316111a7565b815260200190600190039081610c295790505b50905060008090505b6001548167ffffffffffffffff161015610e6d57610c696111a7565b60048267ffffffffffffffff1681548110610c8057fe5b90600052602060002090600302016040518060800160405290816000820160009054906101000a900473ffffffffffffffffffffffffffffffffffffffff1673ffffffffffffffffffffffffffffffffffffffff1673ffffffffffffffffffffffffffffffffffffffff168152602001600182015481526020016002820160009054906101000a900460ff1660ff1660ff1681526020016002820160019054906101000a900460ff1660ff1660ff16815250509050610d4381604001518561100d565b15610e29576001816060019060ff16908160ff16815250506000816000015173ffffffffffffffffffffffffffffffffffffffff16600a601384602001510281610d8957fe5b04604051610d9690611877565b60006040518083038185875af1925050503d8060008114610dd3576040519150601f19603f3d011682016040523d82523d6000602084013e610dd8565b606091505b505090506001151581151514610e23576040517f08c379a0000000000000000000000000000000000000000000000000000000008152600401610e1a90611a26565b60405180910390fd5b50610e3d565b6000816060019060ff16908160ff16815250505b80838367ffffffffffffffff1681518110610e5457fe5b6020026020010181905250508080600101915050610c4d565b507f19aadc2dc4cd77f104c2a3a2a79b48a7189426b7d1353d635975e3ce819366806008548285604051610ea393929190611ac1565b60405180910390a1610eb36106f5565b505050565b600560009054906101000a900460ff1681565b60085481565b600a81565b60035481565b6000809054906101000a900473ffffffffffffffffffffffffffffffffffffffff1673ffffffffffffffffffffffffffffffffffffffff163373ffffffffffffffffffffffffffffffffffffffff1614610f3557600080fd5b610f3e8161104f565b50565b60048181548110610f4e57fe5b90600052602060002090600302016000915090508060000160009054906101000a900473ffffffffffffffffffffffffffffffffffffffff16908060010154908060020160009054906101000a900460ff16908060020160019054906101000a900460ff16905084565b610fc061120f565b610fc861120f565b6040518060600160405280610fdf60016006611147565b8152602001610ff060016006611147565b815260200161100160016006611147565b81525090508091505090565b600060018360ff16141561103457600b821015801561102d575060118211155b9050611049565b600482101580156110465750600a8211155b90505b92915050565b600073ffffffffffffffffffffffffffffffffffffffff168173ffffffffffffffffffffffffffffffffffffffff16141561108957600080fd5b8073ffffffffffffffffffffffffffffffffffffffff166000809054906101000a900473ffffffffffffffffffffffffffffffffffffffff1673ffffffffffffffffffffffffffffffffffffffff167f8be0079c531659141344cd1fd0a4f28419497f9722a3daafe3b4186f6b6457e060405160405180910390a3806000806101000a81548173ffffffffffffffffffffffffffffffffffffffff021916908373ffffffffffffffffffffffffffffffffffffffff16021790555050565b600060016007540160078190555060004244433360075460405160200161117295949392919061188c565b6040516020818303038152906040528051906020012060001c9050600184840301818161119b57fe5b06840191505092915050565b6040518060800160405280600073ffffffffffffffffffffffffffffffffffffffff16815260200160008152602001600060ff168152602001600060ff1681525090565b508054600082556003029060005260206000209081019061120c9190611230565b50565b60405180606001604052806000815260200160008152602001600081525090565b6112a391905b8082111561129f57600080820160006101000a81549073ffffffffffffffffffffffffffffffffffffffff021916905560018201600090556002820160006101000a81549060ff02191690556002820160016101000a81549060ff021916905550600301611236565b5090565b90565b6000813590506112b581611c64565b92915050565b6000813590506112ca81611c7b565b92915050565b6000813590506112df81611c92565b92915050565b6000602082840312156112f757600080fd5b6000611305848285016112a6565b91505092915050565b60006020828403121561132057600080fd5b600061132e848285016112bb565b91505092915050565b6000806040838503121561134a57600080fd5b6000611358858286016112bb565b9250506020611369858286016112bb565b9150509250929050565b6000806040838503121561138657600080fd5b6000611394858286016112bb565b92505060206113a5858286016112d0565b9150509250929050565b60006113bb838361177a565b60808301905092915050565b6113d081611bd4565b82525050565b6113df81611bd4565b82525050565b6113f66113f182611bd4565b611c29565b82525050565b61140581611bc2565b82525050565b600061141682611b7d565b6114208185611b95565b935061142b83611b6d565b8060005b8381101561145c57815161144388826113af565b975061144e83611b88565b92505060018101905061142f565b5085935050505092915050565b61147281611be6565b82525050565b6000611485601483611bb1565b91507f47616d652073657373696f6e2069732066756c6c0000000000000000000000006000830152602082019050919050565b60006114c5600f83611bb1565b91507f43616e6e6f7420776974686472617700000000000000000000000000000000006000830152602082019050919050565b6000611505602d83611bb1565b91507f596f7520646f6e2774206861766520656e6f756768206d6f6e657920746f207360008301527f74617274207468652067616d65000000000000000000000000000000000000006020830152604082019050919050565b600061156b601c83611bb1565b91507f47616d652073657373696f6e20686173206e6f742073746172746564000000006000830152602082019050919050565b60006115ab601683611bb1565b91507f596f7572207374616b6520697320746f6f2068696768000000000000000000006000830152602082019050919050565b60006115eb601283611bb1565b91507f5468652067616d652068617320656e64656400000000000000000000000000006000830152602082019050919050565b600061162b601f83611bb1565b91507f5472616e73666572206d6f6e657920746f20706c61796572206661696c6564006000830152602082019050919050565b600061166b601a83611bb1565b91507f47616d652073657373696f6e20686173206e6f7420656e6465640000000000006000830152602082019050919050565b60006116ab600083611ba6565b9150600082019050919050565b60006116c5601a83611bb1565b91507f506c6179657220616c726561647920706c6163656420626574210000000000006000830152602082019050919050565b6000611705601583611bb1565b91507f596f7572207374616b6520697320746f6f206c6f7700000000000000000000006000830152602082019050919050565b60608201600082015161174e6000850182611824565b5060208201516117616020850182611824565b5060408201516117746040850182611824565b50505050565b60808201600082015161179060008501826113c7565b5060208201516117a36020850182611824565b5060408201516117b66040850182611859565b5060608201516117c96060850182611859565b50505050565b6080820160008201516117e560008501826113c7565b5060208201516117f86020850182611824565b50604082015161180b6040850182611859565b50606082015161181e6060850182611859565b50505050565b61182d81611c12565b82525050565b61183c81611c12565b82525050565b61185361184e82611c12565b611c4d565b82525050565b61186281611c1c565b82525050565b61187181611c1c565b82525050565b60006118828261169e565b9150819050919050565b60006118988288611842565b6020820191506118a88287611842565b6020820191506118b88286611842565b6020820191506118c882856113e5565b6014820191506118d88284611842565b6020820191508190509695505050505050565b600060208201905061190060008301846113fc565b92915050565b600060808201905061191b60008301876113d6565b6119286020830186611833565b6119356040830185611868565b6119426060830184611868565b95945050505050565b60006020820190506119606000830184611469565b92915050565b6000602082019050818103600083015261197f81611478565b9050919050565b6000602082019050818103600083015261199f816114b8565b9050919050565b600060208201905081810360008301526119bf816114f8565b9050919050565b600060208201905081810360008301526119df8161155e565b9050919050565b600060208201905081810360008301526119ff8161159e565b9050919050565b60006020820190508181036000830152611a1f816115de565b9050919050565b60006020820190508181036000830152611a3f8161161e565b9050919050565b60006020820190508181036000830152611a5f8161165e565b9050919050565b60006020820190508181036000830152611a7f816116b8565b9050919050565b60006020820190508181036000830152611a9f816116f8565b9050919050565b6000602082019050611abb6000830184611833565b92915050565b600060a082019050611ad66000830186611833565b8181036020830152611ae8818561140b565b9050611af76040830184611738565b949350505050565b600060c082019050611b146000830186611833565b611b2160208301856117cf565b611b2e60a0830184611833565b949350505050565b6000606082019050611b4b6000830186611833565b611b586020830185611833565b611b656040830184611833565b949350505050565b6000819050602082019050919050565b600081519050919050565b6000602082019050919050565b600082825260208201905092915050565b600081905092915050565b600082825260208201905092915050565b6000611bcd82611bf2565b9050919050565b6000611bdf82611bf2565b9050919050565b60008115159050919050565b600073ffffffffffffffffffffffffffffffffffffffff82169050919050565b6000819050919050565b600060ff82169050919050565b6000611c3482611c3b565b9050919050565b6000611c4682611c57565b9050919050565b6000819050919050565b60008160601b9050919050565b611c6d81611bc2565b8114611c7857600080fd5b50565b611c8481611c12565b8114611c8f57600080fd5b50565b611c9b81611c1c565b8114611ca657600080fd5b5056fea26469706673582212207a4ca24d708d3e23d644fd6f484f8bb66709b2b265fe0d357e8ff811a49fd4bc64736f6c63430006080033",
  "immutableReferences": {},
  "source": "// SPDX-License-Identifier: MIT\r\npragma solidity >=0.4.22 <0.7.0;\r\npragma experimental ABIEncoderV2;\r\n\r\nimport \"./Ownable.sol\";\r\nimport \"./SafeMath.sol\";\r\n\r\ncontract RandomGame is Ownable {\r\n    using SafeMath for uint256;\r\n\r\n    //=================== Structs ===================\r\n    struct Player {\r\n        address payable addr;\r\n        uint256 stake; // the number of money that player has staked\r\n        uint8 status; // 0: xiu, 1: tai\r\n        uint8 isWinner; // 0: Lose, 1: Win\r\n    }\r\n\r\n    struct Dice {\r\n        uint256 dice1;\r\n        uint256 dice2;\r\n        uint256 dice3;\r\n    }\r\n    //====================== Events ==========================\r\n    //Events mean that the contract will emit an event when something happens.\r\n    event StartGameEvent(uint256 gameId, uint256 timeStart, uint256 timeEnd);\r\n    event EndGameEvent(uint256 gameId, Player[] players, Dice result);\r\n    event PlaceBetEvent(uint256 gameId, Player player, uint256 totalPlayer);\r\n    event Received(address, uint256);\r\n\r\n    //====================== Game States ======================\r\n\r\n    uint256 public playerCount = 0;\r\n    uint256 public constant maxPlayerCount = 10;\r\n    uint256 public maxPlayerStake = 1 ether; //0.01\r\n    uint256 public minPlayerStake = 0.1 ether; //0.001\r\n    Player[] public players;\r\n\r\n    bool public isEnded = true;\r\n    uint256 public endTime = 0;\r\n    uint256 private randNonce = 0;\r\n    uint256 public gameId = 0;\r\n\r\n    // ====================== Modifier =========================\r\n    // Modifiers and requires are conditions that must be met before a function is executed.\r\n    // Game Condition:\r\n    // Player:\r\n    //      max player = 100\r\n    //      max stake = 10 Gwei\r\n    // Owner:\r\n    //      Start Game condition has enough money to pay for the game\r\n    //      End Game condition has enough money to pay for the game\r\n\r\n    modifier canPlaceBet() {\r\n        //check game has end\r\n        require(block.timestamp <= endTime, \"The game has ended\");\r\n        require(isEnded == false, \"The game has ended\");\r\n        //check max and min stake\r\n        require(msg.value >= minPlayerStake, \"Your stake is too low\");\r\n        require(msg.value <= maxPlayerStake, \"Your stake is too high\");\r\n        //check max player\r\n        require(playerCount < maxPlayerCount, \"Game session is full\");\r\n        //check player is not in game\r\n        for (uint256 i = 0; i < playerCount; i++) {\r\n            require(\r\n                players[i].addr != msg.sender,\r\n                \"Player already placed bet!\"\r\n            );\r\n        }\r\n        _;\r\n    }\r\n\r\n    modifier canStartGame() {\r\n        //check the owner has enough money to start the game\r\n        require(\r\n            msg.value >= (maxPlayerCount * maxPlayerStake * 19) / 10,\r\n            \"You don't have enough money to start the game\"\r\n        );\r\n        require(block.timestamp >= endTime, \"Game session has not ended\");\r\n        require(isEnded == true, \"Game session has not ended\");\r\n        _;\r\n    }\r\n\r\n    modifier canFinishGame() {\r\n        // require(block.timestamp <= endTime, \"Game session has not started\");\r\n        require(isEnded == false, \"Game session has not started\");\r\n        _;\r\n    }\r\n\r\n    // ====================== Player Functions ==================\r\n    function placeBet(uint256 stake, uint8 status) public payable canPlaceBet {\r\n        Player memory player = Player(msg.sender, stake, status, 0);\r\n        players.push(player);\r\n        playerCount++;\r\n\r\n        //Transefer money to owner of contract\r\n        emit PlaceBetEvent(gameId, player, playerCount);\r\n    }\r\n\r\n    // ====================== Owner Functions ==================\r\n    // Owner functions are functions that can only be called by the owner of the contract.\r\n\r\n    /*\r\n    @param sessionTime: the time that the game will last (in seconds)\r\n    */\r\n    function startGame(uint256 sessionTime, uint256 _random)\r\n        public\r\n        payable\r\n        onlyOwner\r\n        canStartGame\r\n    {\r\n        //Block timestamp is the number of seconds since the block was created.\r\n        endTime = block.timestamp + sessionTime;\r\n        isEnded = false;\r\n\r\n        // reset game state\r\n        playerCount = 0;\r\n        randNonce = _random;\r\n        gameId++;\r\n        delete players;\r\n        emit StartGameEvent(gameId, block.timestamp, endTime);\r\n    }\r\n\r\n    function finishGame() public onlyOwner canFinishGame {\r\n        isEnded = true;\r\n        endTime = block.timestamp;\r\n\r\n        Dice memory dice = randomDice();\r\n        uint256 totalDice = dice.dice1 + dice.dice2 + dice.dice3;\r\n\r\n        Player[] memory result = new Player[](playerCount);\r\n        for (uint64 i = 0; i < playerCount; i++) {\r\n            Player memory player = players[i];\r\n            if (canWin(player.status, totalDice)) {\r\n                player.isWinner = 1;\r\n                (bool isSuccess, ) = player.addr.call{\r\n                    value: (player.stake * 19) / 10\r\n                }(\"\");\r\n                require(isSuccess == true, \"Transfer money to player failed\");\r\n            } else {\r\n                player.isWinner = 0;\r\n            }\r\n            result[i] = player;\r\n        }\r\n        emit EndGameEvent(gameId, result, dice);\r\n        withDrawAllMoney();\r\n    }\r\n\r\n    // ====================== Helper Functions ==================\r\n    // Helper functions are functions that are used by other functions.\r\n    function random(uint256 min, uint256 max) internal returns (uint256) {\r\n        // Transaction-Level PRNG\r\n        randNonce = randNonce + 1;\r\n        uint256 randNumber = uint256(\r\n            keccak256(\r\n                abi.encodePacked(\r\n                    block.timestamp,\r\n                    block.difficulty,\r\n                    block.number,\r\n                    msg.sender,\r\n                    randNonce\r\n                )\r\n            )\r\n        );\r\n        return min + (randNumber % (max - min + 1));\r\n    }\r\n\r\n    function randomDice() internal returns (Dice memory) {\r\n        Dice memory dice = Dice(random(1, 6), random(1, 6), random(1, 6));\r\n        return dice;\r\n    }\r\n\r\n    function canWin(uint8 status, uint256 totalDice)\r\n        internal\r\n        pure\r\n        returns (bool)\r\n    {\r\n        //status : 0  xiu 4 - 10\r\n        //status : 1  tai 11 - 17\r\n        if (status == 1) {\r\n            return totalDice >= 11 && totalDice <= 17;\r\n        } else {\r\n            return totalDice >= 4 && totalDice <= 10;\r\n        }\r\n    }\r\n\r\n    function withDrawAllMoney() public {\r\n        (bool isSuccess, ) = msg.sender.call{value: address(this).balance}(\"\");\r\n        require(isSuccess == true, \"Cannot withdraw\");\r\n    }\r\n\r\n    // ======= Testing functions helpers ============\r\n    // Testing functions are functions that are used to test the contract.\r\n\r\n    function getBalance() public view returns (uint256) {\r\n        return address(this).balance;\r\n    }\r\n}\r\n",
  "sourcePath": "E:\\BaoTien\\Desktop\\smartcontract\\smartcontract-template\\contracts\\RandomGame.sol",
  "compiler": {
    "name": "solc",
    "version": "0.6.8+commit.0bbfe453.Emscripten.clang"
  },
  "schemaVersion": "3.4.4",
  "updatedAt": "2022-06-30T19:13:24.247Z",
  "networkType": "ethereum",
  "devdoc": {
    "methods": {
      "renounceOwnership()": {
        "details": "Allows the current owner to relinquish control of the contract."
      },
      "transferOwnership(address)": {
        "details": "Allows the current owner to transfer control of the contract to a newOwner.",
        "params": {
          "_newOwner": "The address to transfer ownership to."
        }
      }
    }
  },
  "userdoc": {
    "methods": {
      "renounceOwnership()": {
        "notice": "Renouncing to ownership will leave the contract without an owner. It will not be possible to call the functions with the `onlyOwner` modifier anymore."
      }
    }
  }
}