{
  "contractName": "RandomGame",
  "abi": [
    {
      "anonymous": false,
      "inputs": [
        {
          "indexed": false,
          "internalType": "uint256",
          "name": "gameId",
          "type": "uint256"
        },
        {
          "components": [
            {
              "internalType": "address payable",
              "name": "player",
              "type": "address"
            },
            {
              "internalType": "uint256",
              "name": "stake",
              "type": "uint256"
            },
            {
              "internalType": "uint8",
              "name": "status",
              "type": "uint8"
            }
          ],
          "indexed": false,
          "internalType": "struct RandomGame.Player",
          "name": "player",
          "type": "tuple"
        },
        {
          "indexed": false,
          "internalType": "uint8",
          "name": "isWiner",
          "type": "uint8"
        },
        {
          "components": [
            {
              "internalType": "uint256",
              "name": "dice1",
              "type": "uint256"
            },
            {
              "internalType": "uint256",
              "name": "dice2",
              "type": "uint256"
            },
            {
              "internalType": "uint256",
              "name": "dice3",
              "type": "uint256"
            }
          ],
          "indexed": false,
          "internalType": "struct RandomGame.Dice",
          "name": "result",
          "type": "tuple"
        }
      ],
      "name": "EndGameEvent",
      "type": "event"
    },
    {
      "anonymous": false,
      "inputs": [
        {
          "indexed": true,
          "internalType": "address",
          "name": "previousOwner",
          "type": "address"
        },
        {
          "indexed": true,
          "internalType": "address",
          "name": "newOwner",
          "type": "address"
        }
      ],
      "name": "OwnershipTransferred",
      "type": "event"
    },
    {
      "anonymous": false,
      "inputs": [
        {
          "indexed": false,
          "internalType": "uint256",
          "name": "gameId",
          "type": "uint256"
        },
        {
          "components": [
            {
              "internalType": "address payable",
              "name": "player",
              "type": "address"
            },
            {
              "internalType": "uint256",
              "name": "stake",
              "type": "uint256"
            },
            {
              "internalType": "uint8",
              "name": "status",
              "type": "uint8"
            }
          ],
          "indexed": false,
          "internalType": "struct RandomGame.Player",
          "name": "player",
          "type": "tuple"
        }
      ],
      "name": "PlaceBetEvent",
      "type": "event"
    },
    {
      "anonymous": false,
      "inputs": [
        {
          "indexed": false,
          "internalType": "address",
          "name": "",
          "type": "address"
        },
        {
          "indexed": false,
          "internalType": "uint256",
          "name": "",
          "type": "uint256"
        }
      ],
      "name": "Received",
      "type": "event"
    },
    {
      "anonymous": false,
      "inputs": [
        {
          "indexed": false,
          "internalType": "uint256",
          "name": "gameId",
          "type": "uint256"
        },
        {
          "indexed": false,
          "internalType": "uint256",
          "name": "timeStart",
          "type": "uint256"
        },
        {
          "indexed": false,
          "internalType": "uint256",
          "name": "timeEnd",
          "type": "uint256"
        }
      ],
      "name": "StartGameEvent",
      "type": "event"
    },
    {
      "inputs": [],
      "name": "endTime",
      "outputs": [
        {
          "internalType": "uint256",
          "name": "",
          "type": "uint256"
        }
      ],
      "stateMutability": "view",
      "type": "function"
    },
    {
      "inputs": [],
      "name": "gameId",
      "outputs": [
        {
          "internalType": "uint256",
          "name": "",
          "type": "uint256"
        }
      ],
      "stateMutability": "view",
      "type": "function"
    },
    {
      "inputs": [],
      "name": "isEnded",
      "outputs": [
        {
          "internalType": "bool",
          "name": "",
          "type": "bool"
        }
      ],
      "stateMutability": "view",
      "type": "function"
    },
    {
      "inputs": [],
      "name": "maxPlayerCount",
      "outputs": [
        {
          "internalType": "uint256",
          "name": "",
          "type": "uint256"
        }
      ],
      "stateMutability": "view",
      "type": "function"
    },
    {
      "inputs": [],
      "name": "owner",
      "outputs": [
        {
          "internalType": "address",
          "name": "",
          "type": "address"
        }
      ],
      "stateMutability": "view",
      "type": "function"
    },
    {
      "inputs": [],
      "name": "playerCount",
      "outputs": [
        {
          "internalType": "uint256",
          "name": "",
          "type": "uint256"
        }
      ],
      "stateMutability": "view",
      "type": "function"
    },
    {
      "inputs": [
        {
          "internalType": "uint256",
          "name": "",
          "type": "uint256"
        }
      ],
      "name": "players",
      "outputs": [
        {
          "internalType": "address payable",
          "name": "player",
          "type": "address"
        },
        {
          "internalType": "uint256",
          "name": "stake",
          "type": "uint256"
        },
        {
          "internalType": "uint8",
          "name": "status",
          "type": "uint8"
        }
      ],
      "stateMutability": "view",
      "type": "function"
    },
    {
      "inputs": [],
      "name": "randomToken",
      "outputs": [
        {
          "internalType": "contract RandomToken",
          "name": "",
          "type": "address"
        }
      ],
      "stateMutability": "view",
      "type": "function"
    },
    {
      "inputs": [],
      "name": "renounceOwnership",
      "outputs": [],
      "stateMutability": "nonpayable",
      "type": "function"
    },
    {
      "inputs": [
        {
          "internalType": "address",
          "name": "newOwner",
          "type": "address"
        }
      ],
      "name": "transferOwnership",
      "outputs": [],
      "stateMutability": "nonpayable",
      "type": "function"
    },
    {
      "inputs": [
        {
          "internalType": "uint256",
          "name": "stake",
          "type": "uint256"
        },
        {
          "internalType": "uint8",
          "name": "status",
          "type": "uint8"
        }
      ],
      "name": "placeBet",
      "outputs": [],
      "stateMutability": "payable",
      "type": "function"
    },
    {
      "inputs": [
        {
          "internalType": "uint256",
          "name": "sessionTime",
          "type": "uint256"
        },
        {
          "internalType": "uint256",
          "name": "_random",
          "type": "uint256"
        }
      ],
      "name": "startGame",
      "outputs": [],
      "stateMutability": "payable",
      "type": "function"
    },
    {
      "inputs": [],
      "name": "finishGame",
      "outputs": [],
      "stateMutability": "nonpayable",
      "type": "function"
    },
    {
      "inputs": [],
      "name": "getAllPlayers",
      "outputs": [
        {
          "components": [
            {
              "internalType": "address payable",
              "name": "player",
              "type": "address"
            },
            {
              "internalType": "uint256",
              "name": "stake",
              "type": "uint256"
            },
            {
              "internalType": "uint8",
              "name": "status",
              "type": "uint8"
            }
          ],
          "internalType": "struct RandomGame.Player[]",
          "name": "",
          "type": "tuple[]"
        }
      ],
      "stateMutability": "view",
      "type": "function"
    }
  ],
  "bytecode": "0x6080604052600060015560646002556001600460006101000a81548160ff02191690831515021790555060006005556000600655600060075534801561004457600080fd5b5061006161005661006660201b60201c565b61006e60201b60201c565b610132565b600033905090565b60008060009054906101000a900473ffffffffffffffffffffffffffffffffffffffff169050816000806101000a81548173ffffffffffffffffffffffffffffffffffffffff021916908373ffffffffffffffffffffffffffffffffffffffff1602179055508173ffffffffffffffffffffffffffffffffffffffff168173ffffffffffffffffffffffffffffffffffffffff167f8be0079c531659141344cd1fd0a4f28419497f9722a3daafe3b4186f6b6457e060405160405180910390a35050565b611b8d806101416000396000f3fe6080604052600436106100dd5760003560e01c8063a4fd6f561161007f578063de27a82011610059578063de27a8201461024a578063efa1c48214610275578063f2fde38b146102a0578063f71d96cb146102c9576100dd565b8063a4fd6f56146101c9578063d1472d31146101f4578063d7c81b551461021f576100dd565b8063715018a6116100bb578063715018a614610154578063730b83811461016b5780638da5cb5b146101875780639fecb69f146101b2576100dd565b806303edf914146100e2578063302bcc57146100fe5780633197cbb614610129575b600080fd5b6100fc60048036038101906100f79190610fd4565b610308565b005b34801561010a57600080fd5b50610113610586565b6040516101209190611023565b60405180910390f35b34801561013557600080fd5b5061013e61058c565b60405161014b9190611023565b60405180910390f35b34801561016057600080fd5b50610169610592565b005b6101856004803603810190610180919061103e565b61061a565b005b34801561019357600080fd5b5061019c6107e6565b6040516101a991906110bf565b60405180910390f35b3480156101be57600080fd5b506101c761080f565b005b3480156101d557600080fd5b506101de610a61565b6040516101eb91906110f5565b60405180910390f35b34801561020057600080fd5b50610209610a74565b604051610216919061116f565b60405180910390f35b34801561022b57600080fd5b50610234610a9a565b6040516102419190611023565b60405180910390f35b34801561025657600080fd5b5061025f610aa0565b60405161026c9190611023565b60405180910390f35b34801561028157600080fd5b5061028a610aa6565b60405161029791906112ba565b60405180910390f35b3480156102ac57600080fd5b506102c760048036038101906102c29190611308565b610b82565b005b3480156102d557600080fd5b506102f060048036038101906102eb9190611335565b610c79565b6040516102ff93929190611380565b60405180910390f35b60055442111561034d576040517f08c379a000000000000000000000000000000000000000000000000000000000815260040161034490611414565b60405180910390fd5b60001515600460009054906101000a900460ff161515146103a3576040517f08c379a000000000000000000000000000000000000000000000000000000000815260040161039a90611414565b60405180910390fd5b6000339050600060405180606001604052808373ffffffffffffffffffffffffffffffffffffffff1681526020018581526020018460ff168152509050600381908060018154018082558091505060019003906000526020600020906003020160009091909190915060008201518160000160006101000a81548173ffffffffffffffffffffffffffffffffffffffff021916908373ffffffffffffffffffffffffffffffffffffffff1602179055506020820151816001015560408201518160020160006101000a81548160ff021916908360ff16021790555050506001600081548092919061049390611463565b919050555060008273ffffffffffffffffffffffffffffffffffffffff16856040516104be906114dc565b60006040518083038185875af1925050503d80600081146104fb576040519150601f19603f3d011682016040523d82523d6000602084013e610500565b606091505b5050905080610544576040517f08c379a000000000000000000000000000000000000000000000000000000000815260040161053b90611563565b60405180910390fd5b7f017961666680692e7926b4d5bbf355555b9fdd3e722ae17a6d74a85fdfd2d239600754836040516105779291906115c5565b60405180910390a15050505050565b60015481565b60055481565b61059a610ce0565b73ffffffffffffffffffffffffffffffffffffffff166105b86107e6565b73ffffffffffffffffffffffffffffffffffffffff161461060e576040517f08c379a00000000000000000000000000000000000000000000000000000000081526004016106059061163a565b60405180910390fd5b6106186000610ce8565b565b610622610ce0565b73ffffffffffffffffffffffffffffffffffffffff166106406107e6565b73ffffffffffffffffffffffffffffffffffffffff1614610696576040517f08c379a000000000000000000000000000000000000000000000000000000000815260040161068d9061163a565b60405180910390fd5b81426106a2919061165a565b6005819055506000600460006101000a81548160ff021916908315150217905550600060018190555080600681905550600760008154809291906106e590611463565b9190505550600860009054906101000a900473ffffffffffffffffffffffffffffffffffffffff1673ffffffffffffffffffffffffffffffffffffffff166323b872dd3330670de0b6b3a76400006040518463ffffffff1660e01b8152600401610751939291906116eb565b6020604051808303816000875af1158015610770573d6000803e3d6000fd5b505050506040513d601f19601f82011682018060405250810190610794919061174e565b50600360006107a39190610ec1565b7f979fc205f0066238ab06805f2083d2f62c7aca84e1d2039eb1dfa89ba16bda36600754426005546040516107da9392919061177b565b60405180910390a15050565b60008060009054906101000a900473ffffffffffffffffffffffffffffffffffffffff16905090565b610817610ce0565b73ffffffffffffffffffffffffffffffffffffffff166108356107e6565b73ffffffffffffffffffffffffffffffffffffffff161461088b576040517f08c379a00000000000000000000000000000000000000000000000000000000081526004016108829061163a565b60405180910390fd5b6001600460006101000a81548160ff0219169083151502179055504260058190555060006108b7610dac565b905060008160400151826020015183600001516108d4919061165a565b6108de919061165a565b905060005b6001548167ffffffffffffffff161015610a5c57600060038267ffffffffffffffff1681548110610917576109166117b2565b5b90600052602060002090600302016040518060600160405290816000820160009054906101000a900473ffffffffffffffffffffffffffffffffffffffff1673ffffffffffffffffffffffffffffffffffffffff1673ffffffffffffffffffffffffffffffffffffffff168152602001600182015481526020016002820160009054906101000a900460ff1660ff1660ff168152505090506109bd816040015184610dfb565b15610a07577f5e3f2d8a0ef671744fcab906c7bdff6f8da93d91eef3b8a742cf957882753d26600754826001876040516109fa949392919061185e565b60405180910390a1610a48565b7f5e3f2d8a0ef671744fcab906c7bdff6f8da93d91eef3b8a742cf957882753d2660075482600087604051610a3f94939291906118df565b60405180910390a15b508080610a5490611939565b9150506108e3565b505050565b600460009054906101000a900460ff1681565b600860009054906101000a900473ffffffffffffffffffffffffffffffffffffffff1681565b60075481565b60025481565b60606003805480602002602001604051908101604052809291908181526020016000905b82821015610b7957838290600052602060002090600302016040518060600160405290816000820160009054906101000a900473ffffffffffffffffffffffffffffffffffffffff1673ffffffffffffffffffffffffffffffffffffffff1673ffffffffffffffffffffffffffffffffffffffff168152602001600182015481526020016002820160009054906101000a900460ff1660ff1660ff168152505081526020019060010190610aca565b50505050905090565b610b8a610ce0565b73ffffffffffffffffffffffffffffffffffffffff16610ba86107e6565b73ffffffffffffffffffffffffffffffffffffffff1614610bfe576040517f08c379a0000000000000000000000000000000000000000000000000000000008152600401610bf59061163a565b60405180910390fd5b600073ffffffffffffffffffffffffffffffffffffffff168173ffffffffffffffffffffffffffffffffffffffff1603610c6d576040517f08c379a0000000000000000000000000000000000000000000000000000000008152600401610c64906119db565b60405180910390fd5b610c7681610ce8565b50565b60038181548110610c8957600080fd5b90600052602060002090600302016000915090508060000160009054906101000a900473ffffffffffffffffffffffffffffffffffffffff16908060010154908060020160009054906101000a900460ff16905083565b600033905090565b60008060009054906101000a900473ffffffffffffffffffffffffffffffffffffffff169050816000806101000a81548173ffffffffffffffffffffffffffffffffffffffff021916908373ffffffffffffffffffffffffffffffffffffffff1602179055508173ffffffffffffffffffffffffffffffffffffffff168173ffffffffffffffffffffffffffffffffffffffff167f8be0079c531659141344cd1fd0a4f28419497f9722a3daafe3b4186f6b6457e060405160405180910390a35050565b610db4610ee5565b60006040518060600160405280610dcd60016006610e3b565b8152602001610dde60016006610e3b565b8152602001610def60016006610e3b565b81525090508091505090565b6000808360ff1603610e2057600b8210158015610e19575060118211155b9050610e35565b60048210158015610e325750600a8211155b90505b92915050565b60006001600654610e4c919061165a565b600681905550600042444333600654604051602001610e6f959493929190611a64565b6040516020818303038152906040528051906020012060001c905060018484610e989190611ac3565b610ea2919061165a565b81610ead9190611b26565b84610eb8919061165a565b91505092915050565b5080546000825560030290600052602060002090810190610ee29190610f06565b50565b60405180606001604052806000815260200160008152602001600081525090565b5b80821115610f5c57600080820160006101000a81549073ffffffffffffffffffffffffffffffffffffffff021916905560018201600090556002820160006101000a81549060ff021916905550600301610f07565b5090565b600080fd5b6000819050919050565b610f7881610f65565b8114610f8357600080fd5b50565b600081359050610f9581610f6f565b92915050565b600060ff82169050919050565b610fb181610f9b565b8114610fbc57600080fd5b50565b600081359050610fce81610fa8565b92915050565b60008060408385031215610feb57610fea610f60565b5b6000610ff985828601610f86565b925050602061100a85828601610fbf565b9150509250929050565b61101d81610f65565b82525050565b60006020820190506110386000830184611014565b92915050565b6000806040838503121561105557611054610f60565b5b600061106385828601610f86565b925050602061107485828601610f86565b9150509250929050565b600073ffffffffffffffffffffffffffffffffffffffff82169050919050565b60006110a98261107e565b9050919050565b6110b98161109e565b82525050565b60006020820190506110d460008301846110b0565b92915050565b60008115159050919050565b6110ef816110da565b82525050565b600060208201905061110a60008301846110e6565b92915050565b6000819050919050565b600061113561113061112b8461107e565b611110565b61107e565b9050919050565b60006111478261111a565b9050919050565b60006111598261113c565b9050919050565b6111698161114e565b82525050565b60006020820190506111846000830184611160565b92915050565b600081519050919050565b600082825260208201905092915050565b6000819050602082019050919050565b60006111c18261107e565b9050919050565b6111d1816111b6565b82525050565b6111e081610f65565b82525050565b6111ef81610f9b565b82525050565b60608201600082015161120b60008501826111c8565b50602082015161121e60208501826111d7565b50604082015161123160408501826111e6565b50505050565b600061124383836111f5565b60608301905092915050565b6000602082019050919050565b60006112678261118a565b6112718185611195565b935061127c836111a6565b8060005b838110156112ad5781516112948882611237565b975061129f8361124f565b925050600181019050611280565b5085935050505092915050565b600060208201905081810360008301526112d4818461125c565b905092915050565b6112e58161109e565b81146112f057600080fd5b50565b600081359050611302816112dc565b92915050565b60006020828403121561131e5761131d610f60565b5b600061132c848285016112f3565b91505092915050565b60006020828403121561134b5761134a610f60565b5b600061135984828501610f86565b91505092915050565b61136b816111b6565b82525050565b61137a81610f9b565b82525050565b60006060820190506113956000830186611362565b6113a26020830185611014565b6113af6040830184611371565b949350505050565b600082825260208201905092915050565b7f5468652067616d652068617320656e6465640000000000000000000000000000600082015250565b60006113fe6012836113b7565b9150611409826113c8565b602082019050919050565b6000602082019050818103600083015261142d816113f1565b9050919050565b7f4e487b7100000000000000000000000000000000000000000000000000000000600052601160045260246000fd5b600061146e82610f65565b91507fffffffffffffffffffffffffffffffffffffffffffffffffffffffffffffffff82036114a05761149f611434565b5b600182019050919050565b600081905092915050565b50565b60006114c66000836114ab565b91506114d1826114b6565b600082019050919050565b60006114e7826114b9565b9150819050919050565b7f596f7520646f6e2774206861766520656e6f756768206d6f6e657920746f206260008201527f6574000000000000000000000000000000000000000000000000000000000000602082015250565b600061154d6022836113b7565b9150611558826114f1565b604082019050919050565b6000602082019050818103600083015261157c81611540565b9050919050565b60608201600082015161159960008501826111c8565b5060208201516115ac60208501826111d7565b5060408201516115bf60408501826111e6565b50505050565b60006080820190506115da6000830185611014565b6115e76020830184611583565b9392505050565b7f4f776e61626c653a2063616c6c6572206973206e6f7420746865206f776e6572600082015250565b60006116246020836113b7565b915061162f826115ee565b602082019050919050565b6000602082019050818103600083015261165381611617565b9050919050565b600061166582610f65565b915061167083610f65565b9250827fffffffffffffffffffffffffffffffffffffffffffffffffffffffffffffffff038211156116a5576116a4611434565b5b828201905092915050565b6000819050919050565b60006116d56116d06116cb846116b0565b611110565b610f65565b9050919050565b6116e5816116ba565b82525050565b600060608201905061170060008301866110b0565b61170d60208301856110b0565b61171a60408301846116dc565b949350505050565b61172b816110da565b811461173657600080fd5b50565b60008151905061174881611722565b92915050565b60006020828403121561176457611763610f60565b5b600061177284828501611739565b91505092915050565b60006060820190506117906000830186611014565b61179d6020830185611014565b6117aa6040830184611014565b949350505050565b7f4e487b7100000000000000000000000000000000000000000000000000000000600052603260045260246000fd5b6000819050919050565b60006118066118016117fc846117e1565b611110565b610f9b565b9050919050565b611816816117eb565b82525050565b60608201600082015161183260008501826111d7565b50602082015161184560208501826111d7565b50604082015161185860408501826111d7565b50505050565b6000610100820190506118746000830187611014565b6118816020830186611583565b61188e608083018561180d565b61189b60a083018461181c565b95945050505050565b6000819050919050565b60006118c96118c46118bf846118a4565b611110565b610f9b565b9050919050565b6118d9816118ae565b82525050565b6000610100820190506118f56000830187611014565b6119026020830186611583565b61190f60808301856118d0565b61191c60a083018461181c565b95945050505050565b600067ffffffffffffffff82169050919050565b600061194482611925565b915067ffffffffffffffff820361195e5761195d611434565b5b600182019050919050565b7f4f776e61626c653a206e6577206f776e657220697320746865207a65726f206160008201527f6464726573730000000000000000000000000000000000000000000000000000602082015250565b60006119c56026836113b7565b91506119d082611969565b604082019050919050565b600060208201905081810360008301526119f4816119b8565b9050919050565b6000819050919050565b611a16611a1182610f65565b6119fb565b82525050565b60008160601b9050919050565b6000611a3482611a1c565b9050919050565b6000611a4682611a29565b9050919050565b611a5e611a598261109e565b611a3b565b82525050565b6000611a708288611a05565b602082019150611a808287611a05565b602082019150611a908286611a05565b602082019150611aa08285611a4d565b601482019150611ab08284611a05565b6020820191508190509695505050505050565b6000611ace82610f65565b9150611ad983610f65565b925082821015611aec57611aeb611434565b5b828203905092915050565b7f4e487b7100000000000000000000000000000000000000000000000000000000600052601260045260246000fd5b6000611b3182610f65565b9150611b3c83610f65565b925082611b4c57611b4b611af7565b5b82820690509291505056fea26469706673582212204e89b15514f2ec62de3f4c09fc7ca2c30e1924ba8c3bc3fbd1c1fc7370ba288164736f6c634300080f0033",
  "immutableReferences": {},
  "source": "// SPDX-License-Identifier: MIT\r\npragma solidity >=0.7.0 <0.9.0;\r\n\r\nimport \"@openzeppelin/contracts/token/ERC20/ERC20.sol\";\r\nimport \"@openzeppelin/contracts/access/Ownable.sol\";\r\nimport \"@openzeppelin/contracts/utils/math/SafeMath.sol\";\r\nimport \"./RandomToken.sol\";\r\n\r\ncontract RandomGame is Ownable {\r\n    using SafeMath for uint256;\r\n\r\n    //=================== Structs ===================\r\n    struct Player {\r\n        address payable player;\r\n        uint256 stake; // the number of money that player has staked\r\n        uint8 status; // 0: tai, 1: xiu\r\n    }\r\n\r\n    struct Dice {\r\n        uint256 dice1;\r\n        uint256 dice2;\r\n        uint256 dice3;\r\n    }\r\n    //====================== Events ==========================\r\n    //Events mean that the contract will emit an event when something happens.\r\n    event StartGameEvent(uint256 gameId, uint256 timeStart, uint256 timeEnd);\r\n    event EndGameEvent(\r\n        uint256 gameId,\r\n        Player player,\r\n        uint8 isWiner, //1 is winer, 0 is loser\r\n        Dice result\r\n    );\r\n    event PlaceBetEvent(uint256 gameId, Player player);\r\n    event Received(address, uint256);\r\n\r\n    //====================== Game States ======================\r\n\r\n    uint256 public playerCount = 0;\r\n    uint256 public maxPlayerCount = 100;\r\n    Player[] public players;\r\n\r\n    bool public isEnded = true;\r\n    uint256 public endTime = 0;\r\n    uint256 private randNonce = 0;\r\n    uint256 public gameId = 0;\r\n    RandomToken public randomToken;\r\n\r\n    // ====================== Modifier =========================\r\n    // Modifiers and requires are conditions that must be met before a function is executed.\r\n    // Game Condition:\r\n    // Player:\r\n    //      max player = 100\r\n    //      max stake = 10 Gwei\r\n    // Owner:\r\n    //      Start Game condition has enough money to pay for the game\r\n    //      End Game condition has enough money to pay for the game\r\n\r\n    modifier canPlaceBet() {\r\n        //check max player\r\n\r\n        //check player has enough money to bet\r\n\r\n        //check player is not in game\r\n\r\n        //check max and min stake\r\n\r\n        require(block.timestamp <= endTime, \"The game has ended\");\r\n        require(isEnded == false, \"The game has ended\");\r\n        _;\r\n    }\r\n\r\n    modifier canStartGame() {\r\n        //check the owner has enough money to start the game\r\n        require(block.timestamp >= endTime, \"The game has not ended\");\r\n        require(isEnded == true, \"Game   has not already ended\");\r\n        _;\r\n    }\r\n\r\n    modifier canFinishGame() {\r\n        require(block.timestamp >= endTime, \"The game has not ended\");\r\n        require(isEnded == false, \"Game has already ended\");\r\n        _;\r\n    }\r\n\r\n    // ====================== Player Functions ==================\r\n    function placeBet(uint256 stake, uint8 status) public payable canPlaceBet {\r\n        // require time <= endTime\r\n        // require money ? later\r\n        address payable addr = payable(msg.sender);\r\n\r\n        // If player already place a bet, how can he place another bet?\r\n        Player memory player = Player(addr, stake, status);\r\n        players.push(player);\r\n        playerCount++;\r\n\r\n        (bool success, ) = addr.call{value: stake}(\"\");\r\n        require(success, \"You don't have enough money to bet\");\r\n\r\n        // addr.transfer(stake);\r\n\r\n        //Transefer money to owner of contract\r\n        emit PlaceBetEvent(gameId, player);\r\n    }\r\n\r\n    // ====================== Owner Functions ==================\r\n    // Owner functions are functions that can only be called by the owner of the contract.\r\n\r\n    /*\r\n    @param sessionTime: the time that the game will last (in seconds)\r\n    */\r\n    function startGame(uint256 sessionTime, uint256 _random)\r\n        public\r\n        payable\r\n        onlyOwner\r\n    {\r\n        //Block timestamp is the number of seconds since the block was created.\r\n        endTime = block.timestamp + sessionTime;\r\n        isEnded = false;\r\n\r\n        // reset game state\r\n        playerCount = 0;\r\n        randNonce = _random;\r\n        gameId++;\r\n\r\n        randomToken.transferFrom(msg.sender, address(this), 1 ether);\r\n\r\n        delete players;\r\n        emit StartGameEvent(gameId, block.timestamp, endTime);\r\n    }\r\n\r\n    function finishGame() public onlyOwner {\r\n        isEnded = true;\r\n        endTime = block.timestamp;\r\n\r\n        Dice memory dice = randomDice();\r\n        uint256 totalDice = dice.dice1 + dice.dice2 + dice.dice3;\r\n        for (uint64 i = 0; i < playerCount; i++) {\r\n            Player memory player = players[i];\r\n            if (canWin(player.status, totalDice)) {\r\n                emit EndGameEvent(gameId, player, 1, dice);\r\n            } else {\r\n                emit EndGameEvent(gameId, player, 0, dice);\r\n            }\r\n        }\r\n    }\r\n\r\n    // ====================== Helper Functions ==================\r\n    // Helper functions are functions that are used by other functions.\r\n    function random(uint256 min, uint256 max) internal returns (uint256) {\r\n        // Transaction-Level PRNG\r\n        randNonce = randNonce + 1;\r\n        uint256 randNumber = uint256(\r\n            keccak256(\r\n                abi.encodePacked(\r\n                    block.timestamp,\r\n                    block.difficulty,\r\n                    block.number,\r\n                    msg.sender,\r\n                    randNonce\r\n                )\r\n            )\r\n        );\r\n        return min + (randNumber % (max - min + 1));\r\n    }\r\n\r\n    function randomDice() internal returns (Dice memory) {\r\n        Dice memory dice = Dice(random(1, 6), random(1, 6), random(1, 6));\r\n        return dice;\r\n    }\r\n\r\n    function canWin(uint8 status, uint256 totalDice)\r\n        internal\r\n        pure\r\n        returns (bool)\r\n    {\r\n        //status : 0  tai 11 - 17\r\n        //status : 1 xiu 4 - 10\r\n        if (status == 0) {\r\n            return totalDice >= 11 && totalDice <= 17;\r\n        } else {\r\n            return totalDice >= 4 && totalDice <= 10;\r\n        }\r\n    }\r\n\r\n    // ======= Testing functions helpers ============\r\n    // Testing functions are functions that are used to test the contract.\r\n    function getAllPlayers() public view returns (Player[] memory) {\r\n        return players;\r\n    }\r\n}\r\n",
  "sourcePath": "C:\\Users\\ASUS\\Documents\\GitHub\\smartcontract-template\\contracts\\RandomGame.sol",
  "compiler": {
    "name": "solc",
    "version": "0.8.15+commit.e14f2714.Emscripten.clang"
  },
  "schemaVersion": "3.4.7",
  "updatedAt": "2022-06-28T10:32:44.033Z",
  "networkType": "ethereum",
  "devdoc": {
    "kind": "dev",
    "methods": {
      "owner()": {
        "details": "Returns the address of the current owner."
      },
      "renounceOwnership()": {
        "details": "Leaves the contract without owner. It will not be possible to call `onlyOwner` functions anymore. Can only be called by the current owner. NOTE: Renouncing ownership will leave the contract without an owner, thereby removing any functionality that is only available to the owner."
      },
      "transferOwnership(address)": {
        "details": "Transfers ownership of the contract to a new account (`newOwner`). Can only be called by the current owner."
      }
    },
    "version": 1
  },
  "userdoc": {
    "kind": "user",
    "methods": {},
    "version": 1
  }
}