{
  "contractName": "RandomGame",
  "abi": [
    {
      "inputs": [],
      "stateMutability": "nonpayable",
      "type": "constructor"
    },
    {
      "anonymous": false,
      "inputs": [
        {
          "indexed": false,
          "internalType": "uint256",
          "name": "gameId",
          "type": "uint256"
        },
        {
          "components": [
            {
              "internalType": "address",
              "name": "player",
              "type": "address"
            },
            {
              "internalType": "uint256",
              "name": "stake",
              "type": "uint256"
            },
            {
              "internalType": "uint8",
              "name": "status",
              "type": "uint8"
            }
          ],
          "indexed": false,
          "internalType": "struct RandomGame.Player",
          "name": "player",
          "type": "tuple"
        },
        {
          "indexed": false,
          "internalType": "uint8",
          "name": "isWiner",
          "type": "uint8"
        },
        {
          "components": [
            {
              "internalType": "uint256",
              "name": "dice1",
              "type": "uint256"
            },
            {
              "internalType": "uint256",
              "name": "dice2",
              "type": "uint256"
            },
            {
              "internalType": "uint256",
              "name": "dice3",
              "type": "uint256"
            }
          ],
          "indexed": false,
          "internalType": "struct RandomGame.Dice",
          "name": "result",
          "type": "tuple"
        }
      ],
      "name": "EndGameEvent",
      "type": "event"
    },
    {
      "anonymous": false,
      "inputs": [
        {
          "indexed": true,
          "internalType": "address",
          "name": "previousOwner",
          "type": "address"
        },
        {
          "indexed": true,
          "internalType": "address",
          "name": "newOwner",
          "type": "address"
        }
      ],
      "name": "OwnershipTransferred",
      "type": "event"
    },
    {
      "anonymous": false,
      "inputs": [
        {
          "indexed": false,
          "internalType": "uint256",
          "name": "gameId",
          "type": "uint256"
        },
        {
          "components": [
            {
              "internalType": "address",
              "name": "player",
              "type": "address"
            },
            {
              "internalType": "uint256",
              "name": "stake",
              "type": "uint256"
            },
            {
              "internalType": "uint8",
              "name": "status",
              "type": "uint8"
            }
          ],
          "indexed": false,
          "internalType": "struct RandomGame.Player",
          "name": "player",
          "type": "tuple"
        }
      ],
      "name": "PlaceBetEvent",
      "type": "event"
    },
    {
      "anonymous": false,
      "inputs": [
        {
          "indexed": false,
          "internalType": "uint256",
          "name": "gameId",
          "type": "uint256"
        },
        {
          "indexed": false,
          "internalType": "uint256",
          "name": "timeStart",
          "type": "uint256"
        },
        {
          "indexed": false,
          "internalType": "uint256",
          "name": "timeEnd",
          "type": "uint256"
        }
      ],
      "name": "StartGameEvent",
      "type": "event"
    },
    {
      "inputs": [],
      "name": "endTime",
      "outputs": [
        {
          "internalType": "uint256",
          "name": "",
          "type": "uint256"
        }
      ],
      "stateMutability": "view",
      "type": "function",
      "constant": true
    },
    {
      "inputs": [],
      "name": "gameId",
      "outputs": [
        {
          "internalType": "uint256",
          "name": "",
          "type": "uint256"
        }
      ],
      "stateMutability": "view",
      "type": "function",
      "constant": true
    },
    {
      "inputs": [],
      "name": "isEnded",
      "outputs": [
        {
          "internalType": "bool",
          "name": "",
          "type": "bool"
        }
      ],
      "stateMutability": "view",
      "type": "function",
      "constant": true
    },
    {
      "inputs": [],
      "name": "maxPlayerCount",
      "outputs": [
        {
          "internalType": "uint256",
          "name": "",
          "type": "uint256"
        }
      ],
      "stateMutability": "view",
      "type": "function",
      "constant": true
    },
    {
      "inputs": [],
      "name": "owner",
      "outputs": [
        {
          "internalType": "address",
          "name": "",
          "type": "address"
        }
      ],
      "stateMutability": "view",
      "type": "function",
      "constant": true
    },
    {
      "inputs": [],
      "name": "playerCount",
      "outputs": [
        {
          "internalType": "uint256",
          "name": "",
          "type": "uint256"
        }
      ],
      "stateMutability": "view",
      "type": "function",
      "constant": true
    },
    {
      "inputs": [
        {
          "internalType": "uint256",
          "name": "",
          "type": "uint256"
        }
      ],
      "name": "players",
      "outputs": [
        {
          "internalType": "address",
          "name": "player",
          "type": "address"
        },
        {
          "internalType": "uint256",
          "name": "stake",
          "type": "uint256"
        },
        {
          "internalType": "uint8",
          "name": "status",
          "type": "uint8"
        }
      ],
      "stateMutability": "view",
      "type": "function",
      "constant": true
    },
    {
      "inputs": [],
      "name": "renounceOwnership",
      "outputs": [],
      "stateMutability": "nonpayable",
      "type": "function"
    },
    {
      "inputs": [
        {
          "internalType": "address",
          "name": "newOwner",
          "type": "address"
        }
      ],
      "name": "transferOwnership",
      "outputs": [],
      "stateMutability": "nonpayable",
      "type": "function"
    },
    {
      "inputs": [
        {
          "internalType": "uint256",
          "name": "stake",
          "type": "uint256"
        },
        {
          "internalType": "uint8",
          "name": "status",
          "type": "uint8"
        }
      ],
      "name": "placeBet",
      "outputs": [],
      "stateMutability": "payable",
      "type": "function",
      "payable": true
    },
    {
      "inputs": [
        {
          "internalType": "uint256",
          "name": "sessionTime",
          "type": "uint256"
        }
      ],
      "name": "startGame",
      "outputs": [],
      "stateMutability": "nonpayable",
      "type": "function"
    },
    {
      "inputs": [],
      "name": "finishGame",
      "outputs": [],
      "stateMutability": "nonpayable",
      "type": "function"
    },
    {
      "inputs": [],
      "name": "getAllPlayers",
      "outputs": [
        {
          "components": [
            {
              "internalType": "address",
              "name": "player",
              "type": "address"
            },
            {
              "internalType": "uint256",
              "name": "stake",
              "type": "uint256"
            },
            {
              "internalType": "uint8",
              "name": "status",
              "type": "uint8"
            }
          ],
          "internalType": "struct RandomGame.Player[]",
          "name": "",
          "type": "tuple[]"
        }
      ],
      "stateMutability": "view",
      "type": "function",
      "constant": true
    }
  ],
  "bytecode": "0x6080604052600060015560646002556001600460006101000a81548160ff0219169083151502179055506000600555600060065560006007553480156200004557600080fd5b50620000666200005a6200008160201b60201c565b6200008960201b60201c565b600a4262000075919062000186565b600581905550620001c1565b600033905090565b60008060009054906101000a900473ffffffffffffffffffffffffffffffffffffffff169050816000806101000a81548173ffffffffffffffffffffffffffffffffffffffff021916908373ffffffffffffffffffffffffffffffffffffffff1602179055508173ffffffffffffffffffffffffffffffffffffffff168173ffffffffffffffffffffffffffffffffffffffff167f8be0079c531659141344cd1fd0a4f28419497f9722a3daafe3b4186f6b6457e060405160405180910390a35050565b6000819050919050565b7f4e487b7100000000000000000000000000000000000000000000000000000000600052601160045260246000fd5b600062000193826200014d565b9150620001a0836200014d565b925082821015620001b657620001b562000157565b5b828203905092915050565b6116d080620001d16000396000f3fe6080604052600436106100c25760003560e01c8063a4fd6f561161007f578063e5ed1d5911610059578063e5ed1d5914610213578063efa1c4821461023c578063f2fde38b14610267578063f71d96cb14610290576100c2565b8063a4fd6f5614610192578063d7c81b55146101bd578063de27a820146101e8576100c2565b806303edf914146100c7578063302bcc57146100e35780633197cbb61461010e578063715018a6146101395780638da5cb5b146101505780639fecb69f1461017b575b600080fd5b6100e160048036038101906100dc9190610d8b565b6102cf565b005b3480156100ef57600080fd5b506100f861049a565b6040516101059190610dda565b60405180910390f35b34801561011a57600080fd5b506101236104a0565b6040516101309190610dda565b60405180910390f35b34801561014557600080fd5b5061014e6104a6565b005b34801561015c57600080fd5b5061016561052e565b6040516101729190610e36565b60405180910390f35b34801561018757600080fd5b50610190610557565b005b34801561019e57600080fd5b506101a76107a9565b6040516101b49190610e6c565b60405180910390f35b3480156101c957600080fd5b506101d26107bc565b6040516101df9190610dda565b60405180910390f35b3480156101f457600080fd5b506101fd6107c2565b60405161020a9190610dda565b60405180910390f35b34801561021f57600080fd5b5061023a60048036038101906102359190610e87565b6107c8565b005b34801561024857600080fd5b506102516108db565b60405161025e9190610fd2565b60405180910390f35b34801561027357600080fd5b5061028e60048036038101906102899190611020565b6109b7565b005b34801561029c57600080fd5b506102b760048036038101906102b29190610e87565b610aae565b6040516102c69392919061105c565b60405180910390f35b600554421115610314576040517f08c379a000000000000000000000000000000000000000000000000000000000815260040161030b906110f0565b60405180910390fd5b60001515600460009054906101000a900460ff1615151461036a576040517f08c379a0000000000000000000000000000000000000000000000000000000008152600401610361906110f0565b60405180910390fd5b600060405180606001604052803373ffffffffffffffffffffffffffffffffffffffff1681526020018481526020018360ff168152509050600381908060018154018082558091505060019003906000526020600020906003020160009091909190915060008201518160000160006101000a81548173ffffffffffffffffffffffffffffffffffffffff021916908373ffffffffffffffffffffffffffffffffffffffff1602179055506020820151816001015560408201518160020160006101000a81548160ff021916908360ff1602179055505050600160008154809291906104559061113f565b91905055507f017961666680692e7926b4d5bbf355555b9fdd3e722ae17a6d74a85fdfd2d2396007548260405161048d9291906111c9565b60405180910390a1505050565b60015481565b60055481565b6104ae610b15565b73ffffffffffffffffffffffffffffffffffffffff166104cc61052e565b73ffffffffffffffffffffffffffffffffffffffff1614610522576040517f08c379a00000000000000000000000000000000000000000000000000000000081526004016105199061123e565b60405180910390fd5b61052c6000610b1d565b565b60008060009054906101000a900473ffffffffffffffffffffffffffffffffffffffff16905090565b61055f610b15565b73ffffffffffffffffffffffffffffffffffffffff1661057d61052e565b73ffffffffffffffffffffffffffffffffffffffff16146105d3576040517f08c379a00000000000000000000000000000000000000000000000000000000081526004016105ca9061123e565b60405180910390fd5b6001600460006101000a81548160ff0219169083151502179055504260058190555060006105ff610be1565b9050600081604001518260200151836000015161061c919061125e565b610626919061125e565b905060005b6001548167ffffffffffffffff1610156107a457600060038267ffffffffffffffff168154811061065f5761065e6112b4565b5b90600052602060002090600302016040518060600160405290816000820160009054906101000a900473ffffffffffffffffffffffffffffffffffffffff1673ffffffffffffffffffffffffffffffffffffffff1673ffffffffffffffffffffffffffffffffffffffff168152602001600182015481526020016002820160009054906101000a900460ff1660ff1660ff16815250509050610705816040015184610c30565b1561074f577f5e3f2d8a0ef671744fcab906c7bdff6f8da93d91eef3b8a742cf957882753d2660075482600187604051610742949392919061136a565b60405180910390a1610790565b7f5e3f2d8a0ef671744fcab906c7bdff6f8da93d91eef3b8a742cf957882753d266007548260008760405161078794939291906113eb565b60405180910390a15b50808061079c90611445565b91505061062b565b505050565b600460009054906101000a900460ff1681565b60075481565b60025481565b6107d0610b15565b73ffffffffffffffffffffffffffffffffffffffff166107ee61052e565b73ffffffffffffffffffffffffffffffffffffffff1614610844576040517f08c379a000000000000000000000000000000000000000000000000000000000815260040161083b9061123e565b60405180910390fd5b8042610850919061125e565b6005819055506000600460006101000a81548160ff02191690831515021790555060006001819055506000600681905550600760008154809291906108949061113f565b91905055507f979fc205f0066238ab06805f2083d2f62c7aca84e1d2039eb1dfa89ba16bda36600754426005546040516108d093929190611475565b60405180910390a150565b60606003805480602002602001604051908101604052809291908181526020016000905b828210156109ae57838290600052602060002090600302016040518060600160405290816000820160009054906101000a900473ffffffffffffffffffffffffffffffffffffffff1673ffffffffffffffffffffffffffffffffffffffff1673ffffffffffffffffffffffffffffffffffffffff168152602001600182015481526020016002820160009054906101000a900460ff1660ff1660ff1681525050815260200190600101906108ff565b50505050905090565b6109bf610b15565b73ffffffffffffffffffffffffffffffffffffffff166109dd61052e565b73ffffffffffffffffffffffffffffffffffffffff1614610a33576040517f08c379a0000000000000000000000000000000000000000000000000000000008152600401610a2a9061123e565b60405180910390fd5b600073ffffffffffffffffffffffffffffffffffffffff168173ffffffffffffffffffffffffffffffffffffffff1603610aa2576040517f08c379a0000000000000000000000000000000000000000000000000000000008152600401610a999061151e565b60405180910390fd5b610aab81610b1d565b50565b60038181548110610abe57600080fd5b90600052602060002090600302016000915090508060000160009054906101000a900473ffffffffffffffffffffffffffffffffffffffff16908060010154908060020160009054906101000a900460ff16905083565b600033905090565b60008060009054906101000a900473ffffffffffffffffffffffffffffffffffffffff169050816000806101000a81548173ffffffffffffffffffffffffffffffffffffffff021916908373ffffffffffffffffffffffffffffffffffffffff1602179055508173ffffffffffffffffffffffffffffffffffffffff168173ffffffffffffffffffffffffffffffffffffffff167f8be0079c531659141344cd1fd0a4f28419497f9722a3daafe3b4186f6b6457e060405160405180910390a35050565b610be9610cf6565b60006040518060600160405280610c0260016006610c70565b8152602001610c1360016006610c70565b8152602001610c2460016006610c70565b81525090508091505090565b6000808360ff1603610c5557600b8210158015610c4e575060118211155b9050610c6a565b60048210158015610c675750600a8211155b90505b92915050565b60006001600654610c81919061125e565b600681905550600042444333600654604051602001610ca49594939291906115a7565b6040516020818303038152906040528051906020012060001c905060018484610ccd9190611606565b610cd7919061125e565b81610ce29190611669565b84610ced919061125e565b91505092915050565b60405180606001604052806000815260200160008152602001600081525090565b600080fd5b6000819050919050565b610d2f81610d1c565b8114610d3a57600080fd5b50565b600081359050610d4c81610d26565b92915050565b600060ff82169050919050565b610d6881610d52565b8114610d7357600080fd5b50565b600081359050610d8581610d5f565b92915050565b60008060408385031215610da257610da1610d17565b5b6000610db085828601610d3d565b9250506020610dc185828601610d76565b9150509250929050565b610dd481610d1c565b82525050565b6000602082019050610def6000830184610dcb565b92915050565b600073ffffffffffffffffffffffffffffffffffffffff82169050919050565b6000610e2082610df5565b9050919050565b610e3081610e15565b82525050565b6000602082019050610e4b6000830184610e27565b92915050565b60008115159050919050565b610e6681610e51565b82525050565b6000602082019050610e816000830184610e5d565b92915050565b600060208284031215610e9d57610e9c610d17565b5b6000610eab84828501610d3d565b91505092915050565b600081519050919050565b600082825260208201905092915050565b6000819050602082019050919050565b610ee981610e15565b82525050565b610ef881610d1c565b82525050565b610f0781610d52565b82525050565b606082016000820151610f236000850182610ee0565b506020820151610f366020850182610eef565b506040820151610f496040850182610efe565b50505050565b6000610f5b8383610f0d565b60608301905092915050565b6000602082019050919050565b6000610f7f82610eb4565b610f898185610ebf565b9350610f9483610ed0565b8060005b83811015610fc5578151610fac8882610f4f565b9750610fb783610f67565b925050600181019050610f98565b5085935050505092915050565b60006020820190508181036000830152610fec8184610f74565b905092915050565b610ffd81610e15565b811461100857600080fd5b50565b60008135905061101a81610ff4565b92915050565b60006020828403121561103657611035610d17565b5b60006110448482850161100b565b91505092915050565b61105681610d52565b82525050565b60006060820190506110716000830186610e27565b61107e6020830185610dcb565b61108b604083018461104d565b949350505050565b600082825260208201905092915050565b7f5468652067616d652068617320656e6465640000000000000000000000000000600082015250565b60006110da601283611093565b91506110e5826110a4565b602082019050919050565b60006020820190508181036000830152611109816110cd565b9050919050565b7f4e487b7100000000000000000000000000000000000000000000000000000000600052601160045260246000fd5b600061114a82610d1c565b91507fffffffffffffffffffffffffffffffffffffffffffffffffffffffffffffffff820361117c5761117b611110565b5b600182019050919050565b60608201600082015161119d6000850182610ee0565b5060208201516111b06020850182610eef565b5060408201516111c36040850182610efe565b50505050565b60006080820190506111de6000830185610dcb565b6111eb6020830184611187565b9392505050565b7f4f776e61626c653a2063616c6c6572206973206e6f7420746865206f776e6572600082015250565b6000611228602083611093565b9150611233826111f2565b602082019050919050565b600060208201905081810360008301526112578161121b565b9050919050565b600061126982610d1c565b915061127483610d1c565b9250827fffffffffffffffffffffffffffffffffffffffffffffffffffffffffffffffff038211156112a9576112a8611110565b5b828201905092915050565b7f4e487b7100000000000000000000000000000000000000000000000000000000600052603260045260246000fd5b6000819050919050565b6000819050919050565b600061131261130d611308846112e3565b6112ed565b610d52565b9050919050565b611322816112f7565b82525050565b60608201600082015161133e6000850182610eef565b5060208201516113516020850182610eef565b5060408201516113646040850182610eef565b50505050565b6000610100820190506113806000830187610dcb565b61138d6020830186611187565b61139a6080830185611319565b6113a760a0830184611328565b95945050505050565b6000819050919050565b60006113d56113d06113cb846113b0565b6112ed565b610d52565b9050919050565b6113e5816113ba565b82525050565b6000610100820190506114016000830187610dcb565b61140e6020830186611187565b61141b60808301856113dc565b61142860a0830184611328565b95945050505050565b600067ffffffffffffffff82169050919050565b600061145082611431565b915067ffffffffffffffff820361146a57611469611110565b5b600182019050919050565b600060608201905061148a6000830186610dcb565b6114976020830185610dcb565b6114a46040830184610dcb565b949350505050565b7f4f776e61626c653a206e6577206f776e657220697320746865207a65726f206160008201527f6464726573730000000000000000000000000000000000000000000000000000602082015250565b6000611508602683611093565b9150611513826114ac565b604082019050919050565b60006020820190508181036000830152611537816114fb565b9050919050565b6000819050919050565b61155961155482610d1c565b61153e565b82525050565b60008160601b9050919050565b60006115778261155f565b9050919050565b60006115898261156c565b9050919050565b6115a161159c82610e15565b61157e565b82525050565b60006115b38288611548565b6020820191506115c38287611548565b6020820191506115d38286611548565b6020820191506115e38285611590565b6014820191506115f38284611548565b6020820191508190509695505050505050565b600061161182610d1c565b915061161c83610d1c565b92508282101561162f5761162e611110565b5b828203905092915050565b7f4e487b7100000000000000000000000000000000000000000000000000000000600052601260045260246000fd5b600061167482610d1c565b915061167f83610d1c565b92508261168f5761168e61163a565b5b82820690509291505056fea26469706673582212200ce06d7eeaa904d26e1e7f8d06853ce488f211642a769bfe74e2780009ec24b764736f6c634300080f0033",
  "immutableReferences": {},
  "source": "// SPDX-License-Identifier: MIT\r\npragma solidity >=0.4.22 <0.9.0;\r\nimport \"@openzeppelin/contracts/token/ERC20/ERC20.sol\";\r\nimport \"@openzeppelin/contracts/access/Ownable.sol\";\r\nimport \"@openzeppelin/contracts/utils/math/SafeMath.sol\";\r\n\r\ncontract RandomGame is Ownable {\r\n    using SafeMath for uint256;\r\n\r\n    //=================== Structs ===================\r\n    struct Player {\r\n        address player;\r\n        uint256 stake; // the number of money that player has staked\r\n        uint8 status; //0: tai, 1: xiu\r\n    }\r\n\r\n    struct Dice {\r\n        uint256 dice1;\r\n        uint256 dice2;\r\n        uint256 dice3;\r\n    }\r\n    //====================== Events ==========================\r\n    //Events mean that the contract will emit an event when something happens.\r\n    event StartGameEvent(uint256 gameId, uint256 timeStart, uint256 timeEnd);\r\n    event EndGameEvent(\r\n        uint256 gameId,\r\n        Player player,\r\n        uint8 isWiner, //1 is winer, 0 is loser\r\n        Dice result\r\n    );\r\n    event PlaceBetEvent(uint256 gameId, Player player);\r\n    //====================== Game States ======================\r\n\r\n    uint256 public playerCount = 0;\r\n    uint256 public maxPlayerCount = 100;\r\n    Player[] public players;\r\n\r\n    bool public isEnded = true;\r\n    uint256 public endTime = 0;\r\n    uint256 private randNonce = 0;\r\n    uint256 public gameId = 0;\r\n\r\n    constructor() {\r\n        endTime = block.timestamp - 10;\r\n    }\r\n\r\n    // ====================== Modifier =========================\r\n    // Modifiers and requires are conditions that must be met before a function is executed.\r\n    modifier canPlaceBet() {\r\n        require(block.timestamp <= endTime, \"The game has ended\");\r\n        require(isEnded == false, \"The game has ended\");\r\n        _;\r\n    }\r\n\r\n    modifier canStartGame() {\r\n        require(block.timestamp >= endTime, \"The game has not ended\");\r\n        require(isEnded == true, \"Game   has not already ended\");\r\n        _;\r\n    }\r\n\r\n    modifier canFinishGame() {\r\n        require(block.timestamp >= endTime, \"The game has not ended\");\r\n        require(isEnded == false, \"Game has already ended\");\r\n        _;\r\n    }\r\n\r\n    // ====================== Player Functions ==================\r\n    function placeBet(uint256 stake, uint8 status) public payable canPlaceBet {\r\n        // require time <= endTime\r\n        // require money ? later\r\n\r\n        // If player already place a bet, how can he place another bet?\r\n        Player memory player = Player(msg.sender, stake, status);\r\n        // players[playerCount] = player;\r\n        players.push(player);\r\n        playerCount++;\r\n        //Transefer money to owner of contract\r\n        emit PlaceBetEvent(gameId, player);\r\n    }\r\n\r\n    // ====================== Owner Functions ==================\r\n    // Owner functions are functions that can only be called by the owner of the contract.\r\n\r\n    /*\r\n    @param sessionTime: the time that the game will last (in seconds)\r\n    */\r\n    function startGame(uint256 sessionTime) public onlyOwner  {\r\n        //Block timestamp is the number of seconds since the block was created.\r\n        endTime = block.timestamp + sessionTime;\r\n        isEnded = false;\r\n\r\n        // reset game state\r\n        playerCount = 0;\r\n        randNonce = 0;\r\n        gameId++;\r\n        emit StartGameEvent(gameId, block.timestamp, endTime);\r\n    }\r\n\r\n    function finishGame() public onlyOwner  {\r\n        isEnded = true;\r\n        endTime = block.timestamp;\r\n\r\n        Dice memory dice = randomDice();\r\n        uint256 totalDice = dice.dice1 + dice.dice2 + dice.dice3;\r\n        for (uint64 i = 0; i < playerCount; i++) {\r\n            Player memory player = players[i];\r\n            if (canWin(player.status, totalDice)) {\r\n                emit EndGameEvent(gameId, player, 1, dice);\r\n            } else {\r\n                emit EndGameEvent(gameId, player, 0, dice);\r\n            }\r\n        }\r\n    }\r\n\r\n    // ====================== Helper Functions ==================\r\n    // Helper functions are functions that are used by other functions.\r\n    function random(uint256 min, uint256 max) internal returns (uint256) {\r\n        // Transaction-Level PRNG\r\n        randNonce = randNonce + 1;\r\n        uint256 randNumber = uint256(\r\n            keccak256(\r\n                abi.encodePacked(\r\n                    block.timestamp,\r\n                    block.difficulty,\r\n                    block.number,\r\n                    msg.sender,\r\n                    randNonce\r\n                )\r\n            )\r\n        );\r\n        return min + (randNumber % (max - min + 1));\r\n    }\r\n\r\n    function randomDice() internal returns (Dice memory) {\r\n        Dice memory dice = Dice(random(1, 6), random(1, 6), random(1, 6));\r\n        return dice;\r\n    }\r\n\r\n    function canWin(uint8 status, uint256 totalDice)\r\n        internal\r\n        pure\r\n        returns (bool)\r\n    {\r\n        //status : 0  tai 11 - 17\r\n        //status : 1 xiu 4 - 10\r\n        if (status == 0) {\r\n            return totalDice >= 11 && totalDice <= 17;\r\n        } else {\r\n            return totalDice >= 4 && totalDice <= 10;\r\n        }\r\n    }\r\n\r\n    // ======= Testing functions helpers ============\r\n    // Testing functions are functions that are used to test the contract.\r\n    function getAllPlayers() public view returns (Player[] memory) {\r\n        return players;\r\n    }\r\n}\r\n",
  "sourcePath": "C:\\Users\\ASUS\\Documents\\GitHub\\smartcontract-template\\contracts\\RandomGame.sol",
  "compiler": {
    "name": "solc",
    "version": "0.8.15+commit.e14f2714.Emscripten.clang"
  },
  "schemaVersion": "3.4.7",
  "updatedAt": "2022-06-28T03:06:35.563Z",
  "networkType": "ethereum",
  "devdoc": {
    "kind": "dev",
    "methods": {
      "owner()": {
        "details": "Returns the address of the current owner."
      },
      "renounceOwnership()": {
        "details": "Leaves the contract without owner. It will not be possible to call `onlyOwner` functions anymore. Can only be called by the current owner. NOTE: Renouncing ownership will leave the contract without an owner, thereby removing any functionality that is only available to the owner."
      },
      "transferOwnership(address)": {
        "details": "Transfers ownership of the contract to a new account (`newOwner`). Can only be called by the current owner."
      }
    },
    "version": 1
  },
  "userdoc": {
    "kind": "user",
    "methods": {},
    "version": 1
  }
}